:020000040000FA
:100000000817012079180000EF4400004D18000087
:100010004D1800004D1800004D1800004D1800004C
:10002000000000000000000000000000DD150000DE
:100030004D180000000000004D1800004D18000091
:100040003D1600003D1600003D1600003D16000064
:100050003D1600003D1600003D1600003D16000054
:100060003D1600003D1600003D1600003D16000044
:100070003D1600003D1600003D1600003D16000034
:100080003D1600003D1600003D1600003D16000024
:100090003D1600003D1600003D1600003D16000014
:1000A0003D1600003D1600003D1600003D16000004
:1000B0003D1600003D1600003D1600003D160000F4
:1000C0003D1600003D1600003D1600003D160000E4
:1000D0003D1600003D1600003D1600003D160000D4
:1000E0003D1600003D1600003D1600003D160000C4
:1000F0003D1600003D1600003D1600003D160000B4
:100100003D1600003D1600003D1600003D160000A3
:100110003D1600003D1600003D1600003D16000093
:100120003D1600003D1600003D1600003D16000083
:100130003D1600003D1600003D1600003D16000073
:100140003D1600000000000000000000000000005C
:10015000000000000000000000000000000000009F
:10016000000000000000000000000000000000008F
:10017000000000000000000000000000000000007F
:10018000000000000000000000000000000000006F
:10019000000000000000000000000000000000005F
:1001A000000000000000000000000000000000004F
:1001B000000000000000000000000000000000003F
:1001C000000000000000000000000000000000002F
:1001D000000000000000000000000000000000001F
:1001E000000000000000000000000000000000000F
:1001F00000000000000000000000000000000000FF
:10020000DEE61E284CBBCE8F025B0000EC00000037
:100210008A5B0000010000000000000000000000F8
:10022000FFFF02910000000000000000000000003D
:10023000000000000500000000000000DEE61E28AF
:10024000EAAC45B8025B000020000000031000008B
:1002500001000000010000009D480000DEE61E28AD
:10026000EAAC45B8025B000030000000021000005C
:100270000000000001000000392100006549000075
:100280006B490000D147000074000000DEE61E2824
:10029000EAAC45B8025B000020000000011000003D
:1002A000020000000100000067480000DEE61E2892
:1002B000EAAC45B8025B000020000000011100001C
:1002C0000300000001000000F5490000DEE61E28E2
:1002D000EAAC45B8025B00002000000000120000FC
:1002E00000000000010000006D260000FFFFFFFF7E
:1002F00053B94AB9002908BF00281CBF4FF0FF318D
:100300004FF0FF3000F00CB8ADF1080C6DE904CEF1
:1003100000F036F8DDF804E0DDE9022304B07047B0
:10032000704700BF30B44FF0000310F8014B11F8D4
:10033000015B013A84EA050443EA0403F5D1A3F121
:1003400001034FEAD37030BC704700BF4FF0000389
:1003500010F8012B013943EA0203F9D1A3F101039B
:100360004FEAD370704700BF30B411F8014B12F858
:10037000015B6C4000F8014B013BF6D130BC70478B
:100380002DE9F04786468C460846089E1546744679
:100390001946002B40F0C1808542B2FA82F245D95D
:1003A0004AB1C2F1200300FA02FC954094402EFAB3
:1003B00003F343EA0C0C4FEA154EA8B2230CBCFB26
:1003C000FEF80EFB18CC08FB00F943EA0C439945F4
:1003D00028D9EB1808F1FF3704D2994502D9A8F1C2
:1003E00002072B44A3EB0903A4B2B3FBFEFC0EFBF4
:1003F0001C330CFB00F044EA0344A04214D92C192E
:100400000CF1FF3304D2A04202D9ACF102032C4418
:10041000241A43EA07401EB1D440002334607360BD
:10042000BDE8F0874746DDE76346F1E792BB431B33
:1004300001214FEA154EAFB2200CB3FBFEFC0EFBC0
:100440001C330CFB07F840EA0343984561D9EB18CD
:100450000CF1FF3004D2984502D9ACF102002B44D4
:10046000A3EB0803A4B2B3FBFEFC0EFB1C330CFB96
:1004700007F744EA0344A7424DD92C190CF1FF3386
:1004800004D2A74202D9ACF102032C44E41B43EA94
:100490000040C0E7C2F120039540944020FA03F1E8
:1004A0002EFA03F34FEA154E9040AFB20343B1FB6F
:1004B000FEFC0EFB1C10190C0CFB07F841EA004176
:1004C000884522D969180CF1FF3004D2884502D939
:1004D000ACF102002944A1EB08019BB2B1FBFEFC88
:1004E0000EFB1C110CFB07F743EA01439F420ED998
:1004F000EB180CF1FF3104D29F4202D9ACF102019A
:100500002B44DB1B41EA004193E76046E3E7614689
:10051000F7E76046A4E76346B8E7834206D916B911
:10052000002108467CE7C6E900E0F9E7B3FA83F763
:100530008FB9834201D3724508D8BEEB020460EB49
:10054000030301209C461EB9002169E73846FAE7FB
:10055000C6E9004CF8E7C7F1200CBB400EFA07F5DE
:1005600022FA0CF42EFA0CF1BA401C4320FA0CF3D8
:10057000B8404FEA144901431FFA84FEB3FBF9F86F
:1005800009FB18300B0C08FB0EFA43EA00439A45AE
:1005900040D9E31808F1FF3004D29A4502D9A8F1F6
:1005A00002002344A3EB0A0389B2B3FBF9F809FB69
:1005B000183308FB0EFE41EA03418E452CD9611821
:1005C00008F1FF3304D28E4502D9A8F10203214479
:1005D00043EA0040A1EB0E01A0FB02984145CE4644
:1005E000434602D306D14D4504D20138B9EB020E81
:1005F00068EB0403002EA7D0B5EB0E0261EB0301FC
:1006000001FA0CFC22FA07F3F9404CEA0303C6E9AD
:10061000003199E74046C5E74346D9E700000000AE
:100620002DE9F04F824616461C4600259FB00391E7
:10063000307810B9284600F083BD731C2528069336
:1006400006D00399D0470028C0F27A85013527E209
:100650001822002110A803F07CFF7378252B7DD091
:10066000002398469E469C461F46701C014610F883
:10067000012B2B2A00F0A18000F29880202A00F0A4
:100680009F80232A00F09F802BB19DF8483043F0D3
:1006900040038DF84830B8F1000F05D09DF8483080
:1006A00043F020038DF84830BEF1000F05D09DF8CF
:1006B000483043F010038DF84830BCF1000F05D0EE
:1006C0009DF8483043F008038DF848302FB19DF86D
:1006D000483043F004038DF848309DF8483003F06B
:1006E0004400442803D16FF386138DF848309DF8F9
:1006F00048302A2A43F080038DF848307FD19DF896
:1007000049204B1C42F001028DF849201A782E2A0C
:100710000CBF012100219DF8492061F341028DF8B1
:10072000492078D15A782A2A6ED000224FF00A0C3C
:100730000133194611F8010BA0F13007092F40F2DF
:10074000AD809DF848101492C1F3400040EAD27089
:100750000A4660F341028DF848205CE0B21C069224
:100760008DF84B309DF84930D90740F1508154F84D
:10077000042B002A049208DA9DF8482042F0040273
:100780008DF84820049A524204925A0740F147815A
:1007900054F8047B002F80F246819DF849306FF3B6
:1007A00041038DF849304FF0FF373CE12D2A0DD041
:1007B000302A7FF469AF012358E74FF0010C55E769
:1007C0004FF0010E52E74FF001084FE701274DE7C8
:1007D00003460EFB0272303A184610F8017BA7F16F
:1007E000300CBCF1090FF3D999428FD09DF8481015
:1007F0001392D20F62F341018DF8481086E70B4641
:1008000000224FF00A0EE7E79DF84920023342F03C
:1008100004028DF849201A786C2A5FD043D8682AE0
:1008200049D06A2A63D04C2A69D013F8012B782A60
:1008300006938DF84B2000F2A9806D2A6CD8692AA6
:1008400000F2A480572A00F28480412A04D0A2F149
:100850004503022B00F29A8004219DF84A3002F0F1
:10086000DF02A2F1410761F302037A429DF84910C9
:100870007A4162F3C7110A068DF84A308DF84910A3
:10088000CBB200F1C28003F07802182A40F0AC80AD
:100890006FF3C6038DF8493000239BE00CFB020286
:1008A0000B46303A45E7742A25D07A2ABDD1062175
:1008B0009DF849200CE05A78682A9DF8492006D115
:1008C000012161F3C6028DF849200233ADE7022110
:1008D00061F3C6028DF849200133A6E75A786C2AE5
:1008E0009DF8492001D10421EBE70321F0E7052120
:1008F0009DF84920ECE707219DF84920E8E7BDF87D
:10090000482022F4F04222F0020242F4804242F0F7
:100910000202ADF84820DFE76E3AD3B201229A40D6
:1009200040F282431A429DF8493036D112F0240F2A
:100930005ED1D1072AD503219DF84A2003F0780320
:10094000A3F1400061F3020243428DF84A20434183
:1009500040E00120A2F15801C9B200FA01F111F4FE
:10096000624F7FF479AF40F6010319429DF8493098
:1009700019D111F4043F09D09DF84A2060F3020216
:1009800003F07803402B8DF84A2085D19DF848303C
:1009900043F001038DF848307EE702219DF84A209C
:1009A00061F30202ECE702209DF84A1003F078039D
:1009B00060F30201402B8DF84A1002BF9DF84810E9
:1009C00041F001018DF84810632A7FF465AF003BC8
:1009D00018BF01239DF84820C2F340010B4363F385
:1009E00041028DF84820BDE613F0380FCED153E711
:1009F00003219DF84A2013F0780F61F3020214BF1F
:100A0000012300238DF84A20E4E70123E2E79DF962
:100A10004820002AACBF4FF0FF32139AB4E69F077C
:100A20007FF5C1AE149F0023CDE913339DF84A3002
:100A300003F00702042A9DF8492007D1900705D446
:100A40009DF949100029ACBF06270D2703F00703C5
:100A5000012BC2F3C30233D1D31E042B04D8DFE829
:100A600003F02146462121002368012A4FEAE37161
:100A7000CDE910311CD19DF94030D917CDE91031A5
:100A800004349DF848309907079350D032465046B9
:100A9000069B039903F004FD0028C0F2518305442E
:100AA000069EC5E554F8043BD917CDE91031E8E7B7
:100AB000022AE5D119B243F3C033CDE91013DFE7C1
:100AC000022B24D1D31E042B04D8DFE803F0181026
:100AD00010181800012A4FF0000154F8043B14D0FC
:100AE000022ACDE91031CCD19BB21093C9E707346B
:100AF00024F00704F4E80201CDE91001C1E754F83D
:100B0000043B109300231193BBE7DBB2CDE7042B2A
:100B100008D1073424F00704D4E900010834CDE9F2
:100B20001001AEE7032BACD154F8043BDDE79DF890
:100B30004BB0BBF1780FB3D8BBF1570F49D8BBF11D
:100B4000250F00F09180BBF1240FA9D9BBF1410F13
:100B500003D0ABF14502022AA2D8DDE91012002A27
:100B6000C0F23681079B1E0700F13581C3F30019DF
:100B70004FEA4919C2F30A50C2F31302002840F0A9
:100B80002D8151EA020614BF01260026D20242EA54
:100B90005152C902BBF1460F40EA010E42EAE07C25
:100BA00008BF4FF0660B5EEA0C0CCDE90C1200F0AA
:100BB0009681002E40F044810D9AA0F2FE3842F05A
:100BC00000420D920020DDE90C1206464FF0050CA4
:100BD00050E1ABF1580120293FF662AF01A050F877
:100BE00021F000BF6F0D0000A10A0000A10A000063
:100BF000A10A0000A10A0000A10A0000A10A000049
:100C0000A10A0000A10A00005B0B0000A10A00007D
:100C1000F30C0000070D00005B0B00005B0B0000F5
:100C20005B0B0000A10A0000070D0000A10A0000F4
:100C3000A10A0000A10A0000A10A0000A90D0000FD
:100C40006F0D0000750D0000A10A0000A10A000050
:100C50006F0C0000A10A00006F0D0000A10A000047
:100C6000A10A00006F0D000058460399EAE4002F26
:100C7000109E3ADB3946304603F047FC3718002E09
:100C80003FF40EAF4FF000099DF84A3013F0100208
:100C9000059200F04A82023013F04003DDF84C80E8
:100CA000089318BF149B404418BFC018049BCDF88C
:100CB0001C80002B40F354829DF848201B1A04939B
:100CC0005307C2F3800B00F14B82500640F13B8288
:100CD000B9F1000F07D048460399D0470028C0F269
:100CE0002F82D946013530222EE2304603F006FC31
:100CF000C4E7109B4FF0000901208DF85C300DF126
:100D00005D0717AEC0E7079B1A0754BFC3F300196E
:100D10004FF02B09DDE9102358BF4FEA4919002B8A
:100D200006DA4FF02D09524263EB4303CDE910235D
:100D3000DDE910010DF17503009312AA17AB03F062
:100D400069FB0646002F0CDB9DF848200DF175036A
:100D50009B1B6FF386129F428DF8482001D9FB1A26
:100D60001393002E3FF49CAE0DF1750756E04FF043
:100D70000009DDE71098002800F0D2810DF175031D
:100D80000093002117AB12AA03F044FBBDF84A30D0
:100D9000064603F0EF0343F4F04343F010034FF033
:100DA0000009ADF84A30CDE7109B072A3FF678AE30
:100DB000DFE802F00C04060C08080C0C1D706FE64E
:100DC0001D806DE6EA17C3E9005269E61D6067E61B
:100DD0004FF02D09CEE64FF02B09CBE640F2FF761F
:100DE000B0422AD10A43ABF141031ED11A2B35BFC1
:100DF000492369234E216E2134BF462266228DF895
:100E00005C309DF848308DF85D106FF386138DF8D7
:100E10005E208DF848300DF15F0717AEB81BB9F1B1
:100E2000000F3FF431AF01302EE7192B8BBF6E233B
:100E30004E23612141211A46E1E70026A6E601384A
:100E400049185241002AFADACDE90C12B4E64908F1
:100E500041EAC2715208B2F1333F404608F101083D
:100E6000F5D200F1020801200CFB02FEA1FB0C12DE
:100E7000013E724418F1020FE9DB08B1CDE90C1212
:100E8000DDE90C21B8F1000F2CDCC8F10400A0F161
:100E9000200C08F11C08C24001FA08F821FA0CFCE9
:100EA000C1400BF0DF0042EA0802472842EA0C0288
:100EB00038D1F01C01DBB7422ADAABF10203002F74
:100EC0005FFA83FB7BDD9DF84800013F830676D403
:100ED0003B1E18BF0123059307F101082CE04FF0DA
:100EE00000086FE6023241F100010CA808F1FF385A
:100EF0000136CDE90C2103F05EFADDE90C219218F0
:100F00004941002908F1FF38F9DACDE90C21B7E7AA
:100F10009DF84830BF1B98064FD43B1E18BF0123D5
:100F2000059304E00023BBF1660F0593D4D117EBC2
:100F300006084FF0660B44D4B8F1100FA8BF4FF06D
:100F400010089FEDB37B10208DED0E7B0B90DDE93B
:100F50000E03B8F1000F37D1121841EB0301B1F1C4
:100F6000805F41D2CDE90C21079BBBF1660F03F0F6
:100F7000200240F0B480002E41DC30218DF85C105E
:100F8000002A65D1002F40F3B4812E228DF85D2018
:100F900086B17242BA42A8BF3A46002A1392A7EB22
:100FA0000207D4BF002201229DF84A1062F34511C6
:100FB0008DF84A100DF15E0839E00023B0E70023F8
:100FC00089E74FF00008BCE7400840EAC3705B08BF
:100FD000CDE90E030EA8CDE9082108F1FF3803F092
:100FE000EAF9DDE90821B2E7520842EAC1720CA829
:100FF0004908CDE90C21013603F0DDF9B4E70DF124
:101000005C080B99002909DD0BA90CA8079203F0D5
:10101000EAF9013E079A08F8010BF2D113969AB942
:10102000002F40F364812E2108F8011B0026002FB9
:1010300017DD0B9A002A14DD0BA90CA803F0D3F9D5
:10104000013F08F8010BF2E72E2208F8012BEDE72B
:101050002E228DF85D20002EACD0002F99DC0DF1F2
:101060005E08059B002B4ED1149747460BF0DF021C
:10107000452A23D1002EBABF76422D232B23632E7F
:10108000C8BF64217B70C4BFB6FBF1F301FB1366DC
:101090004FF00A01C8BF03F13000B6FBF1F3D2BF35
:1010A000BA1CFA1CB87087F800B0174603F130007C
:1010B00001FB1363303307F8020B5370139B002BB3
:1010C0002CDC149B002BD4BF002301239DF84A2065
:1010D00063F3861200238DF84A203B709DE60BA92E
:1010E0000CA8079203F07FF9079A30288DF85C006E
:1010F00018BF06F1FF3612B9002F40F3FA802E22F6
:101100008DF85D2056E7474617F8012C08F1FF38A7
:10111000302AF8D02E2A08BF4746A7E70123D5E793
:101120003D4F81467E1F0520AEE51A0748BF0130BE
:10113000B2E5104609920399D0470028099A05DACA
:101140001FB0BDE8F08F2022DDF810B0594600290D
:101150000BF1FF3BEDDC049BCDF810B02B445D1A86
:10116000B9F1000F05D048460399D0470028E7DBC6
:101170000135089B002B7FD09DF94930002B28DBDF
:10118000B3469BF80000D946A0F13003092B0BF1C0
:10119000010B48D99DF84A30AE1B99064E4407D43E
:1011A0004246002A08F1FF3842DC079B33449E1A6E
:1011B00099F800002E280AD10399D0470028BFDBF8
:1011C000B8F1000F06F1010638DC09F101094D46BE
:1011D0003FE0B14699F80000C846702809F10109BE
:1011E0001CD1AE1B149D46443544AB1B002B3BDC8D
:1011F0003B4642465046039903F052F900289FDBD4
:101200003044049E054606446CE000BFAFF3008006
:101210000000000000000008CB5400000399D047F4
:101220000028D7DA8CE70399D0470028A9DA87E7A6
:1012300030200399D0470028B2DA81E730200399A3
:10124000D04708F1FF38B9E70399D0470028FFF6E7
:1012500077AF2878A846A0F13003092B05F10105E6
:10126000F2D9A6EB0906BDE730200399D047002844
:10127000FFF666AF0136B8E79DF84A30DA0601D4CA
:101280001B0706D530200399D0470028FFF658AF3A
:101290000135059B3BB103999DF84B00D0470028D1
:1012A000FFF64EAF0135A84406E030200399D04741
:1012B0000028FFF645AF0135A8EB0503002BF4DC51
:1012C0003B4632465046039903F0EAF80028FFF601
:1012D00037AF284495E720200399D0470028FFF630
:1012E0002FAF0135731B002BF5DCFFF7D9BB16467A
:1012F000B7E60DF15D08B4E62DE9F0430746002698
:1013000085B0DFF83490DFF8348001AD59F8044B34
:1013100098E807003C4485E807000C22294620464F
:1013200003F0FCF800B91CB90136052EEED10024FB
:10133000204605B0BDE8F083C850000070500000A2
:1013400037B504461E480D4603F015F82CB91D4864
:1013500003B0BDE8304003F00EB8A1691A4803F0AD
:101360000AF82146A06903F053FB40B9174803F07F
:1013700002F8204603B0BDE8304001F039BA144805
:10138000616902F0F8FF0DF1060003F021FB40B1A6
:10139000104802F0F0FF104802F0EDFF0023ADF816
:1013A00006306069BDF80630984203D9294680B2FC
:1013B00000F0F2FE204600F005FE03B030BD00BF95
:1013C0004B5300006953000084530000AC530000ED
:1013D000DC530000F25300001A54000070B54FF4C3
:1013E0000041002000F0D0FD064620B11348BDE8C2
:1013F000704002F0C0BF01F0B5F8044601F0BAF841
:1014000005462046FFF778FF04462846FFF774FF9D
:10141000054618B1626943699A4209D30021204602
:10142000FFF78EFF01212846FFF78AFF0448DEE719
:101430000121FFF785FF31462046F5E75D540000A6
:101440008B540000014B1B68184700BF6805012042
:10145000014B1860704700BF6805012007B50B46B7
:101460000021024600910348FFF7DAF803B05DF867
:1014700004FB00BF4514000008B54FF02002EFF355
:10148000118382F31288BFF36F8F00F025FA0348AF
:1014900002F071FF00F030F8FCE700BFCC54000010
:1014A0004FF02002EFF3118382F31288BFF36F8FA6
:1014B0000121044AC2F8401583F31188BFF36F8FEE
:1014C000002070470090035020B1034B800143F08F
:1014D00001031847704700BFC050000001F096B9E3
:1014E000014802F0D7BD00BFDC50000001491022C6
:1014F0000A60704710ED00E072B6404080F311883A
:10150000BFF36F8FBFF34F8F30BF62B6BFF36F8FE4
:10151000704700BF40B2002807DB01234109034A9E
:1015200000F01F00834042F82130704700E100E0E6
:10153000054B420953F82220012300F01F0003FA53
:1015400000F01040704700BF00E100E040B200280A
:1015500001F10101ACBF00F16040064B4FEA4111BF
:10156000C9B2ABBF00F5614000F00F0080F8001376
:101570001954704714ED00E030BFFFF7FDBF00BF06
:10158000144A08B5144B22F07F029A60BFF34F8FC4
:10159000BFF36F8FD3F8882022F47002C3F888203D
:1015A000D3F8882042F4A002C3F888204FF04042CC
:1015B000C3F83422BFF34F8FBFF36F8F0023E1EEE8
:1015C000103A01F0B5FA01F0F7FA00F049F901F02C
:1015D000BBFA00BF0000000000ED00E01EF0040FA9
:1015E0000CBFEFF30880EFF30980816911F8021C4A
:1015F0000229FFD001B502F072FF01BD0446084682
:1016000011461A460023E1EE103A83F30B880A4B89
:101610002025A3F5006686F30B8883F3098863B65B
:101620004FF0000383F31188BFF36F8FA04785F35A
:101630001188BFF36F8FFEE70817012001B5EFF3A4
:101640000580A0F110004FEAC0000449014409C917
:101650009847BDE80140024908470000144E0000C9
:1016600065160000704700BF084B9A6A9A6A986A2C
:101670009A6A9A6A9A6A9A6A9A6AC0F300506FEAFA
:1016800002426FEA124240009A62704700ED00E0A9
:101690000D4B9A6A9A6A9A6A920508D59A6B9A6A69
:1016A000120404D518B19A6A22F400429A6200200A
:1016B0009A6A9A6AD205044A58BF9B6A936A43F4AD
:1016C0007F4393620870704700ED00E0124B9A6A06
:1016D0009A6A9A6A920708D55A6B9A6A120604D5D2
:1016E00018B19A6A22F080029A629A6A9A6A9A6A91
:1016F000D0064FF0000058BF9B6A074B9A6A9206CB
:1017000042BF5A6A22F400525A629A6A42F0FF02B9
:101710009A620870704700BF00ED00E070B5444B5E
:1017200006465B6800258AB0C3F3080385F3118879
:10173000BFF36F8F02F07F40B0F17F4F11D102F005
:101740000C0008280DD010074CBF0E4601250022C2
:10175000033B8DF80720032B05D8DFE803F01E5C60
:1017600060592E46F3E700249DF807309BB92022EC
:10177000314602A802F0E2FE099B002D53D0C3F3CC
:10178000080222B96FEA53236FEA432309932046E4
:1017900002A902F0A2FE0AB070BD254BDA6A9107D9
:1017A000E1D4DA6A002ADEDBDA6A5200DBD55A6954
:1017B000B16942F480725A61BFF34F8FBFF36F8FEC
:1017C0005A6931F8021C22F480725A61BFF34F8FBC
:1017D000BFF36F8F4DF60272914209D09A6AD2B26E
:1017E00042B101200DF10701FFF770FF0446BBE78E
:1017F0003468B9E79A6A12F47F4F05D001200DF1E1
:101800000701FFF745FFF1E79B6AB3F5803FAAD3D5
:10181000FFF72AFFEAE700200DF10701E4E70020C7
:101820000DF10701EDE723F4FF7323F00103ADE7AA
:1018300000ED00E0044B5A6942F010025A615A6907
:1018400042F480625A61704700ED00E0EFF30880D7
:10185000EFF3098101B57246FFF760FF01BD00BFDC
:10186000002320210348C2180133412B82F80013C2
:10187000F9D1704700E100E0002080F31488BFF345
:101880006F8F002080F30A8880F30B88FFF726FE15
:1018900000200E490860BFF34F8F0D4880F3088881
:1018A00000F03EF8202080F311880A484FF40061D0
:1018B000401880F30988EFF314800221084380F375
:1018C0001488BFF36F8FFFF75BFE000094ED00E01C
:1018D0000817012008070120BFF34F8F0549064B69
:1018E000CA6802F4E0621343CB60BFF34F8F00BFBE
:1018F000FDE700BF00ED00E00400FA0500231846F4
:101900000649D1F89020C2F30722934200DB7047CA
:10191000C1F89830C1F8A0000133F6E700ED00E00F
:1019200010B572B6002484F31388FFF7E7FF23464F
:101930004FF0FF300C4A03F120010133102B42F825
:101940002100F8D100234FF0FF30074A03F1600176
:101950000133102B42F82100F8D162B6BFF34F8F4C
:10196000BFF36F8F10BD00BF00E100E0014B1860B6
:10197000704700BF6C050120084B70B5C31A0D46B7
:1019800007499B10044659434022064802F009FECD
:101990002B4601462046BDE8704018471806012036
:1019A000B76DDBB6CC4D0000402373B50B4C0093F4
:1019B000041B0B460D460A49A41061430646094A1A
:1019C000094802F01BFE011E05DA30462B4602B024
:1019D000BDE87040184702B070BD00BF1806012076
:1019E000B76DDBB66F460000CC4D000010B54FF070
:1019F0002003EFF3118483F31288BFF36F8F074A3C
:101A0000136823F00201DB07116002D4012003F008
:101A100035F984F31188BFF36F8F10BD680601207C
:101A200070B50022012104460520FFF78FFD0F4805
:101A300000F0D4FF0E4B984215D103F0D1F826697F
:101A40000C49304602F0A4FC00280BDB012535646C
:101A50002469084904F11C0002F09AFC002801DB0B
:101A60000020E56470BD6FF00400FBE7AD1A0000D4
:101A70000000AD0BE450000001460C23002270B5BD
:101A80004B430848C4184033D4E90E561844A263A7
:101A900002F074FD2DB132462B46BDE8704002487D
:101AA000184770BD18060120CC4D000010B1012868
:101AB00004D07047034B1B6C5B0701D1FFF7DCBF01
:101AC000704700BF1806012008B54FF02003EFF360
:101AD000118183F31288BFF36F8F124A136843F0AA
:101AE00002001060DA0708D481F31188BFF36F8F0A
:101AF000BDE80840012003F081B84FF05023D3F82F
:101B00000C24D3F80C34D307EED5074802F036FD89
:101B100081F31188BFF36F8FBDE808400020FFF705
:101B2000ABBF00BF680601205806012008B5074872
:101B300003F0D2F838B10648FFF718FF0448FFF762
:101B400087FC002008BD6FF01200FBE7FC4D000091
:101B5000551B00000A2838B50446074D04D1AB6870
:101B60000D2128465B689847AB6803485B68E1B283
:101B70009847204638BD00BFFC4D0000F8B504462C
:101B80000D46076903F0C7F890B92C4B1B787BB161
:101B90006426606802F09EFDE0B9012002F0C4FFF7
:101BA000013EF6D1F4E786F31188BFF36F8FEFE7BC
:101BB0004FF02003EFF3118683F31288BFF36F8F8A
:101BC0006068314602F086FD90B986F31188BFF354
:101BD0006F8FEDE74FF02003EFF3118683F3128848
:101BE000BFF36F8F6068314602F074FD0028DAD0D1
:101BF0003B691D70626838691368C3F844050120A9
:101C0000C3F848050020C3F82001D3F82051C3F8D9
:101C100058015268D3F85801D20608D508206268E6
:101C20001268C2F800054FF48002C3F804230122B1
:101C30009A6081F31188BFF36F8FF8BD010701200F
:101C4000F0B54B79012B26D0032B21D110258B79B0
:101C5000032B1DD1CE790EB1012E19D10A7912B103
:101C6000022A15D10E220B684468B3F5164F276877
:101C700067D02DD8B3F5165F66D016D8B3F5966F3A
:101C800064D00AD8B3F5967F63D0B3F5167F63D0DE
:101C90006FF0850054E00025D9E7B3F5166F5ED0EC
:101CA000B3F5965FF4D1384B3CE0B3F5E14F59D032
:101CB00007D8B3F5615F57D0B3F5964FE8D1334BF2
:101CC00030E047F61224A342E2D14FF4000329E0AA
:101CD000B3F5613F4AD013D8B3F5963F49D009D840
:101CE0004DF6C024A34246D0B3F5614FD0D14FF496
:101CF0006B0317E0B3F5E13FCAD14FF0EB7311E08E
:101D0000B3F5612F3AD008D8214CA34239D0B3F5AE
:101D1000E12FBDD14FF0E86304E01E4CA342B7D1E0
:101D20004FF080530469C7F82435436835431B6876
:101D30002A43C3F86C25231D03C983E80300002050
:101D4000F0BD4FF41D03EDE7134BEBE74FF49E237B
:101D5000E8E74FF4A033E5E74FF41C33E2E74FF434
:101D60001D23DFE70D4BDDE70D4BDBE74FF06C7319
:101D7000D8E70C4BD6E74FF46503D3E74FF0706319
:101D8000D0E74FF08063CDE700B0130000A04E0015
:101D900090D0030040420F000050270000C07500A3
:101DA00000F03A0000903A012DE9F743002147681E
:101DB00006693C688046C4F800153060D7F80C907E
:101DC00001AA484602F0EDFC051E4DDB019BD9F847
:101DD00000201979186800F053F8051E44DB4046CE
:101DE000311DFFF72DFF054600283DD17B6899077F
:101DF00013D506F1180000F035FE1F4B984237D17D
:101E0000337E43F00043C4F8A031C4F88C30012382
:101E1000327E9340194AC2F804350823C4F80035CD
:101E20003B7A53B9C4F81031D4F810317369C4F84F
:101E300034350123C4F8383523607B689A075CBFCA
:101E40004FF48073C4F804337B68DB0644BF4FF45F
:101E50008003C4F804333369C4F844350023C4F85C
:101E600048350123A360E360284603B0BDE8F08352
:101E70006FF00405F8E700BF0000AD0B00700150E3
:101E80002DE9F04101273F4E00EB8101814202D153
:101E90000020BDE8F081056805F07F03C5F3432409
:101EA0007F2B4FEA154508BF4FF0FF33192D66D839
:101EB000DFE805F00D161B1E212D1E6565656531D9
:101EC00051656565656565656565545C5F62C2F809
:101ED0000C3503F01F0507FA05F5B560012502E092
:101EE000C2F814350025AC461CE0C2F80835F0E70E
:101EF000C2F81035F6E70025C2F8083503F01F0CCC
:101F000007FA0CFCC6F80CC04FF0010C0AE0C2F84E
:101F10000C350125F2E7C2F80835002CE2D1002586
:101F20000624AC4650F804EB24020EF40058B8F135
:101F3000000F1CBF4FF0000C0125CEF3C11E44EA78
:101F40008E0403F01F0344EA0C0444EA4504803382
:101F500046F823409AE7C2F80C35DEE7C2F8603550
:101F60000568C5F38035002DD3D0B2E7C2F86435DB
:101F7000F6E7C2F86835F3E7C2F86C35F0E76FF0C2
:101F8000850086E70025845040EA0103C3F30E0371
:101F900030B58BB940F21515094CC90BC0F3C730E9
:101FA000994201D1002030BDC218D2B202F5C072F0
:101FB00044F822500133F3E76FF01500F3E700BF58
:101FC0000030005038B5044681692B4802F0D3F93F
:101FD00000232A4A4FF05021C2F800354FF0FF325B
:101FE000C1F80823BFF36F8F72B6254903F12000B3
:101FF0000133102B41F82020F8D100234FF0FF309F
:102000001F4A03F160010133102B42F82100F8D17F
:102010004FF0E02300221A61D3F8042D03F550633A
:1020200042F000725A605A6A22F4E0225A62EFF3D8
:102030001482920707D5EFF3148222F0020282F392
:102040001488BFF36F8FBFF34F8FBFF36F8FA269F9
:1020500001219A602046A56900F008FB58B10023D1
:1020600083F30B8883F30A882A6882F3088883F352
:1020700009886B68984738BD4255000000800050C1
:1020800000E100E00122024BC3F80025704700BFC9
:10209000000084500022024BC3F80025704700BFA7
:1020A0000000845070B5094D2B780BB1002070BD35
:1020B0000126074CC4F8006500F080FF18B92E70A7
:1020C000C4F80005F2E76FF00D00F0E7000701200B
:1020D0000000845090B5B1F1005F83B002AF1FD211
:1020E000BBB16C46ADF5007D02AB00934FF40073BD
:1020F00002F0FFFBA5460E4B984213D00A339842DC
:1021000013D00C3B984208BF6FF015000437BD4652
:1021100090BD084B00934FF4004302F0EAFBEAE75E
:102120000023F7E76FF01500F0E76FF08500EDE7AB
:102130000202F0000817012008B500F09DFE034BD5
:10214000984208BF6FF0150008BD00BF0002F00004
:102150001FB50446074A01AB07CA83E807000C22F3
:102160001946204602F0DAF900280CBF204600206C
:1021700004B010BD7C50000070B505460024054E2B
:1021800056F8040B2844FFF7E3FF10B90134052C7F
:10219000F6D170BD9851000073B50A4606460D464B
:1021A0000146144802F0E7F801200DF1060102F0A3
:1021B0005FFC044620B101460F4802F0DCF807E05E
:1021C000BDF806303BB90D4802F0D5F86FF01504A4
:1021D000204602B070BDB5FA85F1490941EA4601D1
:1021E000012089B202F05DFC04460028F0D00146CF
:1021F0000348E2E75455000088550000CE55000022
:10220000F75500002DE9F04F814689B010460F4682
:1022100014461D46D668D2F81080FFF799FF38B9EA
:1022200015B99A4802F0A7F8002009B0BDE8F08F70
:10223000A069484503D0002DF6D19548F2E71DB9B5
:10224000B84220D09348EDE73846FFF795FF844227
:10225000EAD1226A904B9A42E6D10DF10E0002F0CB
:10226000B7FB0146002841D0DDB98C4802F083F865
:102270008B4802F080F8ADF80E502369B3F5424F59
:102280003FD98848CEE7FFF777FF844201D08648E0
:10229000C8E7216A804B9942DFD0844802F06BF88E
:1022A000C2E70023ADF80E302369B3F5424FBBD827
:1022B000E2689A42B8D8A619B6D218EB0702B3D290
:1022C000BC4226D3944224D2013EB74221D8964242
:1022D0001FD218EB09082CBF4FF0010A4FF0000A7B
:1022E000E26925D3002D9FD171489BE76169BDF854
:1022F0000E20914211D2002D96D16E4802F03BF88B
:1023000092E7E2689342BCD3A61902D218EB070207
:10231000D6D3002D88D1684884E72369B3F5424FAE
:1023200002D8E2689342EFD2002D7FF47DAFA8E798
:102330004A45D7D34245D5D2391DA1EB09018A5868
:10234000914504D9002D7FF46FAF5C486AE7904552
:10235000F8D9FE18DFF8A89106F1050B0DF1100869
:1023600099E8070088E807000C224146304602F051
:10237000D5F800B93EB90136B345F1D1002D7FF44F
:1023800053AF4F484EE7F268A3699A420AD1D4F896
:1023900010B002F071FA014648B1002D7FF444AF4D
:1023A00048487BE7002D7FF43FAF47483AE700F00D
:1023B000F1F8044658B1002D7FF436AF014643488A
:1023C00001F0D9FF71347FF42FAF41482AE7414A29
:1023D000414B002D14BF9146994600F0D3F884423A
:1023E00004D3002D7FF420AF3C481BE74146204634
:1023F00000F0FEF8102801460ED010F1160F06D19D
:102400001DB92146364801F0B6FF0134E5E7002D3D
:102410007FF40AAF334841E755B92146324801F00D
:10242000AAFF9DF81F209DF81010304801F0A3FF6F
:1024300041463B46CDF800B006F1700206F130008F
:10244000C847014698B92A4E544505D115B92948BF
:1024500001F091FF0120E8E61DB95146304601F038
:102460008AFF504600F0F0F80AF1010AECE710F19B
:10247000650F05D1002DC8D11F4801F07CFFC4E7CE
:10248000002D7FF4D1AE1D4808E700BF3056000094
:102490005056000083560000FFFF029100570000D5
:1024A0001A54000067570000B0560000D9560000CB
:1024B000C35700002757000096570000EF57000051
:1024C0001C580000805800004D580000A058000023
:1024D000C45800006748000087480000085A000000
:1024E000F958000022590000455900006B590000BE
:1024F0008159000098590000B7590000DC590000CC
:10250000885000002DE9F041144B07469B6BBFF348
:102510004F8F1422124D02FB0355284602F0D3FBC5
:10252000012803D000242046BDE8F0814FF00008C8
:102530002C1DAE1C304602F0C6FB4045F2D9A01C53
:1025400002F0C1FB0546204602F0BDFBB842EAD0CE
:10255000023504EB450408F10108EBE70081FF00B8
:102560003C81FF00024B186BBFF34F8F704700BFD9
:102570000081FF00024B586BBFF34F8F704700BFC5
:102580000081FF00024B986BBFF34F8F704700BF75
:102590000081FF002DE9F84300244FF014084FF6A6
:1025A000FF79114D114FBB6BBFF34F8F9C4202D38C
:1025B0000020BDE8F88308FB0473DB6BBFF34F8F8B
:1025C00013F5803F09D0A5F11006304602F07BFBE1
:1025D000484505D00236AE42F7D101341435E2E762
:1025E0006FF07000E5E700BF5081FF000081FF0041
:1025F000142370B54343124AD418E46BBFF34F8FD2
:1026000014F5803F15D0926BBFF34F8F904213D2D9
:1026100000200C4A1A44002316580C1826FA03F519
:102620000833202B04F8015BF8D104301028F2D1D4
:1026300070BD6FF01500FBE76FF00D00F8E700BF0D
:102640000081FF004081FF0014234343054A98188E
:102650009B5813F5803F04D0BFF34F8F024900F021
:102660001DBA70473C81FF000000FFFF2DE9F04FCD
:102670000F46064687B0A0B302F02FFA4FF00008CD
:102680000446B36B43454ED94FF00009DFF8BCB0A8
:102690004FF0000A5BF8043B0093284B53F8045BAF
:1026A0000193009B1D44264B93E8070003AB83E88E
:1026B000070019460C22284601F030FF019B00B9A3
:1026C0009DB90AF1010ABAF1050FE7D11D4B09F1D5
:1026D00001099945DCD317B10022636A1A60236AA5
:1026E00033B3002007B0BDE8F08F2B6A164A93423F
:1026F000ECD1AE42EAD0696B05F13C038842E5D0EB
:1027000025691A6995420AD19A69A569954206D840
:10271000E569954203D962695D69AA4305D0DA6823
:1027200001301344EAE70120DCE70FB1626A13606D
:10273000E36808F101081C44A3E700BFAC510000A6
:102740009450000001000000FFFF0291CC5A0000ED
:102750002DE9F043224885B002F0BFF90025044678
:102760001F4B204ED3F83880DFF88090A84503D85F
:10277000002005B0BDE8F083636A96E807001F6893
:1027800001AB83E807000C221946384601F0C6FE6B
:1027900088B987B1636A21691B681A6991420AD1B5
:1027A0009A69A169914206D8E169914203D96269A7
:1027B0005B699A430AD0276A67B10B4801F0DBFDD9
:1027C000404080F311884FF0040002DFE3680135D8
:1027D0001C44CBE7484601F0CEFD636A1F60F5E775
:1027E00000020000A0500000285A0000515A0000CA
:1027F000026A044B9A4203D10349203000F04EB9DB
:10280000704700BFFFFF02910000FFFF08B54FF4C3
:102810007F03D3F83021D3F83431BFF34F8F092A27
:1028200001BF4FF050230022C3F81421C3F8182130
:1028300002F069F928B10122524BC3F8382AC3F8D3
:1028400078254FF47F03D3F83021D3F83431BFF328
:102850004F8F092A05D1012B1EBF0122494BC3F816
:10286000782502F050F918B10E22474BC3F8E42E38
:102870004FF47F03D3F83021D3F83431BFF34F8FB7
:10288000092A06D100223F4BC3F80C270122C3F8C6
:1028900010270022D30003F57F03D3F80013BFF302
:1028A0004F8F013108D0D3F800130132D3F804332D
:1028B000B2F5807F0B60EDD1344BDA69BFF34F8FF7
:1028C000D10745D5BFF34F8F314BD3F80024012AF0
:1028D000FBD1C3F80425D3F80024012AFBD12B4BEC
:1028E000DA69BFF34F8FD2070AD5DA6922F0010205
:1028F000DA61BFF34F8F264AD2F80034012BFBD1A7
:10290000224A136ABFF34F8F01330CD1136A23F0AD
:10291000FF0343F020031362BFF34F8F1C4AD2F82A
:102920000034012BFBD10022194BC3F80425D3F846
:102930000024012AFBD1BFF34F8F1649164BCA68FA
:1029400002F4E0621343CB60BFF34F8F00BFFDE79B
:102950001B6ABFF34F8F0133B4D00E4BD3F88C20DA
:1029600042F44062C3F88C20D3F8882042F470020D
:10297000C3F88820BFF34F8FBFF36F8F074B084A10
:102980001A6008BD0040005000A003500080FF0006
:102990000090035000ED00E00400FA05A8050120B6
:1029A0000090D00370B501250268B2FA82F3C3F13A
:1029B0001F03DBB205FA03F422EA0404D0E8EF6F48
:1029C000964204D1C0E8EC4FBCF1000FF6D1EBD138
:1029D00001480B7070BD00BF0000AD0B044B1A79AD
:1029E00022B9012218601A710248704702487047E4
:1029F0006C0601200000AD0B0C00AD0B4FF0502316
:102A000010B5D3F8002152B10020C3F80001D3F86B
:102A100000210122C3F80823114B1B6898474FF08F
:102A20005023D3F804218AB10022C3F80421D3F83B
:102A30000421D3F81824D3F8181402F00302012A51
:102A40004FF0020103D1C3F818159A6010BDC3F806
:102A50000813034B0120BDE810401B68184700BF56
:102A60006C06012001460148FFF79CBFAC05012020
:102A70000022034BC3F88425C3F80425704700BF28
:102A800000900350044AD2F80834DB07FBD50160FC
:102A9000BFF35F8F704700BF00900350012208B55D
:102AA000054BC3F88425C3F80425FFF7EBFFBDE809
:102AB0000840FFF7DDBF00BF009003500F4B70B51B
:102AC00053F82040013053F82060A64200D870BD72
:102AD000D4E90035284698476DB138B10028B8BF11
:102AE0004042FF28A8BFFF20EB681870EA685378BF
:102AF00043F0010353700834E7E700BFC051000002
:102B0000012208B5084B03201A70FFF7D7FF00F029
:102B10006DF80420FFF7D2FFFEF760FC034A137B39
:102B200023F00103137308BD01070120740601207F
:102B300008B50348034A0021121A02F0E8F808BD5C
:102B4000180601200407012008B50020FFF7B6FF92
:102B5000164B03F5006282F3088883F30A88002588
:102B6000E023134C84F82230E57725766576A57648
:102B700084F82050636A43F4E023636284F82350AE
:102B8000FEF758FEFEF7B2FC4FF0FF33A362E3629C
:102B900002F0A1F80120FFF791FF0220FFF78EFF5E
:102BA0002B462A4629460348FEF728FD0807012040
:102BB00000ED00E0012B000008B50648064A074971
:102BC000121A02F0A6F8BDE80840054A0549064871
:102BD00002F09FB86805012016060120D85A0000AF
:102BE00000000000D85A000068050120014801F0EB
:102BF000C2BB00BF9C5A000030B10268034B0448BE
:102C00009A4208BF0020704702487047DD55AABBB2
:102C10008208F0007108F00038B50D460446B0B1E6
:102C2000A0220021043002F099F895B1082229462B
:102C300004F1640002F098F8082205F1200104F183
:102C4000840002F091F80020034B236038BD034854
:102C5000FCE70348FAE700BFDD55AABB7108F000A6
:102C60008308F0002DE9F74305460E4699461146C4
:102C7000FFF7C2FF0446002840F08480002E00F0D9
:102C80008580002900F08480B9F1200F40F0828017
:102C900005F14404082205F10408204602F064F816
:102CA00005F1240708223146404602F05DF806F19E
:102CB00020010822384602F057F802A941F8049D85
:102CC0004FF4807002F044F8002865D14FF480730F
:102CD000324A0121136093600823314A00F034FB2B
:102CE0000121052308462F4A00F02EFB0823424607
:102CF00001211C2000F028FB08233A460121032073
:102D000000F022FB224608230121022000F01CFBD8
:102D10000823254A01211A2000F016FB0523234A27
:102D200001211B2000F010FB0823214A012114205F
:102D300000F00AFB08231F4A0121152000F004FBC4
:102D4000082305F164020121162000F0FDFA082392
:102D500005F184020121172000F0F6FA0823164A33
:102D600001210B2000F0F0FA00F04AFB0446019824
:102D700000F0D8FA114B002C18BF1C46A42128469D
:102D800001F0EEFF204603B0BDE8F0830C4CF9E7FC
:102D90000C4CF7E70C4CF5E7084CEFE7901084502B
:102DA0001852000090520000D85100007C520000E0
:102DB0003C5200005C520000F85100008408F00012
:102DC0007608F0008008F0008108F000C2690C4B22
:102DD0001A60826943F8042C426943F8082C02699E
:102DE00043F80C2CC26843F8102C826843F8142C6A
:102DF000426843F8182C026843F81C2C704700BF47
:102E00005C1684500C4B1B68C3610C4B1B688361C0
:102E10000B4B1B6843610B4B1B6803610A4B1B6820
:102E2000C3600A4B1B688360094B1B684360094BF6
:102E30001B680360704700BF5C16845058168450AE
:102E400054168450501684504C16845048168450A2
:102E5000441684504016845030B10268034B044835
:102E60009A4208BF0020704702487047DD55AABB50
:102E70000202F0000002F00038B5044668B1051DFA
:102E80007021284601F06CFF28462022044901F0F9
:102E900063FF0020034B236038BD0348FCE700BFFD
:102EA000A4520000DD55AABB0002F0002DE9F0435A
:102EB00085B015466F46274B04460E460FCB87E874
:102EC0000F002DB94FF00009484605B0BDE8F0836A
:102ED0002046FFF7C1FF81460028F5D1231D01934D
:102EE000636AA3BB236F8BB1C3F14008A84528BF19
:102EF000A84604F1300031461844424601F02CFF48
:102F0000236F464443442367A5EB0805226F402AFC
:102F100006D104F13001384600F0B4FB00232367EA
:102F200005F03F0835F03F0505D031462A463846C2
:102F300000F0A8FB2E44B8F1000FC3D04246314642
:102F400004F1300001F008FFC4F87080BCE7DFF83E
:102F50000890B9E7AC5000000C02F0002DE9FF41E9
:102F600004466F46134B0E460FCB87E80F002046F2
:102F7000FFF772FF8046B0B9CEB1636A251D019597
:102F80003BB90123226F636204F13001384600F03F
:102F900079FB2B46043E243453F8042B12BAA34287
:102FA00046F8042FF8D1404604B0BDE8F081DFF8C0
:102FB0000880F8E7AC5000000502F000084B1B68E1
:102FC0001B0EF02B08D1074B1A68074B9A4205D10C
:102FD0000020064B18607047052070470620704798
:102FE00028198450241A84500000E0200C1A8450C0
:102FF000002230B5134640F6FC754900023802F154
:10300000A15404F5823490424FEA840402F1010293
:10301000CABF236025605B181E2AF0D1034A1360E3
:103020000B445360024B034A1A6030BD7810845041
:103030008410845020F80F001E4B30B51A4685B01E
:10304000196800910099CC07FAD500F1A15000F55C
:1030500082308000016813680193019BD807FAD57C
:10306000154B164C186820231F3090FBF3F0144DBD
:103070000138002810DA00230130400153B14FF02D
:103080000042A0F12001134204D1013888424FEAE6
:103090005202F8D105B030BD13680393039BDB07E0
:1030A000FAD5431823602B680293029B002BE3D1CF
:1030B0000138DEE7B4108450AC108450E410845022
:1030C000DC108450F0B51D6885B001F01F040DB907
:1030D0001F2C28D1174D2E462F680197019FFF07FF
:1030E000FAD500F1A15000F5823080000068356803
:1030F0000395039DED07FAD51F2C00EB611018BF57
:10310000C9430D4D18BF01F01F0128600B4800682E
:10311000029002981CBF00FA01F111604FF000010B
:1031200008BF1060196010684300C00F136005B03D
:10313000F0BD00BFB4108450E4108450DC10845003
:103140000C4B890118603F3020F03F004030586040
:1031500099600948D9601961596199611C3382B03D
:10316000196002680192019AD207FAD5196002B07B
:10317000704700BF90108450B410845038B5A0F14F
:103180002003B3F5426F05462CD88F2826D800F1CE
:10319000470300F16604DB064FEA541400D0013403
:1031A00064013F34A409013411B1A1421AD30C4681
:1031B0004FF48050E300B0FBF3F0202828BF20201C
:1031C00002B110600122084B21461A60FFF710FF80
:1031D00028462146FFF7B4FF002038BD00F11F0448
:1031E0006409DDE70148F8E71C1884502221F0004B
:1031F000464BF0B51D4689B01C680194019CE4075C
:10320000FAD5434B002413449B001A680B181E2B5D
:1032100088BFC0F11E011F320B1852095343B3F58A
:10322000806F84BF4FF48061B1FBF2F1274688BF05
:10323000091ADFF8E4E000F1A150DFF8E0C000F582
:103240008230A14233DC2B680493049BDB07FAD560
:10325000304B1B68296805910599CF07FAD52E4C8C
:103260002E49236000231E46934203F1010040D102
:103270001946002620F0010228488A423CD82968D5
:1032800006910699CE07FAD525490968286807905E
:103290000798C007FAD5216000210C461F488B42D1
:1032A0002DD100201D499A422CD809B0F0BD2B68C1
:1032B0000293029BDB07FAD503199B001B682E685B
:1032C0000396039EF607FAD5CEF80030002393420A
:1032D00003F1010306D1164623F00103B34204D8DB
:1032E0000134AEE7CCF80070F1E7CCF8007001369D
:1032F000F4E70E600346B7E706600131BDE70460FE
:103300000131CCE708600133CDE700BFB410845031
:10331000240421147C108450D4108450D81084507C
:103320007810845008B540B1202801464FF00702BC
:1033300028BF20210020FFF75BFF0022014B1A600D
:1033400008BD00BF1C188450F0B5294D85B02C462F
:103350002E680096009EF607FAD500F1A15000F500
:10336000823080000568206801900198C707FAD56F
:103370002048214F056002EB8306B24229D1002785
:103380005A1C1D4E22F001029A4227D8236802934C
:10339000029BDE07FAD5194B0B449B001B681F33B9
:1033A0005B099A4213D2216803910399C907FAD5A0
:1033B00000211544056008469B1A0F4A8B4210D81D
:1033C00000205A1C0C4922F001029A420CD805B088
:1033D000F0BD52F804CBC7F800C0CEE73760013328
:1033E000D2E710600131E9E708600133EDE700BF83
:1033F000B4108450D4108450D81084502404211464
:103400002DE9F041814BA0B01D68986820331E461D
:103410001A680192019AD707FAD57D4B7D4A1A6046
:1034200032680292029AD407FAD57B4A1A607B4A24
:103430001446116803910399C907FAD5784A1168AF
:10344000C1F3402137680497049FFF07FAD5754FF1
:103450001F6027680597059FFF07FAD517680029A1
:1034600000F0CF80B90540F1CC8031680691069913
:10347000CF07FAD56C491960216807910799C907E8
:10348000FAD51168C1F3402137680897089FFF07F4
:10349000FAD5664F1F6027680997099FFF07FAD57D
:1034A0001268002900F0AF80910540F1AC803268CD
:1034B0000A920A9AD207FAD5564A1A6032680B92D3
:1034C0000B9AD707FAD55A4A1A6031680C910C99B1
:1034D000CC07FAD55749196031680D910D99C90784
:1034E000FAD55549196031680E910E99CF07FAD572
:1034F0005249196031680F910F99CC07FAD550499C
:103500001960504B1E46196810911099C907FAD5D9
:103510003F4C4D4B236033681193119BDB07FAD569
:103520004A4B236033681293129BDF07FAD5484B4E
:1035300023603A4B9846196813911399C907FAD535
:10354000324F386033681493149BDB07FAD522603E
:1035500033681593159BD807FAD53E4B2360336823
:103560001693169BD907FAD53B4B23603368179304
:10357000179BDA07FAD5394B236033681893189BE9
:10358000DB07FAD5364B236033681993199BD807AC
:10359000FAD5344B236033681A931A9BD907FAD5AE
:1035A000314B236033681B931B9BDA07FAD52F4BF3
:1035B000236000F01DFC08BBD8F800301C931C9B56
:1035C000DB07F9D53D6033681D931D9BD907FAD5FC
:1035D000274B236033681E931E9BDA07FAD5254BD1
:1035E0002360D8F800301F931F9BDB07F9D50C4BE5
:1035F0001B6813F4805F204B08BF184620B0BDE85D
:10360000F0811E48FAE71E48F8E700BF901084508A
:103610008010845000100251C01F7229B4108450D1
:1036200088108450C0CF0129C01F0E29C03F002937
:1036300040010249003184A800001649400108A158
:1036400080440888B0108450C044708880077A4154
:10365000C0077E4100006A498006164940006E4955
:10366000000200210082202140822021808224212A
:1036700040A161A100C861510308F1000108F100F7
:103680000208F100324B2DE9F74F804692469946E9
:1036900044681A68002AFCD12E4B9B461A68002AFF
:1036A000FCD14FF0FF30019100F094FC802000F03D
:1036B00097FC01230720284A284DA2F59E722B6013
:1036C000C2F83C011360636A254F264E3B60A36A33
:1036D00020463360D8F8003042F8043CD8F808306F
:1036E00098470199D9F80030002BFBD1BAF1000FAF
:1036F00020D104221C4B1A60D9F80030002BFBD1DA
:10370000DBF800A0BAF1000FFAD1D8F80C3020464F
:1037100098473B6863623368A362144BC3F800A008
:10372000C3F844A1D9F80030002BFBD12B6003B0C3
:10373000BDE8F08F236A4020012B04BF0B4A1360C1
:103740000B4B1960C3F804A000F050FCD4E700BF95
:1037500010198450201C845000198450181884506B
:10376000CC178450D0178450C817845084168450C6
:10377000281C8450544B10B5194698B01A68019211
:10378000019AD207FAD5514B514A1A600A6802923F
:10379000029AD407FAD54F4A1A600A680392039A2C
:1037A000D007FAD54C4818600A680492049AD207E8
:1037B000FAD54A4A1A600A680592059AD407FAD5DA
:1037C000474A1A600A680692069AD207FAD5454A0D
:1037D0001A600A680792079AD407FAD5424A1A6013
:1037E0000A680892089AD207FAD5404A1A600A680D
:1037F0000992099AD407FAD53D4A1A600A680A92D2
:103800000A9AD207FAD53B4A1A600A680B920B9AB9
:10381000D407FAD5384A1A600A680C920C9AD20773
:10382000FAD5364A1A600A680D920D9AD407FAD56D
:10383000334A1A600A680E920E9AD207FAD5314AB4
:103840001A600A680F920F9AD407FAD52E4A1A60A6
:103850000A681092109AD207FAD52C4A1A601A4BAD
:1038600019461C681194119CE407FAD5174B18608F
:10387000086812901298C407FAD51A600A68139261
:10388000139AD007FAD5124A1A600A681492149A49
:10389000D207FAD51E4A1A600A681592159AD407FB
:1038A000FAD51C4A1A600A681692169AD007FAD5F9
:1038B000194A1A600A681792179AD207FAD5174A56
:1038C0001A6018B010BD00BFB01084508010845032
:1038D000009365210004319040966590008361213A
:1038E00000C3302100C36490008161900046102124
:1038F000008111210041442100C320290C4610C839
:103900000086312100C3602140C1282940966521ED
:103910000013319040962529594614C84004324975
:10392000494B10B5194694B01A680092009AD20714
:10393000FAD5464B464A1A600A680192019AD407A2
:10394000FAD5444A1A600A680292029AD007FAD558
:10395000414818600A680392039AD207FAD53F4A91
:103960001A600A680492049AD407FAD53C4A1A608D
:103970000A680592059AD207FAD53A4A1A600A6887
:103980000692069AD407FAD5374A1A600A6807924F
:10399000079AD207FAD5354A1A600A680892089A37
:1039A000D407FAD5324A1A600A680992099AD207EE
:1039B000FAD5304A1A600A680A920A9AD407FAD5E8
:1039C0002D4A1A600A680B920B9AD207FAD52B4A35
:1039D0001A600A680C920C9AD407FAD5284A1A6021
:1039E0000A680D920D9AD207FAD5264A1A600A681B
:1039F0000E920E9AD407FAD5234A1A600A680F92DB
:103A00000F9AD207FAD5214A1A600F4B19461C6843
:103A10001094109CE407FAD50C4B186008681190BC
:103A20001198C407FAD51A600A681292129AD00740
:103A3000FAD5174A1A600A681392139AD207FAD570
:103A4000144A1A6014B010BDB01084508010845015
:103A500080906521000409904096659080806121E6
:103A60008020082180206490008161900046102110
:103A7000008111210041442180202029024610C8E4
:103A80000086092180206021402128294096652157
:103A900040962529594614C8504B10B51C4696B07F
:103AA0001A680192019AD207FAD54D4B4D4A1A6015
:103AB00022680292029AD207FAD54B4A1A604B4A00
:103AC00042EA804022680392039AD207FAD518602E
:103AD00022680492049AD007FAD5454A1A60A2F5E2
:103AE000800242EA814122680592059AD207FAD5FE
:103AF000196022680692069AD007FAD53D4A1A60E4
:103B000022680792079AD107FAD53B4A1A602268C1
:103B10000892089AD207FAD5384A1A6022680992A0
:103B2000099AD007FAD5364A1A6022680A920A9A88
:103B3000D107FAD5334A1A6022680B920B9AD20742
:103B4000FAD5314A1A6022680C920C9AD007FAD53D
:103B50002E4A1A6022680D920D9AD107FAD52C4A86
:103B60001A6022680E920E9AD207FAD5294A1A6074
:103B700022680F920F9AD007FAD5274A1A60216857
:103B800010911099C907FAD51A60144B1A46196892
:103B900011911199C807FAD5114B20491960116884
:103BA00012911299C907FAD51D491960116813912C
:103BB0001399CC07FAD50B4919601168149114991F
:103BC000C807FAD517491960116815911599C907E1
:103BD000FAD5154A1A6016B010BD00BFB010845057
:103BE000801084504004419000862929D81001C8D3
:103BF0004014419040142129401465210034409024
:103C000000310C90C0400C90C030202940960D909F
:103C100000416090031645C80086112100416021D3
:103C2000594644C84014459040142D90264870B51C
:103C3000054688B004680094009CE607FAD5234C3A
:103C400023480460234C44EA83432C680194019C7C
:103C5000E407FAD50360930143EA824242F010443C
:103C600044F4C0442B680293029BDE07FAD504603B
:103C70002B680393039BDB07FAD5174B03608B017B
:103C800043EA814141F0104343F4C0432E68049657
:103C9000049EF607FAD503602B680593059BDE07A3
:103CA000FAD5046041F058412B680693069BDC0767
:103CB000FAD5016042F058422B680793079BDB0757
:103CC000FAD5026008B070BDB0108450C02102293E
:103CD000801084508071009880611890354B8EB0B0
:103CE00019461A680092009AD207FAD5324B334A25
:103CF0001A600A680192019AD007FAD5304A1A6010
:103D00000A680292029AD207FAD52E4A1A600A6805
:103D10000392039AD007FAD52B4A1A600A680492D4
:103D2000049AD207FAD5294A1A600A680592059AB8
:103D3000D007FAD5264A1A600A680692069AD20770
:103D4000FAD5244A1A600A680792079AD007FAD56A
:103D5000214A1A600A680892089AD207FAD51F4ABF
:103D60001A600A680992099AD007FAD51C4A1A60A3
:103D70000A680A920A9AD207FAD51A4A1A6008689B
:103D80000B900B98C007FAD51A600A680C920C9A2F
:103D9000D007FAD5144A1A600A680D920D9AD20714
:103DA000FAD5124A0E211A6000200D230F220EB000
:103DB000FFF73CBFB010845080108450804301292D
:103DC00040633921807001298020542100D1349032
:103DD000C0403490C0302029C0530D90004138902D
:103DE000832308C880E3102100413821CF4308C84D
:103DF00001232DE9F04192B0CDE90333624B1D461A
:103E00001A680592059AD207FAD5604B604C236078
:103E1000604B19461A680692069AD707FAD55E4B88
:103E20001A68D60400F1A8802A680792079AD0077A
:103E3000FAD55A4A22600A680892089AD207FAD537
:103E40001E68C6F30036002E40F098801220FFF75F
:103E5000F3F807461320FFF7EFF887428CBF1220D4
:103E60001320FFF7E9F8471EFFF738FF03AB01AA5D
:103E700039461220FFF726F904AB804602AA3946DC
:103E80001320FFF71FF900EB4800022832D0032867
:103E90003ED0012874D12B680993099BDB07FAD522
:103EA0003F4B23602B680A930A9BD807FAD53D4BFA
:103EB00023602B680F930F9BD907FAD53A4B2360E9
:103EC0002B681093109BDA07FAD5384B23602B68C8
:103ED0001193119BDB07FAD5354B2360013F25D5A4
:103EE0001023192218210020FFF7A0FE304612B03F
:103EF000BDE8F0812B680B930B9BD907FAD52D4BAE
:103F000023602B680C930C9BDA07FAD52A4BCFE77A
:103F10002B680D930D9BDB07FAD5284B23602B688C
:103F20000E930E9BD807FAD5254BC1E703AB01AA28
:103F300039461220FFF7C6F804AB044602AA3946F8
:103F40001320FFF7BFF810EB440402D1FFF712FC77
:103F5000C4E7FFF7E5FC022C08D0032C09D0012CA4
:103F600010D117211620FFF797FDB7E71521142070
:103F7000F9E70F210E20F6E7124EB7E7124EB5E72C
:103F8000124EB3E7124EB1E7B010845000084A5108
:103F900080108450B41084508810845000084E5112
:103FA00000065A4940065E49000442410014424955
:103FB00040042E49000652494006564900063A4937
:103FC00040063E490608F1000708F1000408F10028
:103FD0000508F100014B1860704700BF081A8450B3
:103FE000014B1860704700BF041A8450034A1368DD
:103FF0001842FCD0024A106018467047001A8450DC
:10400000081A845010B50A4C23681BB10123002004
:10401000236010BD00F046F80028F7D001380628CC
:1040200003D8044B53F8200010BD034810BD00BF57
:10403000E4060120C4520000FE8FFFFFBFF34F8F44
:104040000549064BCA6802F4E0621343CB60BFF334
:104050004F8F00BFFDE700BF00ED00E00400FA0550
:1040600030B44FF0FE320025074B084C0849496830
:10407000C3F80024C3F80424C3F80824C3F80C24AC
:10408000C4F8005530BC084700108450000084502C
:10409000B0050120024BD0E90012C3E900127047BD
:1040A000B005012038B500F02FF820B1032400F04E
:1040B00063F8204638BD00F031F898B900F0ACF84C
:1040C00098B90F4DD5F828391B0EF02B08D1D5F82B
:1040D000242A0C4B9A420AD0072400F017F8E6E78E
:1040E0000624FAE70424204638BD0024F5E7012021
:1040F00000F092F804460028F7D1C5F80C0AD8E77A
:10410000001084500000E02000207047002070471D
:10411000014BC3F8040A70470010845010B51148D1
:1041200000F048F800B110BD0F4800F043F8002837
:10413000F9D10E4C204600F03DF80028F3D10C4B8D
:104140000C481C6000F036F801460028EBD100F066
:104150002DF8044608B1204610BD00F03FF8204677
:10416000FAE700BFC4050120B8050120C005012001
:10417000C8050120BC05012008B5084800F024F856
:10418000074800F021F8074800F01EF8064800F044
:104190001BF8BDE8084000F00BB800BFC4050120C3
:1041A000B8050120C0050120BC0501200020704792
:1041B000704700BF08B5034B02681B68106898473A
:1041C000002008BDD405012008B5034B02685B68D8
:1041D00010689847002008BDD405012070B5094C2F
:1041E000094D2069AB68984718B1084B08485B68CF
:1041F00098470021074AEB6811602069BDE87040CC
:10420000184700BFE4050120D4050120B0050120B6
:10421000E0520000E8060120F8B51A4D1A4E044697
:10422000B26828699047E8B9184F3B684CB1A3B110
:10423000012B19D0013B3B602869F36898470020A7
:10424000F8BD43B90121124AC2F800151149D1F84D
:104250001029002AFBD101333B60F3682869984795
:104260000020F8BD0C48F8BD0A4AD2F81039002BDE
:10427000FBD1074A6FF07E40C2F80035FFF748FFD8
:104280003B68D7E7E4050120D4050120E8060120BA
:104290000000845000108450E98FFFFF10B50446E1
:1042A00050B1636813F0685F05D0064A934202D0AC
:1042B00000236260236010BD034B04485B6898478D
:1042C000EFE700BF2C5F5CA9B005012000530000A0
:1042D000C8B143680D4A934213D013F0685F0ED003
:1042E000012350E8002F194640E8001C9CF0000F05
:1042F000F7D1012AF5D0BFF35F8F00207047044843
:104300007047044870476FF4E04070472C5F5CA929
:10431000E98FFFFFEA8FFFFF034680B1426809493A
:104320008A420AD012F0685F05D0BFF35F8F002287
:1043300010461A60704704487047044870476FF48D
:10434000E04070472C5F5CA9E98FFFFFEA8FFFFF19
:1043500010B5044620B10023034A2360626010BDFB
:104360000248FFF77DFEF6E73A00003A28530000C6
:104370007047002070470FB407B504A951F8040B2B
:104380000191FDF76BF803B05DF804EB04B07047E2
:1043900038B50C46054658B151B10B6843B14B686E
:1043A00033B11C22002100F0D4F800202C6138BD6C
:1043B0006FF01500FBE7D0E9002130B54FF0333343
:1043C000A2FB0324D51843EB0405A1FB03135218E9
:1043D00044EB0304521944F10002891843F100032D
:1043E000C0E9001330BD10B50A680346002A0FDD8E
:1043F000013A0A6044680A201A68A2FB001200FB16
:104400000422100F22F07042C3E90012303010BDB8
:104410003020FCE72DE9F84F9A46D37880466F2B81
:104420000F461546A3F1410B29D024D8582B0CBFB9
:1044300010260A26DDF828903246002340463946E9
:10444000FBF756FF092AD4B21ED83034B045E4B287
:1044500077F1000709F8014D01D3D14511D82B7828
:104460009B0605D5082E15D1AB7843F00803AB7039
:104470004846BDE8F88F03F0F703702BD7E708260E
:10448000D8E780460F46D7E7BBF1190F94BF373402
:104490005734DBE7102EEBD1AB7843F01003E6E79F
:1044A0002DE9F0410746884615461E461446B4429B
:1044B00005D30EB1601B08E02378002BFAD04146EB
:1044C00014F8010BB8470028F1DABDE8F081704715
:1044D000002008B5FCF7D0FF704700F008BC01468B
:1044E000006800F004BC00210120FFF7F6BF08B50A
:1044F000FDF742F8BDE80840FDF7B4B803460020D8
:104500001A5C02B970470130FAE7034600201A5CD2
:104510000AB1884200D170470130F8E710B55AB1AE
:104520000139841810F8012B11F8013FA04201D085
:104530009A42F7D0D01A10BD1046FCE710B5431EC2
:104540000A44914200D110BD11F8014B03F8014F0C
:10455000F7E70346C9B20244934200D1704703F81B
:10456000011BF9E74FF0FF3070470C220369C9B215
:1045700001FB0233186C00F0070070474FF0200376
:10458000EFF3118283F31288BFF36F8F036803F098
:10459000C00343F00203036082F31188BFF36F8FFF
:1045A000704770B5C9B203694FF02004EFF311856D
:1045B00084F31288BFF36F8F0C2606FB0134246C42
:1045C00014F0C00408D0A24206D085F31188BFF3CE
:1045D0006F8F4FF0FF3070BD012206FB01331A646C
:1045E00085F31188BFF36F8F436803EBC1035B68EA
:1045F00098470020EFE78022FFF7D3BFF8B5069F6A
:104600000469C9B24FF02005EFF3118685F31288D3
:10461000BFF36F8F0C2505FB0144256C05F0070CDB
:10462000BCF1010F0CD1276486F31188BFF36F8FA3
:10463000C4E90E23436853F8313098470020F8BD91
:1046400005F0C005AF4286F31188BFF36F8F0CBF32
:104650006FF077004FF0FF30F1E713B5802400943E
:10466000FFF7CCFF02B010BD6FF08500704710B4AB
:104670001C240069CBB203FB040000215DF8044B4D
:104680001047002000F0BABA002000F0F7BA0B463D
:104690000269D2E9010183E8030000207047436802
:1046A0001B68D3F88004C3F880047047436802692C
:1046B0001B68D3F8100150B10020526912780A70BB
:1046C000C3F81001D3F8102101221A6070474FF08F
:1046D000FF30704702680346D2F8580140B95B6862
:1046E0009B0706D4D2F82001003818BF012070477C
:1046F0000120704742681368D3F80413C90518D520
:10470000D3F82011A9B14FF02000EFF3118180F30D
:104710001288BFF36F8FD3F8200130B10020C3F8A7
:104720002001D3F820010120D86081F31188BFF364
:104730006F8F5268D20615D54FF02001EFF311822A
:1047400081F31288BFF36F8FD3F8581111B1002194
:10475000C3F800154FF48001C3F8081382F31188E1
:10476000BFF36F8F704710B5044600220121092066
:10477000FCF7ECFE0920FCF7CDFE2046BDE810401A
:10478000FDF712BB10B50446002201210820FCF7FA
:10479000DDFE0820FCF7BEFE2046BDE81040FDF718
:1047A00003BB30B543681360057A446804EBC50465
:1047B000A34202D36FF0010030BD5C798C4201D07E
:1047C0000833F0E70020F7E7002008B5FDF784F88C
:1047D00030B589B0154601230A460146684600F007
:1047E000E0F8044640B9202269462846FBF79AFDC6
:1047F000002808BF6FF06404204609B030BD2DE9E1
:10480000F04190B09DF85C600446884615461F460E
:1048100001463346402208A800F0C3F838B91022F8
:10482000404608A9FBF77EFD20B96FF0640010B088
:10483000BDE8F081334639466846169A00F0B1F873
:104840000028F4D12022334669460DEB020000F027
:10485000A8F80028EBD120212B4622460DEB0100C1
:1048600000F01CF8E3E713B501240194049C0094C4
:10487000FFF7C5FF02B010BD08B500F00DF808B98C
:1048800000F06EF808BD13B500240194049C009458
:10489000FFF7B5FF02B010BDFDF704BCF0B514463C
:1048A00006460F461D46ADB0FDF7ECFB33462146EC
:1048B0002A46009703A800F038FA0446FDF7EAFB01
:1048C000A4F57003A3F676030E2B0DD8DFE803F0F2
:1048D000080C0C0C0C0C0C0C0C0C08080C080E0032
:1048E0006FF015002DB0F0BD2046FBE76FF06500BE
:1048F000F8E72DE9F84F15469A42924680468946D8
:104900001E4628BF9A46AB46FDF7BCFB0027AF42C8
:1049100005D30024FDF7BEFB2046BDE8F88F0A9BB7
:1049200009EB070133B100230AF10304A4089C42F8
:104930000FD10A9952464046FEF7B8FA04460028BD
:10494000E8D1ABEB0A0B5E45B246374428BFDA46E6
:10495000DDE751F823000A9A42F823000133E6E725
:10496000FDF7A0BB0123FDF7B5BB38B504460D46E6
:10497000FDF788FB29462046FEF7F0FA0446FDF7CE
:1049800089FBA4F57003A3F50073052B04D8252239
:1049900022FA03F3DB0701D4204638BD6FF015007F
:1049A000FBE7F0B59FB0044601A80D4616461F462A
:1049B000FDF7C2FB50B93B463246294601A8FDF738
:1049C00089FB18B9214601A8FFF7CFFF1FB0F0BD42
:1049D00013B5044658B101200DF1060100F05EF850
:1049E00018B9BDF806305B08238002B010BD6FF027
:1049F0001500FAE770B5054608460C46FDF7BCFB06
:104A00002146024601232846BDE87040FDF7FABB67
:104A10000A4600230146FDF7F5BB2DE9F8430D4694
:104A20001646FDF76FFD0446F8B1F5B1023000F00F
:104A30004AF900278146B8460434B94507D800240E
:104A400006B134600020A5F80080BDE8F883204658
:104A500000F039F9C3439BB2A21C002BF0D098455B
:104A600038BF984614460137E7E76FF01500ECE7CA
:104A700010B50C46FDF746FD58B154B1023000F0B8
:104A800022F94FF6FF72904203464FF0000003D127
:104A900020806FF0150010BD2380FCE70022FFF797
:104AA000BCBF37B50D4601AA0DF10201FFF7B5FFF6
:104AB000044648B9BDF80230AB4208D2019848B16B
:104AC000E94389B200F0EFF8204603B030BD6FF043
:104AD0001504F9E76FF00B04F6E703465A6B002361
:104AE0003C309A4200D17047C16801330844F8E76E
:104AF000FFF788BA08B5FCF7F3FCFFF7EDFCBDE85B
:104B00000840FFF77FBA4FF47F03D3F83021D3F882
:104B10003401BFF34F8F092A03D1431E5842584135
:104B2000704700207047004700F0FBB8F7B5044617
:104B300018B1012820D003B0F0BD4FF0502302225D
:104B4000C3F80823C3F80401D3F80421012207465F
:104B5000DA60012342F210754FF050268DF80730CD
:104B6000BCB1012CE7D18FB3D6F80C3403F00103AC
:104B70003B70D6F80C3414E04FF050230022C3F8F9
:104B80000803C3F80021D3F800210DF1070758608E
:104B9000DFE78FB1D6F8183403F003033B70D6F883
:104BA0001834DA03C7D59DF807000128C3D1FFF7F1
:104BB000BBFF013DD4D1BEE7D6F81834D903BAD52E
:104BC0000120FFF7B1FF013DF6D1B4E7D6F80C3470
:104BD000DB03B0D50120FFF7A7FF013DF6D1AAE71F
:104BE00008B50520FCF7A4FC10B90520FCF792FCE1
:104BF0004FF050230122C3F8182508BD08B510B1A5
:104C0000012830D008BD4FF05022D2F81834D2F825
:104C10001814C9030ED4D2F81434DB0713D5D2F814
:104C20001C3403F00303013B012B09D80223C2F813
:104C30000433E7E703F00303022B05D0012B02D076
:104C40000020FFF773FF01234FF05022C2F8183500
:104C50000023C2F80431D2F804310223C2F804332D
:104C600001239360CEE74FF050230022C3F80021C8
:104C7000D3F80021C3F804031860C3E7FFF756BF59
:104C80004FF0FF3382B0019300F0030001AB034407
:104C90000A44914202D1019802B0704711F8010B09
:104CA00003F8010BF5E713B50222ADF806100DF17C
:104CB00006010446FFF7E4FF014624F00300FDF778
:104CC000EDFE02B010BD20F003031B6882070CBF8D
:104CD00098B2180C7047704740B1C368587810F00C
:104CE00001001EBF1878B0FA80F04009704710B577
:104CF0004FF02003EFF3118483F31288BFF36F8F1B
:104D0000FFF762FD84F31188BFF36F8F10BDFFF7CB
:104D100020BCFFF713BCEFF30580003818BF01205B
:104D2000704708B1FCF7D0BB70472DE9F041069FF2
:104D3000044615461E46FDF76FFF38B93B4632461E
:104D400029462046BDE8F041FDF78CBFBDE8F08163
:104D50000A460021FEF712BAFFF7F0BBFFF7F9BBD6
:104D60000A460021FFF7F5BB01EB820204388A42B4
:104D700001D10020704752F8043D1BBA40F8043FAF
:104D8000F5E70000FCB5FF7F01000000A114000062
:104D900000000000211A0000CC4D0000F14A000084
:104DA0000000000067470000E44D00008547000058
:104DB000FC4D00002D1B000000000000F54A000023
:104DC000000000005127000000000000F95400001E
:104DD000F0500000005100001006012018060120CC
:104DE00028500000125500001C51000084510000A2
:104DF0001206012070050120225000001C55000001
:104E00005051000084510000140601208C0501203F
:104E10001C50000000000000E744000000000000FB
:104E2000E744000000000000E7440000000000002C
:104E3000E744000000000000E7440000FD290000F6
:104E4000274B000000000000E744000000000000C5
:104E5000E7440000FC4D0000F5460000E44D000072
:104E6000F546000000000000E744000000000000DC
:104E7000E744000000000000E744000000000000DC
:104E8000E744000000000000E744000000000000CC
:104E9000E744000000000000E744000000000000BC
:104EA000E744000000000000E744000000000000AC
:104EB000E744000000000000E7440000000000009C
:104EC000E744000000000000E7440000000000008C
:104ED000E744000000000000E7440000000000007C
:104EE000E744000000000000E7440000000000006C
:104EF000E744000000000000E7440000000000005C
:104F0000E744000000000000E7440000000000004B
:104F1000E744000000000000E7440000000000003B
:104F2000E744000000000000E7440000000000002B
:104F3000E744000000000000E7440000000000001B
:104F4000E744000000000000E7440000000000000B
:104F5000E744000000000000E744000000000000FB
:104F6000E744000000000000E744000000000000EB
:104F7000E744000000000000E744000000000000DB
:104F8000E744000000000000E744000000000000CB
:104F9000E744000000000000E744000000000000BB
:104FA000E744000000000000E744000000000000AB
:104FB000E744000000000000E7440000000000009B
:104FC000E744000000000000E7440000000000008B
:104FD000E744000000000000E7440000000000007B
:104FE000E744000000000000E7440000000000006B
:104FF000E744000000000000E7440000000000005B
:10500000E744000000000000E7440000000000004A
:10501000E744000000000000E7440000008000803A
:10502000FF7F00800080FF7F00800080FF7FFFFF08
:10503000845A0000000000008F5A000000000000A9
:10504000B5540000000000000455000000000000FE
:105050003655000000000000995A000000000000D2
:10506000F55400000000000026550000000000007C
:10507000DEE61E284CBBCE8F025B0000DEE61E285B
:105080004CBBCE8F025B0000DEE61E288384518677
:10509000025B0100DEE61E284CBBCE8F025B0000E7
:1050A000DEE61E28EAAC45B8025B00000200000004
:1050B00000000000CD2D0000052E000000000000C3
:1050C0000338FDD870470000000000000002000017
:1050D00000040000000800000010000000000000B4
:1050E000D1440000A9190000791900000000000057
:1050F000C91A0000ED19000083460000894600002F
:1051000069460000F74500005B4600000000000013
:105110006B450000000000000000000000900050FF
:1051200002000000000000002C5100000090005020
:105130003851000001000000405100000400000050
:10514000010000000E000200800101008F01030039
:1051500000800050020000000000000060510000CC
:10516000008000506C5100000100000074510000EC
:10517000040000001D0000001B0002009C01010053
:105180009A010300AD4600007D1B00009F46000011
:10519000411C00008F4600000000000000020000DB
:1051A00000040000000800000010000000000000E3
:1051B00000020000000400000008000000100000D1
:1051C0008C4D00008C4D0000BC4D0000BC4D00001B
:1051D000CC4D0000CC4D0000FFFFFFFFFFFFFFFFA5
:1051E000FFFFFFFF000000000000000000000000C3
:1051F00001000000FFFFFFFFFCFFFFFFFFFFFFFFBD
:10520000FFFFFFFF000000000000000000000000A2
:1052100001000000FFFFFFFF512563FCC2CAB9F384
:10522000849E17A7ADFAE6BCFFFFFFFFFFFFFFFF5D
:1052300000000000FFFFFFFF0000000096C298D8AA
:105240004539A1F4A033EB2D817D0377F240A463AF
:10525000E5E6BCF847422CE1F2D1176BF551BF37B8
:105260006840B6CBCE5E316B5733CE2B169E0F7C8B
:105270004AEBE78E9B7F1AFEE242E34FFFFFFFFF00
:105280007F0000008000000000000000000000001F
:10529000FFFFFFFF7F000000800000000000000013
:1052A0000000000067E6096A85AE67BB72F36E3CDA
:1052B0003AF54FA57F520E518C68059BABD9831FE1
:1052C00019CDE05BFF8FFFFFFF8FFFFFFE8FFFFF1A
:1052D000FE8FFFFFFD8FFFFFFC8FFFFFFC8FFFFFA7
:1052E000436F756C64206E6F74206C6F636B2070FD
:1052F0006F7765722073617665206D7574657800CF
:105300006D757465785F667265652063616C6C6548
:10531000642077697468204E554C4C20706172612E
:105320006D6574657200000043616E277420696EBC
:10533000697469616C697A65206D757465782C2073
:10534000776173204E554C4C0D0A00417474656DA5
:105350007074696E6720746F20626F6F7420736C55
:105360006F742025642E0D0A004E6F2066775F69EA
:105370006E666F2073747275637420666F756E64E9
:105380002E0D0A00417474656D7074696E67207427
:105390006F20626F6F742066726F6D20616464723B
:1053A00065737320307825782E0A0D004661696C8C
:1053B000656420746F2076616C69646174652C206B
:1053C0007065726D616E656E746C7920696E766160
:1053D0006C69646174696E67210A0D004669726DBB
:1053E000776172652076657273696F6E2025640D32
:1053F0000A004661696C656420746F20726561649F
:1054000020746865206D6F6E6F746F6E69632063C2
:105410006F756E746572210A0D0057652061737394
:10542000756D6520746869732069732064756520E3
:10543000746F20746865206669726D77617265208B
:1054400076657273696F6E206E6F74206265696E27
:105450006720656E61626C65642E0A0D00466169A5
:105460006C656420746F2070726F74656374204281
:105470003020666C6173682C2063616E63656C20FC
:10548000737461727475702E0A0D004E6F20626F16
:105490006F7461626C6520696D61676520666F7508
:1054A0006E642E2041626F7274696E6720626F6F46
:1054B000742E0A0D0063627072696E74665F7061AB
:1054C000636B61676500286E696C29004661696CD1
:1054D000656420746F207265626F6F743A20737018
:1054E000696E6E696E6720656E646C6573736C7946
:1054F0002E2E2E0A00736F6300636C6F636B403552
:1055000030303000636C6F636B5F636F6E74726F0B
:105510006C0075617274403930303000756172749E
:10552000403830303000756172745F6E7266785F3B
:10553000756172746500666174616C5F6572726F2B
:105540007200426F6F74696E672028307825782961
:105550002E0D0A0053657474696E67206D6F6E6F4F
:10556000746F6E696320636F756E74657220287640
:10557000657273696F6E3A2025642C20736C6F74AA
:105580003A202564290D0A004661696C656420642F
:105590007572696E672072656164696E67206F66F7
:1055A00020746865206E756D626572206F66207468
:1055B000686520636F756E74657220736C6F7473A9
:1055C0002C206572726F723A2025640D0A004D6FAF
:1055D0006E6F746F6E69632076657273696F6E208B
:1055E000636F756E7465722069732064697361629C
:1055F0006C65642E0D0A004661696C6564206475F3
:1056000072696E672073657474696E67207468656B
:10561000206D6F6E6F746F6E696320636F756E744B
:1056200065722C206572726F723A2025640D0A0033
:10563000496E76616C6964206669726D7761726526
:1056400020696E666F20666F726D61742E0A0D00A0
:10565000546865206669726D7761726520646F6554
:10566000736E27742062656C6F6E672061742064AE
:10567000657374696E6174696F6E20616464722E03
:105680000A0D0073726320616E6420647374206D70
:1056900075737420626520657175616C20666F7228
:1056A000206C6F63616C2063616C6C732E0A0D005B
:1056B0004669726D7761726520696E666F20646FEE
:1056C00065736E277420706F696E7420746F206923
:1056D0007473656C662E0A0D00466972776D61728F
:1056E0006520686173206265656E20696E76616C05
:1056F0006964617465643A20307825782E0A0D005B
:1057000043616E6E6F7420726561642074686520F9
:105710006669726D776172652076657273696F6E06
:105720002E2025640A0D004669726D77617265202E
:1057300076657273696F6E2028257529206973203C
:10574000736D616C6C6572207468616E206D6F6E34
:105750006F746F6E696320636F756E746572202855
:105760002575292E0A0D00496E76616C69642073D7
:10577000697A65206F7220746F74616C5F73697AE7
:105780006520696E206669726D7761726520696E49
:10579000666F2E0A0D004669726D77617265206929
:1057A0006E666F206973206E6F7420776974686904
:1057B0006E207369676E656420726567696F6E2E0F
:1057C0000A0D00426F6F7420616464726573732008
:1057D0006973206E6F742077697468696E207369CD
:1057E000676E656420726567696F6E2E0A0D0052E0
:1057F000657365742068616E646C657220697320DE
:105800006E6F742077697468696E207369676E655E
:105810006420726567696F6E2E0A0D00436F756CA8
:1058200064206E6F742066696E642076616C6964B2
:10583000206669726D776172652076616C6964615A
:1058400074696F6E20696E666F2E0A0D0056616C6A
:1058500069646174696F6E20696E666F20646F653C
:10586000736E27742062656C6F6E6720746F20748E
:10587000686973206669726D776172652E0A0D0022
:10588000626C5F63727970746F5F696E69742829E6
:105890002072657475726E65642025642E0A0D0091
:1058A0007665726966795F7075626C69635F6B6556
:1058B000797328292072657475726E656420256479
:1058C0002E0A0D0041207075626C6963206B65794A
:1058D00020636F6E7461696E732030784646464669
:1058E0002C20776869636820697320756E73757002
:1058F000706F727465640A0D004B65792025642011
:10590000686173206265656E20696E76616C69649A
:10591000617465642C20747279206E6578742E0A27
:105920000D007075626C69635F6B65795F646174AB
:10593000615F72656164206661696C65643A202507
:10594000642E0A0D00566572696679696E67207368
:1059500069676E617475726520616761696E7374E1
:10596000206B65792025642E0A0D00486173683A22
:10597000203078253032782E2E2E253032780D0AC0
:1059800000496E76616C69646174696E67206B654D
:10599000792025642E0A0D004669726D7761726563
:1059A000207369676E6174757265207665726966C9
:1059B0006965642E0A0D005075626C6963206B6521
:1059C00079206469646E2774206D617463682C208B
:1059D000747279206E6578742E0A0D004669726DB6
:1059E000776172652076616C69646174696F6E209D
:1059F0006661696C65642077697468206572726F8E
:105A0000722025642E0A0D004661696C656420745D
:105A10006F2076616C6964617465207369676E617B
:105A2000747572652E0A0D004552524F523A20434A
:105A3000616E6E6F742066756C66696C6C2045587B
:105A4000545F41504920726571756573742E0D0A5B
:105A5000005741524E494E473A204F7074696F6E5D
:105A6000616C204558545F415049207265717565DD
:105A70007374206E6F742066756C66696C6C6564F7
:105A80002E0D0A004E5246585F434C4F434B004E7A
:105A90005246585F44505049006F73002A2A2A200A
:105AA000426F6F74696E67205A6570687972204F13
:105AB00053206275696C642076332E322E39392D6D
:105AC0006E637332202A2A2A0A00000000000000B8
:105AD000FFFFFFFFFF00000073430000654500006B
