:020000040000FA
:10000000201701206D0A0000A54D0000590A0000CC
:10001000590A0000590A0000590A0000590A000054
:10002000000000000000000000000000110B0000B4
:10003000590A000000000000590A0000590A000097
:100040005D0C00005D0C00005D0C00005D0C00000C
:100050005D0C00005D0C00005D0C00005D0C0000FC
:100060005D0C00005D0C00005D0C00005D0C0000EC
:100070005D0C00005D0C00005D0C00005D0C0000DC
:100080005D0C00005D0C00005D0C00005D0C0000CC
:100090005D0C00005D0C00005D0C00005D0C0000BC
:1000A0005D0C00005D0C00005D0C00005D0C0000AC
:1000B0005D0C00005D0C00005D0C00005D0C00009C
:1000C0005D0C00005D0C00005D0C00005D0C00008C
:1000D0005D0C00005D0C00005D0C00005D0C00007C
:1000E0005D0C00005D0C00005D0C00005D0C00006C
:1000F0005D0C00005D0C00005D0C00005D0C00005C
:100100005D0C00005D0C00005D0C00005D0C00004B
:100110005D0C00005D0C00005D0C00005D0C00003B
:100120005D0C00005D0C00005D0C00005D0C00002B
:100130005D0C00005D0C00005D0C00005D0C00001B
:100140005D0C000000000000000000000000000046
:10015000000000000000000000000000000000009F
:10016000000000000000000000000000000000008F
:10017000000000000000000000000000000000007F
:10018000000000000000000000000000000000006F
:10019000000000000000000000000000000000005F
:1001A000000000000000000000000000000000004F
:1001B000000000000000000000000000000000003F
:1001C000000000000000000000000000000000002F
:1001D000000000000000000000000000000000001F
:1001E000000000000000000000000000000000000F
:1001F00000000000000000000000000000000000FF
:10020000DEE61E284CBBCE8F025B0000EC00000037
:100210009A6A0000010000000000000000000000D9
:10022000FFFF02910000000000000000000000003D
:10023000000000000500000000000000DEE61E28AF
:10024000EAAC45B8025B000020000000031000008B
:100250000100000001000000D1500000DEE61E2871
:10026000EAAC45B8025B000030000000021000005C
:100270000000000001000000E11500008D510000A9
:10028000935100000550000074000000DEE61E28B7
:10029000EAAC45B8025B000020000000011000003D
:1002A00002000000010000009B500000DEE61E2856
:1002B000EAAC45B8025B000020000000011100001C
:1002C00003000000010000001D520000DEE61E28B1
:1002D000EAAC45B8025B00002000000000120000FC
:1002E0000000000001000000491B000053B94AB99A
:1002F000002908BF00281CBF4FF0FF314FF0FF302E
:1003000000F00CB8ADF1080C6DE904CE00F036F841
:10031000DDF804E0DDE9022304B07047704700BF58
:1003200030B44FF0000310F8014B11F8015B013AB3
:1003300084EA050443EA0403F5D1A3F101034FEA7B
:10034000D37030BC704700BF4FF0000310F8012B92
:10035000013943EA0203F9D1A3F101034FEAD37053
:10036000704700BF30B411F8014B12F8015B6C40CC
:1003700000F8014B013BF6D130BC70472DE9F04746
:1003800086468C460846089E154674461946002B3C
:1003900040F0C1808542B2FA82F245D94AB1C2F139
:1003A000200300FA02FC954094402EFA03F343EA3E
:1003B0000C0C4FEA154EA8B2230CBCFBFEF80EFB4A
:1003C00018CC08FB00F943EA0C43994528D9EB18EF
:1003D00008F1FF3704D2994502D9A8F102072B444E
:1003E000A3EB0903A4B2B3FBFEFC0EFB1C330CFB16
:1003F00000F044EA0344A04214D92C190CF1FF3355
:1004000004D2A04202D9ACF102032C44241A43EADC
:1004100007401EB1D440002334607360BDE8F0870C
:100420004746DDE76346F1E792BB431B01214FEAF4
:10043000154EAFB2200CB3FBFEFC0EFB1C330CFBC5
:1004400007F840EA0343984561D9EB180CF1FF30F7
:1004500004D2984502D9ACF102002B44A3EB080367
:10046000A4B2B3FBFEFC0EFB1C330CFB07F744EA03
:100470000344A7424DD92C190CF1FF3304D2A742F3
:1004800002D9ACF102032C44E41B43EA0040C0E76C
:10049000C2F120039540944020FA03F12EFA03F3B1
:1004A0004FEA154E9040AFB20343B1FBFEFC0EFB8A
:1004B0001C10190C0CFB07F841EA0041884522D9B1
:1004C00069180CF1FF3004D2884502D9ACF1020062
:1004D0002944A1EB08019BB2B1FBFEFC0EFB1C11F1
:1004E0000CFB07F743EA01439F420ED9EB180CF1CE
:1004F000FF3104D29F4202D9ACF102012B44DB1B35
:1005000041EA004193E76046E3E76146F7E760466A
:10051000A4E76346B8E7834206D916B90021084626
:100520007CE7C6E900E0F9E7B3FA83F78FB98342C5
:1005300001D3724508D8BEEB020460EB030301202F
:100540009C461EB9002169E73846FAE7C6E9004C27
:10055000F8E7C7F1200CBB400EFA07F522FA0CF4BD
:100560002EFA0CF1BA401C4320FA0CF3B8404FEAC3
:10057000144901431FFA84FEB3FBF9F809FB183054
:100580000B0C08FB0EFA43EA00439A4540D9E318E6
:1005900008F1FF3004D29A4502D9A8F102002344A1
:1005A000A3EB0A0389B2B3FBF9F809FB183308FB84
:1005B0000EFE41EA03418E452CD9611808F1FF3344
:1005C00004D28E4502D9A8F10203214443EA004037
:1005D000A1EB0E01A0FB02984145CE46434602D353
:1005E00006D14D4504D20138B9EB020E68EB040385
:1005F000002EA7D0B5EB0E0261EB030101FA0CFC53
:1006000022FA07F3F9404CEA0303C6E9003199E7FF
:100610004046C5E74346D9E72DE9F04307460026A3
:1006200085B0DFF83490DFF8348001AD59F8044B21
:1006300098E807003C4485E807000C22294620463C
:1006400004F0A7FF00B91CB90136052EEED1002435
:10065000204605B0BDE8F083685F0000805C0000C4
:1006600037B504461E480D4604F06FFB2CB91D48F3
:1006700003B0BDE8304004F068BBA1691A4804F03B
:1006800064FB2146A06904F0D7FD40B9174804F087
:100690005CFB204603B0BDE8304001F015BB1448B8
:1006A000616904F052FB0DF1060004F0A5FD40B1B4
:1006B000104804F04AFB104804F047FB0023ADF853
:1006C00006306069BDF80630984203D9294680B2E9
:1006D00000F0B6FF204600F0BDFE03B030BD00BF05
:1006E0008C620000AA620000C5620000ED6200009A
:1006F0001D630000336300005B63000070B54FF4BE
:100700000041002000F054FE064620B1134804F0DA
:100710001CFB002070BD01F04DF9044601F050F9BA
:1007200005462046FFF778FF04462846FFF774FF8A
:10073000054618B1626943699A4209D300212046EF
:10074000FFF78EFF01212846FFF78AFF0448DEE706
:100750000121FFF785FF31462046F5E79E63000043
:10076000CC630000014B1B68184700BF68050120DF
:1007700030B585B004460D4610220021684605F0CC
:1007800069F802238DF80230044B2A462146684658
:10079000019303F087F905B030BD00BF6507000085
:1007A000014B1860704700BF6805012008B5044878
:1007B00004F0CBFABDE80840024804F0C6BA00BF16
:1007C000F66300002B640000014802F063BF00BF25
:1007D0007C5F000030BFFFF7FDBF00BF154B9A6A7A
:1007E00012F0007F9A6A14BF1E201D2012F0807F35
:1007F0009A6A18BF1F2012F4801F9A6A18BF02203D
:1008000012F4002F9A6A18BF212012F4802F9A6ADE
:1008100018BF222012F4003F9A6A18BF232012F456
:10082000803F9A6A18BF24206FEA02426FEA1242A0
:100830009A62704700ED00E010B5194B0246986AC5
:100840009C6A10F4805F14BF1720162014F4006F08
:100850009C6A18BF1820A40509D5986B986A0004F3
:1008600004D51AB19A6A22F400429A6219200C4BFC
:100870009A6A12F4806F9A6A18BF1A20D2050CD4B3
:100880009B6A13F4005F18BF1C20054A936A43F467
:100890007F43936200230B7010BD1B20F5E700BF60
:1008A00000ED00E010B51C4B0246986A9C6A10F0FF
:1008B000100F14BF1120102014F0080F9C6A18BFED
:1008C0001220A40709D5586B986A000604D51AB1FE
:1008D0009A6A22F080029A6213200F4B9A6A12F0F1
:1008E000010F9A6A18BF142012F0200F9A6A18BFDD
:1008F0001520D40658BF9B6A074B9A6A920642BFDE
:100900005A6A22F400525A629A6A42F0FF029A62CC
:1009100000230B7010BD00BF00ED00E0F0B5474BA9
:1009200004465B6800258BB0C3F3080385F3118888
:10093000BFF36F8F02F07F40B0F17F4F11D102F013
:100940000C0008280DD010074CBF0C4601250022D2
:10095000033B8DF80720032B05D8DFE803F0246262
:10096000665F2C46F3E700239DF80720CAB902AE64
:1009700004F12007324620686168083403C2BC4293
:100980001646F7D1099A002D53D0C2F3080121B9B8
:100990006FEA52226FEA42220992184602A904F035
:1009A000F7F90BB0F0BD254BDA6A9107DBD4DA6AB0
:1009B000002AD8DBDA6A5200D5D55A69A16942F417
:1009C00080725A61BFF34F8FBFF36F8F5A6931F84E
:1009D000021C22F480725A61BFF34F8FBFF36F8FF6
:1009E0004DF60272914209D09A6AD2B242B1012008
:1009F0000DF10701FFF756FF0346B5E72368B3E79C
:100A00009A6A12F47F4F05D001200DF10701FFF71C
:100A100013FFF1E79B6AB3F5803FA4D3FFF7DEFE37
:100A2000EAE700200DF10701E4E700200DF10701DE
:100A3000EDE722F4FF7222F00102ADE700ED00E0E5
:100A4000044B5A6942F010025A615A6942F48062BA
:100A50005A61704700ED00E0EFF30880EFF3098181
:100A600001B57246FFF75AFF01BD00BF002080F3B9
:100A70001488BFF36F8F002080F30A8880F30B88FF
:100A800001F06EF900200E490860BFF34F8F0D484A
:100A900080F3088800F01AF8202080F311880A48B3
:100AA0004FF40061401880F30988EFF314800221AD
:100AB000084380F31488BFF36F8F00F06BF80000D9
:100AC00094ED00E0201701202007012072B60023DA
:100AD00083F313884FF0FF300C4A03F120010133F8
:100AE000102B42F82100F8D100234FF0FF30074AC5
:100AF00003F160010133102B42F82100F8D162B6F6
:100B0000BFF34F8FBFF36F8F704700BF00E100E06E
:100B10001EF0040F0CBFEFF30880EFF3098081692A
:100B200011F8021C0229FFD001B504F037F901BD0C
:100B300040B2002807DB01234109034A00F01F00EF
:100B4000834042F82130704700E100E0054B420944
:100B500053F82220012300F01F0003FA00F0104098
:100B6000704700BF00E100E040B2002801F1010140
:100B7000ACBF00F16040064B4FEA4111C9B2ABBFB8
:100B800000F5614000F00F0080F800131954704721
:100B900014ED00E0144A08B5144B22F07F029A606D
:100BA000BFF34F8FBFF36F8FD3F8882022F470020A
:100BB000C3F88820D3F8882042F4A002C3F8882024
:100BC0004FF04042C3F83422BFF34F8FBFF36F8F13
:100BD0000023E1EE103A01F0B1FA01F0F3FA00F06F
:100BE00031F801F0B7FA00BF0000000000ED00E0AE
:100BF0001E4680B50C46074615460023E1EE103A26
:100C000083F30B88DFF824C0ACF5006E8EF30B88FD
:100C10008CF309884FF00000054988472046294693
:100C20003246B84703488047FEE700BF201701203F
:100C3000BD4D0000CB4D00001022014B1A617047E2
:100C400000ED00E0002320210348C2180133412BAE
:100C500082F80013F9D1704700E100E008B5EFF326
:100C60000583064A103B02EBC30152F83300496882
:100C70008847BDE8084004F09CB800BF745A0000E3
:100C800008B5024B1B689847002008BD20060120CC
:100C9000034B044A1860937843F002039370704743
:100CA000200601206C05012008B50649064821F000
:100CB0000701C1F1005202F5802203F0ECFF002091
:100CC00008BD00BF27970120240601200122024B06
:100CD0000020C3F8402570470090035020B1034B1B
:100CE000800143F001031847704700BFD05C00004B
:100CF000084B70B5C31A0D4607499B10044659436B
:100D00004022064804F077F82B4601462046BDE80D
:100D10007040184730060120B76DDBB6385A000026
:100D2000402373B50B4C0093041B0B460D460A4938
:100D3000A41061430646094A094804F088F8011ED8
:100D400005DA30462B4602B0BDE87040184702B0C5
:100D500070BD00BF30060120B76DDBB6BF4E00008E
:100D6000385A000010B5EFF31184202383F3128862
:100D7000BFF36F8F074A136823F00201DB0711608E
:100D800002D4012004F065FB84F31188BFF36F8F58
:100D900010BD00BF8006012070B50022012104466D
:100DA0000520FFF7E1FE0F4801F0C0F80E4B984216
:100DB00015D101F0CBF826690C49304603F0D2FF7B
:100DC00000280BDB012535642469084904F11C0067
:100DD00003F0C8FF002801DB0020E56470BD6FF060
:100DE0000400FBE7B90E00000000AD0B845F0000BB
:100DF0000C22104B014602FB0033002030B4D3E933
:100E00000E529863EFF31180202484F31288BFF30D
:100E10006F8F1C6C04F0C00444F002041C6480F367
:100E20001188BFF36F8F1DB12B4630BC02481847A5
:100E300030BC704730060120385A000010B4EFF380
:100E40001182202383F31288BFF36F8F1848016843
:100E500041F002040460C80708D482F31188BFF38C
:100E60006F8F01205DF8044B01F084B84FF05021E2
:100E7000D1F80C04D1F80C14C907EED5EFF31180AA
:100E800083F31288BFF36F8F0A490B6C03F0C00322
:100E900043F002030B6480F31188BFF36F8F82F37A
:100EA0001188BFF36F8F00205DF8044BFFF7A0BFE0
:100EB000800601203006012010B1012804D07047BF
:100EC000034B1B6C5B0701D1FFF792BF704700BF5C
:100ED0003006012008B5074804F0E8FA38B10648A2
:100EE000FFF7D6FE0448FFF75BFC002008BD6FF05B
:100EF0001200FBE7605A0000FD0E00000A2838B51A
:100F00000446074D04D1AB680D2128465B6898471D
:100F1000AB6803485B68E1B29847204638BD00BF24
:100F2000605A00002DE9F04740F2FF16594FDFF8F4
:100F300068C1DFF868E100EB8101814202D1002045
:100F4000BDE8F087046814F4804FC4F3C325C4F3EC
:100F5000080340F08C80640CB34208BF4FF0FF33AD
:100F60007D5D192C00F28680DFE804F00D13191C5A
:100F70001F251C84848484366084848484848484CF
:100F8000848463787B7EC2F80C355C1C5BD10430B2
:100F9000D3E7C2F814355C1CF9D000245CE0C2F839
:100FA0000835F2E7C2F81035F5E75C1CC2F80835E1
:100FB000EDD0002404E05C1CC2F80C35E7D001241D
:100FC0005FEA531859D14FF00109DFF8CC8009FAD4
:100FD00003FAC8F80CA008E0C2F80835002DDAD1F1
:100FE0005C1CD4D000240625A146D0F800A00AF449
:100FF0000048B8F1000F1CBF4FF00009012403F0B6
:101000001F085B093FD10CEB8808D8F80032CAF3FF
:10101000412A03EA0E0343EA8A0343EA052343EA2B
:10102000090343EA4403C8F80032B0E7C2F80C35BC
:10103000D4E7C2F86035B3F1FF3F0468A7D0C4F32A
:101040000044002CBBD05C091AD10124DFF8488091
:1010500004FA03F9C8F80890A146C6E7C2F8643557
:10106000E9E7C2F86835E6E7C2F86C35E3E76FF008
:10107000150065E76FF0850062E70023DB60FFDEA7
:1010800000239B60FBE7002308F1800853F8283019
:10109000F5E700BF6464000000258450F0F8FCFF11
:1010A0002DE9F04104460D46076904F040FA4FF07F
:1010B000200890B92A4B1B787BB16426606803F046
:1010C0003CFFD0B9012004F062F9013EF6D1F4E70B
:1010D00086F31188BFF36F8FEFE7EFF31186314688
:1010E00088F31288BFF36F8F606803F026FF80B922
:1010F00086F31188BFF36F8FEFE7EFF31186314668
:1011000088F31288BFF36F8F606803F016FF002822
:10111000DED03B691D70626838691368C3F8440506
:101120000120C3F848050020C3F82001D3F820515E
:10113000C3F858015268D3F85801D20608D50820E0
:1011400062681268C2F800054FF48002C3F80423F5
:1011500001229A6081F31188BFF36F8FBDE8F0819F
:101160001D0701202DE9F7434FF000084768056986
:101170003C680646C4F800852860D7F80C904146C4
:10118000484601AA03F0ABFE00283CDB019BD9F8DE
:10119000002019791868FFF7C5FE002833DB6B7A49
:1011A0003169012B03D0032B2BD14FF01008AB7A00
:1011B000032B26D195F80BC0BCF1000F02D0BCF177
:1011C000010F1ED12A7A12B1022A1AD10E226B689F
:1011D0007068B3F5164F006800F0B28034D8B3F5EC
:1011E000165F00F0B0801AD8B3F5966F00F0AD80AE
:1011F0000CD8B3F5967F00F0AB80B3F5167F00F006
:10120000AA806FF0850003B0BDE8F083B3F5166FD8
:1012100000F0A480B3F5965FF3D15C4B43E0B3F5E7
:10122000E14F00F09E8008D8B3F5615F00F09B802D
:10123000B3F5964FE5D1564B35E047F6122E734580
:10124000DFD14FF400032EE0B3F5613F00F08D8055
:1012500015D8B3F5963F00F08B800AD84DF6C02E16
:10126000734500F08780B3F5614FCAD14FF46B032B
:1012700019E0B3F5E13FC4D14FF0EB7313E0B3F5E0
:10128000612F7AD009D8DFF820E1734578D0B3F523
:10129000E12FB6D14FF0E86305E0DFF810E17345C8
:1012A000AFD14FF08053C0F82435736848EA0C087A
:1012B0001B6842EA0802C3F86C250B1DD5E9010141
:1012C00083E803007B68990712D505F1180000F048
:1012D000DBFE304B984256D1287E04F10C0204F517
:1012E000907104F056F801202B7E984000F018FE13
:1012F0000823C4F800353B7A53B9C4F81031D4F848
:1013000010316B69C4F834350123C4F838352360D3
:101310007B6800209A075CBF4FF48073C4F80433E5
:101320007B68DB0644BF4FF48003C4F804332B69A9
:10133000C4F844350123C4F84805A360E36062E7BC
:101340004FF41D03AFE7144BADE74FF49E23AAE71C
:101350004FF4A033A7E74FF41C33A4E74FF41D2349
:10136000A1E70E4B9FE70E4B9DE74FF06C739AE79A
:101370000C4B98E74FF4650395E74FF0706392E7E5
:101380004FF080638FE76FF004003CE700B013007C
:1013900000A04E000000AD0B0050270000C07500FB
:1013A00000F03A0000903A0190D0030040420F0054
:1013B00040EA0103C3F30E0330B58BB940F21515B3
:1013C000094CC90BC0F3C730994201D1002030BD90
:1013D000C218D2B202F5C07244F822500133F3E7CA
:1013E0006FF01500F3E700BF00300050002230B569
:1013F000C0F80025D0F80C3585B00093D0F814352E
:10140000124C0193D0F80835114D0293D0F81035E5
:101410006846039350F8041B4B1C0CD001F01F03CB
:1014200049090DD104EB8303D3F80012294041F0A0
:101430000201C3F800120132042AEBD105B030BD1D
:101440000022803352F82330FFDE00BF0025845095
:10145000F0F8FCFF38B5044681692D4803F075FCAF
:101460002C48FFF7C3FF2C48FFF7C0FF4FF0FF32B7
:101470004FF05023C3F80823BFF36F8F72B60023D9
:10148000264903F120000133102B41F82020F8D128
:1014900000234FF0FF30214A03F160010133102B8C
:1014A00042F82100F8D14FF0E02300221A61D3F86E
:1014B000042D03F5506342F000725A605A6A22F418
:1014C000E0225A62EFF31482920707D5EFF31482F9
:1014D00022F0020282F31488BFF36F8FBFF34F8FA5
:1014E000BFF36F8FA26901219A602046A56900F0C1
:1014F0002BFB58B1002383F30B8883F30A882A68F7
:1015000082F3088883F309886B68984738BD00BF69
:1015100080640000008000500090005000E100E076
:101520000122024BC3F80025704700BF0000845021
:101530000022024BC3F80025704700BF0000845012
:1015400070B5EFF30883B3F5004F02D2094D2B7845
:101550000BB1002070BD0126074CC4F8006501F0F6
:101560002DF818B92E70C4F80005F2E76FF00D00E1
:10157000F0E700BF1C0701200000845090B5B1F1D6
:10158000005F83B002AF1FD2BBB16C46ADF5007DEA
:1015900002AB00934FF4007303F0C5FDA5460E4B5C
:1015A000984213D00A33984213D00C3B984208BF9C
:1015B0006FF015000437BD4690BD084B00934FF403
:1015C000004303F0B0FDEAE70023F7E76FF01500F2
:1015D000F0E76FF08500EDE70202F0002017012030
:1015E00008B500F049FF034B984208BF6FF01500A3
:1015F00008BD00BF0002F0001FB50446074A01AB5A
:1016000007CA83E807000C221946204603F0C1FFF1
:1016100000280CBF2046002004B010BD8C5C0000E8
:1016200070B505460024054E56F8040B2844FFF714
:10163000E3FF10B90134052CF6D170BD3060000015
:1016400073B50A4606460D460146144803F07DFB75
:1016500001200DF1060103F02DFE044620B10146E4
:101660000F4803F072FB07E0BDF806303BB90D48A8
:1016700003F06BFB6FF01504204602B070BDB5FAA5
:1016800085F1490941EA4601012089B203F02BFEA8
:1016900004460028F0D001460348E2E792640000C7
:1016A000C66400000C650000356500002DE9F04FB0
:1016B000824689B010460F4615461C46D668D2F8B9
:1016C0001080FFF799FF38B914B99C4803F03DFB2F
:1016D000002009B0BDE8F08FA869504503D0002C68
:1016E000F6D19748F2E71CB9B8420BD09548EDE720
:1016F0003846FFF795FF8542EAD12A6A924B9A4213
:10170000E6D109E0FFF78CFF854201D08F48DDE785
:10171000296A8D4B994216D10DF10E0003F06CFD34
:101720000146002837D094B9894803F00EFB894858
:1017300003F00BFBADF80E40D5F81090B9F5A03FC3
:1017400034D98548C2E7854803F0FFFAC0E7002393
:10175000ADF80E30D5F81090B9F5A03FB8D8EB68C9
:101760009945B5D3AE19B3D218EB0703B0D2BD4239
:1017700024D39D4222D2013EB7421FD89E421DD2A1
:1017800018EB0A082CBF01260026EB6926D3002C93
:101790009ED173489AE76969BDF80E20914211D233
:1017A000002C95D16F4803F0D0FA91E7EB6899458A
:1017B000C7D3AE1902D218EB0703D8D3002C87D1B8
:1017C000694883E7D5F81090B9F5A03F02D8EB68D7
:1017D0009945EED2002C7FF47BAFB2E75345D6D3C8
:1017E0004345D4D23A1DA2EB0A02D3589A4504D9F4
:1017F000002C7FF46DAF5D4868E79845F8D907EB9A
:1018000009085B4B08F1050B0DF1100A93E807007E
:101810008AE807000C225146404603F0BAFE544BBA
:1018200010B9B8F1000F7AD108F10108D845EDD10F
:10183000002C7FF44DAF4F4848E7002C7FF448AFB1
:101840004D4843E700F01CF9054658B1002C7FF4E1
:101850003FAF0146494803F078FA71357FF438AF5D
:10186000474833E7474A484B002C14BF93469B46F2
:1018700000F0ACF8854204D3002C7FF429AF434834
:1018800024E75146284600F023F9102801460ED0DF
:1018900010F1160F06D11CB929463D4803F055FA40
:1018A0000135E5E7002C7FF413AF3A484CE754B913
:1018B0002946394803F049FA9DF81F209DF8101079
:1018C000364803F042FA51463B46CDF8009008F105
:1018D000700208F13000D847014690B9304FB54248
:1018E00005D114B92F4803F030FA0120F1E61CB9F4
:1018F0003146384603F029FA304600F011F9013636
:10190000EDE710F1650F05D1002CC9D1264803F091
:101910001CFAC5E7002C7FF4DBAE244814E7D8F8A6
:101920000C20AB699A4288D103F0C0FB0146002825
:1019300088D0002C7FF4CCAE1D4805E76E65000012
:101940008E650000C1650000FFFF0291EE6500009A
:101950003E6600005B630000A5660000176600009D
:101960000167000065660000D46600002D67000076
:10197000985C00005A6700008B670000DE6700007B
:10198000026800009B500000BB5000004669000048
:10199000376800006068000083680000A9680000E4
:1019A000BF680000D6680000F56800001A690000F2
:1019B000BE670000014803F044BC00BF3081FF0057
:1019C000014803F03EBC00BF3481FF00014803F032
:1019D00038BC00BF3881FF0008B50246FFF7F6FFAC
:1019E000904217D914200D4B0D4900FB023003F033
:1019F00028FC0C4B43EA026341EA0262904209D0A0
:101A0000984209D0002383F31188BFF36F8F04231A
:101A1000184602DF002008BD0120FCE73C81FF00E2
:101A20000000FA50FFFFFA502DE9F0410746FFF79A
:101A3000CDFF1423114D03FB0055284603F029FD6B
:101A4000012803D000242046BDE8F0814FF00008B3
:101A50002C1DAE1C304603F01CFD4045F2D9A01CE5
:101A600003F017FD0546204603F013FDB842EAD007
:101A7000023504EB450408F10108EBE73C81FF0067
:101A8000F8B5FFF7A3FF10281AD800244FF6FF7708
:101A90000E4DFFF79BFFA04201D80020F8BD204665
:101AA000FFF79AFF48B1A5F11006304603F0F1FCAC
:101AB000B84208D00236AE42F7D101341435E8E717
:101AC0006FF01500EAE76FF07000E7E75081FF0064
:101AD00070B504460D46FFF77FFFC8B1FFF776FFEC
:101AE000A04218D9142300220C4903FB04118818C2
:101AF00003F0A7FB0023AC1820FA03F60833202BD1
:101B000004F8016BF8D10432102AF0D1104670BDF0
:101B10006FF01500FBE76FF00D00F8E74081FF0064
:101B200010B50446FFF758FF40B11420044B054997
:101B300000FB0430BDE8104000F0C2BA10BD00BF89
:101B40003C81FF000000FFFF2DE9F04F87B0064603
:101B5000009198B303F0E3FB00270446B36BBB424C
:101B60004ED94FF00008DFF8B8A04FF000095AF83E
:101B7000043BDFF8B0B05BF8045B01931D44254BD8
:101B800093E8070003AB83E8070019460C222846B8
:101B900003F0FFFC019B00B9A5B909F10109B9F1F6
:101BA000050FE8D11C4B08F101089845DDD3009BD7
:101BB00013B10022636A1A60236A3BB3002007B0A6
:101BC000BDE8F08F2B6A154A9342EBD1AE42E9D0C3
:101BD000696B05F13C038842E4D025691A69954296
:101BE0000AD19A69A569954206D8E569954203D953
:101BF00062695D69AA4305D0DA6801301344EAE7F7
:101C00000120DCE7009A0AB1626A1360E3680137D9
:101C10001C44A3E7A45C000001000000FFFF029148
:101C2000D4690000446000002DE9F043224885B0EB
:101C300003F075FB002604461F4B204FD3F8388075
:101C4000DFF88090B04503D8002005B0BDE8F083F0
:101C5000636A97E807001D6801AB83E807000C2260
:101C60001946284603F095FC78B975B122692B69AD
:101C70009A420AD1AB69A2699A4206D8E2699A42AD
:101C800003D963696A6993430CD0256A75B10C481E
:101C900003F05BF8002383F31188BFF36F8F0423F5
:101CA000184602DFE36801361C44CBE7484603F0E0
:101CB0004CF8636A1D60F5E700020000B05C0000AC
:101CC000666900008F690000026A044B9A4203D1E2
:101CD0000349203000F0F4B9704700BFFFFF0291C4
:101CE0000000FFFF08B5EFF31083012B0C4A07D16A
:101CF000126ABFF34F8F511C4A424A41104608BD39
:101D000003F023FB00B172B6126ABFF34F8F531C6E
:101D10005A425A4103F019FB0028EFD062B6EDE7B2
:101D20000080FF0008B5EFF31083012B0B4A06D1AA
:101D3000D269BFF34F8F02F00102104608BD03F0D5
:101D400004FB00B172B6D269BFF34F8F02F00102FB
:101D500003F0FBFA0028F0D062B6EEE70080FF0047
:101D600010B503F0F2FA30B14FF050230022C3F85F
:101D70001421C3F8182103F0F7FA28B10122524BBD
:101D8000C3F8382AC3F878254FF47F02D2F83031EF
:101D9000D2F83421BFF34F8FC3F30B03092B05D1C6
:101DA000012A1EBF0122484BC3F8782503F0DCFA54
:101DB00018B10E22454BC3F8E42E03F0C6FA30B139
:101DC0000022414BC3F80C270122C3F81027002240
:101DD000D30003F57F03D3F80013BFF34F8F013116
:101DE00008D0D3F800130132D3F80433B2F5807F62
:101DF0000B60EDD1EFF31084FFF794FF00284DD076
:101E0000BFF34F8F324BD3F80024012AFBD1C3F824
:101E10000425D3F80024012AFBD1012C03D003F0C0
:101E200094FA00B172B6FFF77DFF58B1294AD36921
:101E300023F00103D361BFF34F8F254AD2F800345A
:101E4000012BFBD1FFF74EFF68B1224A136A23F042
:101E5000FF0343F020031362BFF34F8F1C4AD2F8F5
:101E60000034012BFBD1012C03D003F06EFA00B13A
:101E700062B60022164BC3F80425D3F80024012AC9
:101E8000FBD1BFF34F8F1449144BCA6802F4E062D0
:101E90001343CB60BFF34F8F00BFFDE7FFF722FF77
:101EA0000028ADD10C4BD3F88C2042F44062C3F82B
:101EB0008C20D3F8882042F47002C3F88820BFF346
:101EC0004F8FBFF36F8F10BD0040005000A0035034
:101ED000009003500080FF0000ED00E00400FA05D0
:101EE00030B50468ACB1B4FA84F30122C3F11F0326
:101EF000DBB29A4024EA0202D0E8EF5FA54204D1A7
:101F0000C0E8EC2FBCF1000FF6D1EAD102480B700B
:101F100030BD0248FCE700BF0000AD0B0200AD0B76
:101F2000014BC3F80405704700700150044B1A7947
:101F300022B9012218601A7102487047024870479E
:101F4000840601200000AD0B0C00AD0B08B5084B5A
:101F50001B6833B10520FEF7F9FD10B90520FEF727
:101F6000E7FD4FF050230122C3F8182508BD00BF3C
:101F70008406012010B510B1012847D010BD4FF0E4
:101F80005023D3F81814D3F81824C90322D502F02B
:101F90000303022B05D0012B02D0002003F000FA2E
:101FA00001234FF050220220C2F8183508224FF4C6
:101FB0008273002103F1502319601C68012402F18F
:101FC00050221460164A126822B34FF05023C3F80F
:101FD0000403D3E7D3F81424D207E1D5D3F81C24A3
:101FE00002F00302013A012AD7D80D4A12681AB149
:101FF0000222C3F80423C1E7D3F80421002AFBD04E
:102000000022C3F80421D3F80431B7E700224FF4CB
:102010008073CEE71A68002AFCD019601B68ADE710
:10202000840601204FF0502310B5D3F8002152B19F
:102030000020C3F80001D3F800210122C3F80823CF
:10204000104B1B6898474FF05023D3F8042182B1FE
:102050000022C3F80421D3F80421D3F81824D3F8BC
:102060001824022102F00302012A03D1C3F8181533
:102070009A6010BDC3F80813024B0120BDE8104060
:102080001B6818478406012001460148FFF728BF56
:10209000B40501200022034BC3F88425C3F80425AE
:1020A000704700BF00900350044AD2F80834DB07A1
:1020B000FBD50160BFF35F8F704700BF00900350F6
:1020C000012208B5054BC3F88425C3F80425FFF7A2
:1020D000EBFFBDE80840FFF7DDBF00BF00900350F5
:1020E00038B5094B53F82040013053F82050A54231
:1020F00000D838BD636823B1204603F0FCF90834EA
:10210000F5E723689847FAE758600000012208B510
:10211000084B03201A70FFF7E3FFFEF747FB04208C
:10212000FFF7DEFFFEF7EAFA034A137B23F0010311
:10213000137308BD1D0701208C06012008B5034854
:10214000034A0021121A03F0EEF908BD200601200F
:102150002007012008B50020FFF7C2FF164B03F54A
:10216000006282F3088883F30A880025E023134C79
:1021700084F82230E57725766576A57684F82050B8
:10218000636A43F4E023636284F82350FEF758FC4B
:10219000FEF752FD4FF0FF33A362E36203F085F9CF
:1021A0000120FFF79DFF0220FFF79AFF2B462A46EA
:1021B00029460348FEF71CFD2007012000ED00E042
:1021C0000D21000008B50648064A0749121A03F017
:1021D000ACF9BDE80840054A0549064803F0A5B931
:1021E000680501201E060120E069000000000000D3
:1021F000E06900006805012030B10268034B044823
:102200009A4208BF0020704702487047DD55AABBBC
:102210008208F0007108F00038B50D460446B0B1F0
:10222000A0220021043003F0A1F995B1082229462B
:1022300004F1640003F0A0F9082205F1200104F183
:10224000840003F099F90020034B236038BD034854
:10225000FCE70348FAE700BFDD55AABB7108F000B0
:102260008308F0002DE9F74305460E4699461146CE
:10227000FFF7C2FF0446002840F08480002E00F0E3
:102280008580002900F08480B9F1200F40F0828021
:1022900005F14404082205F10408204603F06CF916
:1022A00005F1240708223146404603F065F906F19E
:1022B00020010822384603F05FF902A941F8049D85
:1022C0004FF4807003F04CF9002865D14FF480730F
:1022D000324A0121136093600823314A00F034FB35
:1022E0000121052308462F4A00F02EFB0823424611
:1022F00001211C2000F028FB08233A46012103207D
:1023000000F022FB224608230121022000F01CFBE2
:102310000823254A01211A2000F016FB0523234A31
:1023200001211B2000F010FB0823214A0121142069
:1023300000F00AFB08231F4A0121152000F004FBCE
:10234000082305F164020121162000F0FDFA08239C
:1023500005F184020121172000F0F6FA0823164A3D
:1023600001210B2000F0F0FA00F04AFB044601982E
:1023700000F0D8FA114B002C18BF1C46A4212846A7
:1023800003F0F6F8204603B0BDE8F0830C4CF9E703
:102390000C4CF7E70C4CF5E7084CEFE79010845035
:1023A000B06000002861000070600000146100004F
:1023B000D4600000F4600000906000008408F00029
:1023C0007608F0008008F0008108F000C2690C4B2C
:1023D0001A60826943F8042C426943F8082C0269A8
:1023E00043F80C2CC26843F8102C826843F8142C74
:1023F000426843F8182C026843F81C2C704700BF51
:102400005C1684500C4B1B68C3610C4B1B688361CA
:102410000B4B1B6843610B4B1B6803610A4B1B682A
:10242000C3600A4B1B688360094B1B684360094B00
:102430001B680360704700BF5C16845058168450B8
:1024400054168450501684504C16845048168450AC
:10245000441684504016845030B10268034B04483F
:102460009A4208BF0020704702487047DD55AABB5A
:102470000202F0000002F00038B5044668B1051D04
:102480007021284603F074F828462022044903F0FE
:102490006BF80020034B236038BD0348FCE700BF06
:1024A0003C610000DD55AABB0002F0002DE9F043BD
:1024B00085B015466F46274B04460E460FCB87E87E
:1024C0000F002DB94FF00009484605B0BDE8F08374
:1024D0002046FFF7C1FF81460028F5D1231D019357
:1024E000636AA3BB236F8BB1C3F14008A84528BF23
:1024F000A84604F1300031461844424603F034F84F
:10250000236F464443442367A5EB0805226F402A06
:1025100006D104F13001384600F0B4FB00232367F4
:1025200005F03F0835F03F0505D031462A463846CC
:1025300000F0A8FB2E44B8F1000FC3D0424631464C
:1025400004F1300003F010F8C4F87080BCE7DFF845
:102550000890B9E7BC5C00000C02F0002DE9FF41D7
:1025600004466F46134B0E460FCB87E80F002046FC
:10257000FFF772FF8046B0B9CEB1636A251D0195A1
:102580003BB90123226F636204F13001384600F049
:1025900079FB2B46043E243453F8042B12BAA34291
:1025A00046F8042FF8D1404604B0BDE8F081DFF8CA
:1025B0000880F8E7BC5C00000502F000084B1B68CF
:1025C0001B0EF02B08D1074B1A68074B9A4205D116
:1025D0000020064B186070470520704706207047A2
:1025E00028198450241A84500000E0200C1A8450CA
:1025F000002230B5134640F6FC754900023802F15E
:10260000A15404F5823490424FEA840402F101029D
:10261000CABF236025605B181E2AF0D1034A1360ED
:102620000B445360024B034A1A6030BD781084504B
:102630008410845020F80F001E4B30B51A4685B028
:10264000196800910099CC07FAD500F1A15000F566
:1026500082308000016813680193019BD807FAD586
:10266000154B164C186820231F3090FBF3F0144DC7
:102670000138002810DA00230130400153B14FF037
:102680000042A0F12001134204D1013888424FEAF0
:102690005202F8D105B030BD13680393039BDB07EA
:1026A000FAD5431823602B680293029B002BE3D1D9
:1026B0000138DEE7B4108450AC108450E41084502C
:1026C000DC108450F0B51D6885B001F01F040DB911
:1026D0001F2C28D1174D2E462F680197019FFF0709
:1026E000FAD500F1A15000F582308000006835680D
:1026F0000395039DED07FAD51F2C00EB611018BF61
:10270000C9430D4D18BF01F01F0128600B48006838
:10271000029002981CBF00FA01F111604FF0000115
:1027200008BF1060196010684300C00F136005B047
:10273000F0BD00BFB4108450E4108450DC1084500D
:102740000C4B890118603F3020F03F00403058604A
:1027500099600948D9601961596199611C3382B047
:10276000196002680192019AD207FAD5196002B085
:10277000704700BF90108450B410845038B5A0F159
:102780002003B3F5426F05462CD88F2826D800F1D8
:10279000470300F16604DB064FEA541400D001340D
:1027A00064013F34A409013411B1A1421AD30C468B
:1027B0004FF48050E300B0FBF3F0202828BF202026
:1027C00002B110600122084B21461A60FFF710FF8A
:1027D00028462146FFF7B4FF002038BD00F11F0452
:1027E0006409DDE70148F8E71C1884502221F00055
:1027F000464BF0B51D4689B01C680194019CE40766
:10280000FAD5434B002413449B001A680B181E2B67
:1028100088BFC0F11E011F320B1852095343B3F594
:10282000806F84BF4FF48061B1FBF2F1274688BF0F
:10283000091ADFF8E4E000F1A150DFF8E0C000F58C
:102840008230A14233DC2B680493049BDB07FAD56A
:10285000304B1B68296805910599CF07FAD52E4C96
:102860002E49236000231E46934203F1010040D10C
:102870001946002620F0010228488A423CD82968DF
:1028800006910699CE07FAD5254909682868079068
:102890000798C007FAD5216000210C461F488B42DB
:1028A0002DD100201D499A422CD809B0F0BD2B68CB
:1028B0000293029BDB07FAD503199B001B682E6865
:1028C0000396039EF607FAD5CEF800300023934214
:1028D00003F1010306D1164623F00103B34204D8E5
:1028E0000134AEE7CCF80070F1E7CCF800700136A7
:1028F000F4E70E600346B7E706600131BDE7046008
:102900000131CCE708600133CDE700BFB41084503B
:10291000240421147C108450D4108450D810845086
:102920007810845008B540B1202801464FF00702C6
:1029300028BF20210020FFF75BFF0022014B1A6017
:1029400008BD00BF1C188450F0B5294D85B02C4639
:102950002E680096009EF607FAD500F1A15000F50A
:10296000823080000568206801900198C707FAD579
:102970002048214F056002EB8306B24229D100278F
:102980005A1C1D4E22F001029A4227D82368029356
:10299000029BDE07FAD5194B0B449B001B681F33C3
:1029A0005B099A4213D2216803910399C907FAD5AA
:1029B00000211544056008469B1A0F4A8B4210D827
:1029C00000205A1C0C4922F001029A420CD805B092
:1029D000F0BD52F804CBC7F800C0CEE73760013332
:1029E000D2E710600131E9E708600133EDE700BF8D
:1029F000B4108450D4108450D8108450240421146E
:102A00002DE9F041814BA0B01D68986820331E4627
:102A10001A680192019AD707FAD57D4B7D4A1A6050
:102A200032680292029AD407FAD57B4A1A607B4A2E
:102A30001446116803910399C907FAD5784A1168B9
:102A4000C1F3402137680497049FFF07FAD5754FFB
:102A50001F6027680597059FFF07FAD517680029AB
:102A600000F0CF80B90540F1CC803168069106991D
:102A7000CF07FAD56C491960216807910799C907F2
:102A8000FAD51168C1F3402137680897089FFF07FE
:102A9000FAD5664F1F6027680997099FFF07FAD587
:102AA0001268002900F0AF80910540F1AC803268D7
:102AB0000A920A9AD207FAD5564A1A6032680B92DD
:102AC0000B9AD707FAD55A4A1A6031680C910C99BB
:102AD000CC07FAD55749196031680D910D99C9078E
:102AE000FAD55549196031680E910E99CF07FAD57C
:102AF0005249196031680F910F99CC07FAD55049A6
:102B00001960504B1E46196810911099C907FAD5E3
:102B10003F4C4D4B236033681193119BDB07FAD573
:102B20004A4B236033681293129BDF07FAD5484B58
:102B300023603A4B9846196813911399C907FAD53F
:102B4000324F386033681493149BDB07FAD5226048
:102B500033681593159BD807FAD53E4B236033682D
:102B60001693169BD907FAD53B4B2360336817930E
:102B7000179BDA07FAD5394B236033681893189BF3
:102B8000DB07FAD5364B236033681993199BD807B6
:102B9000FAD5344B236033681A931A9BD907FAD5B8
:102BA000314B236033681B931B9BDA07FAD52F4BFD
:102BB000236000F01DFC08BBD8F800301C931C9B60
:102BC000DB07F9D53D6033681D931D9BD907FAD506
:102BD000274B236033681E931E9BDA07FAD5254BDB
:102BE0002360D8F800301F931F9BDB07F9D50C4BEF
:102BF0001B6813F4805F204B08BF184620B0BDE867
:102C0000F0811E48FAE71E48F8E700BF9010845094
:102C10008010845000100251C01F7229B4108450DB
:102C200088108450C0CF0129C01F0E29C03F002941
:102C300040010249003184A800001649400108A162
:102C400080440888B0108450C044708880077A415E
:102C5000C0077E4100006A498006164940006E495F
:102C60000002002100822021408220218082242134
:102C700040A161A100C861510308F1000108F10001
:102C80000208F100324B2DE9F74F804692469946F3
:102C900044681A68002AFCD12E4B9B461A68002A09
:102CA000FCD14FF0FF30019100F094FC802000F047
:102CB00097FC01230720284A284DA2F59E722B601D
:102CC000C2F83C011360636A254F264E3B60A36A3D
:102CD00020463360D8F8003042F8043CD8F8083079
:102CE00098470199D9F80030002BFBD1BAF1000FB9
:102CF00020D104221C4B1A60D9F80030002BFBD1E4
:102D0000DBF800A0BAF1000FFAD1D8F80C30204659
:102D100098473B6863623368A362144BC3F800A012
:102D2000C3F844A1D9F80030002BFBD12B6003B0CD
:102D3000BDE8F08F236A4020012B04BF0B4A1360CB
:102D40000B4B1960C3F804A000F050FCD4E700BF9F
:102D500010198450201C8450001984501818845075
:102D6000CC178450D0178450C817845084168450D0
:102D7000281C8450544B10B5194698B01A6801921B
:102D8000019AD207FAD5514B514A1A600A68029249
:102D9000029AD407FAD54F4A1A600A680392039A36
:102DA000D007FAD54C4818600A680492049AD207F2
:102DB000FAD54A4A1A600A680592059AD407FAD5E4
:102DC000474A1A600A680692069AD207FAD5454A17
:102DD0001A600A680792079AD407FAD5424A1A601D
:102DE0000A680892089AD207FAD5404A1A600A6817
:102DF0000992099AD407FAD53D4A1A600A680A92DC
:102E00000A9AD207FAD53B4A1A600A680B920B9AC3
:102E1000D407FAD5384A1A600A680C920C9AD2077D
:102E2000FAD5364A1A600A680D920D9AD407FAD577
:102E3000334A1A600A680E920E9AD207FAD5314ABE
:102E40001A600A680F920F9AD407FAD52E4A1A60B0
:102E50000A681092109AD207FAD52C4A1A601A4BB7
:102E600019461C681194119CE407FAD5174B186099
:102E7000086812901298C407FAD51A600A6813926B
:102E8000139AD007FAD5124A1A600A681492149A53
:102E9000D207FAD51E4A1A600A681592159AD40705
:102EA000FAD51C4A1A600A681692169AD007FAD503
:102EB000194A1A600A681792179AD207FAD5174A60
:102EC0001A6018B010BD00BFB0108450801084503C
:102ED0000093652100043190409665900083612144
:102EE00000C3302100C3649000816190004610212E
:102EF000008111210041442100C320290C4610C843
:102F00000086312100C3602140C1282940966521F7
:102F10000013319040962529594614C8400432497F
:102F2000494B10B5194694B01A680092009AD2071E
:102F3000FAD5464B464A1A600A680192019AD407AC
:102F4000FAD5444A1A600A680292029AD007FAD562
:102F5000414818600A680392039AD207FAD53F4A9B
:102F60001A600A680492049AD407FAD53C4A1A6097
:102F70000A680592059AD207FAD53A4A1A600A6891
:102F80000692069AD407FAD5374A1A600A68079259
:102F9000079AD207FAD5354A1A600A680892089A41
:102FA000D407FAD5324A1A600A680992099AD207F8
:102FB000FAD5304A1A600A680A920A9AD407FAD5F2
:102FC0002D4A1A600A680B920B9AD207FAD52B4A3F
:102FD0001A600A680C920C9AD407FAD5284A1A602B
:102FE0000A680D920D9AD207FAD5264A1A600A6825
:102FF0000E920E9AD407FAD5234A1A600A680F92E5
:103000000F9AD207FAD5214A1A600F4B19461C684D
:103010001094109CE407FAD50C4B186008681190C6
:103020001198C407FAD51A600A681292129AD0074A
:10303000FAD5174A1A600A681392139AD207FAD57A
:10304000144A1A6014B010BDB0108450801084501F
:1030500080906521000409904096659080806121F0
:10306000802008218020649000816190004610211A
:10307000008111210041442180202029024610C8EE
:103080000086092180206021402128294096652161
:1030900040962529594614C8504B10B51C4696B089
:1030A0001A680192019AD207FAD54D4B4D4A1A601F
:1030B00022680292029AD207FAD54B4A1A604B4A0A
:1030C00042EA804022680392039AD207FAD5186038
:1030D00022680492049AD007FAD5454A1A60A2F5EC
:1030E000800242EA814122680592059AD207FAD508
:1030F000196022680692069AD007FAD53D4A1A60EE
:1031000022680792079AD107FAD53B4A1A602268CB
:103110000892089AD207FAD5384A1A6022680992AA
:10312000099AD007FAD5364A1A6022680A920A9A92
:10313000D107FAD5334A1A6022680B920B9AD2074C
:10314000FAD5314A1A6022680C920C9AD007FAD547
:103150002E4A1A6022680D920D9AD107FAD52C4A90
:103160001A6022680E920E9AD207FAD5294A1A607E
:1031700022680F920F9AD007FAD5274A1A60216861
:1031800010911099C907FAD51A60144B1A4619689C
:1031900011911199C807FAD5114B2049196011688E
:1031A00012911299C907FAD51D4919601168139136
:1031B0001399CC07FAD50B49196011681491149929
:1031C000C807FAD517491960116815911599C907EB
:1031D000FAD5154A1A6016B010BD00BFB010845061
:1031E000801084504004419000862929D81001C8DD
:1031F000401441904014212940146521003440902E
:1032000000310C90C0400C90C030202940960D90A9
:1032100000416090031645C80086112100416021DD
:10322000594644C84014459040142D90264870B526
:10323000054688B004680094009CE607FAD5234C44
:1032400023480460234C44EA83432C680194019C86
:10325000E407FAD50360930143EA824242F0104446
:1032600044F4C0442B680293029BDE07FAD5046045
:103270002B680393039BDB07FAD5174B03608B0185
:1032800043EA814141F0104343F4C0432E68049661
:10329000049EF607FAD503602B680593059BDE07AD
:1032A000FAD5046041F058412B680693069BDC0771
:1032B000FAD5016042F058422B680793079BDB0761
:1032C000FAD5026008B070BDB0108450C021022948
:1032D000801084508071009880611890354B8EB0BA
:1032E00019461A680092009AD207FAD5324B334A2F
:1032F0001A600A680192019AD007FAD5304A1A601A
:103300000A680292029AD207FAD52E4A1A600A680F
:103310000392039AD007FAD52B4A1A600A680492DE
:10332000049AD207FAD5294A1A600A680592059AC2
:10333000D007FAD5264A1A600A680692069AD2077A
:10334000FAD5244A1A600A680792079AD007FAD574
:10335000214A1A600A680892089AD207FAD51F4AC9
:103360001A600A680992099AD007FAD51C4A1A60AD
:103370000A680A920A9AD207FAD51A4A1A600868A5
:103380000B900B98C007FAD51A600A680C920C9A39
:10339000D007FAD5144A1A600A680D920D9AD2071E
:1033A000FAD5124A0E211A6000200D230F220EB00A
:1033B000FFF73CBFB0108450801084508043012937
:1033C00040633921807001298020542100D134903C
:1033D000C0403490C0302029C0530D900041389037
:1033E000832308C880E3102100413821CF4308C857
:1033F00001232DE9F04192B0CDE90333624B1D4624
:103400001A680592059AD207FAD5604B604C236082
:10341000604B19461A680692069AD707FAD55E4B92
:103420001A68D60400F1A8802A680792079AD00784
:10343000FAD55A4A22600A680892089AD207FAD541
:103440001E68C6F30036002E40F098801220FFF769
:10345000F3F807461320FFF7EFF887428CBF1220DE
:103460001320FFF7E9F8471EFFF738FF03AB01AA67
:1034700039461220FFF726F904AB804602AA3946E6
:103480001320FFF71FF900EB4800022832D0032871
:103490003ED0012874D12B680993099BDB07FAD52C
:1034A0003F4B23602B680A930A9BD807FAD53D4B04
:1034B00023602B680F930F9BD907FAD53A4B2360F3
:1034C0002B681093109BDA07FAD5384B23602B68D2
:1034D0001193119BDB07FAD5354B2360013F25D5AE
:1034E0001023192218210020FFF7A0FE304612B049
:1034F000BDE8F0812B680B930B9BD907FAD52D4BB8
:1035000023602B680C930C9BDA07FAD52A4BCFE784
:103510002B680D930D9BDB07FAD5284B23602B6896
:103520000E930E9BD807FAD5254BC1E703AB01AA32
:1035300039461220FFF7C6F804AB044602AA394602
:103540001320FFF7BFF810EB440402D1FFF712FC81
:10355000C4E7FFF7E5FC022C08D0032C09D0012CAE
:1035600010D117211620FFF797FDB7E7152114207A
:10357000F9E70F210E20F6E7124EB7E7124EB5E736
:10358000124EB3E7124EB1E7B010845000084A5112
:1035900080108450B41084508810845000084E511C
:1035A00000065A4940065E4900044241001442495F
:1035B00040042E49000652494006564900063A4941
:1035C00040063E490608F1000708F1000408F10032
:1035D0000508F100014B1860704700BF081A8450BD
:1035E000014B1860704700BF041A8450034A1368E7
:1035F0001842FCD0024A106018467047001A8450E6
:10360000081A845010B50A4C23681BB101232360AB
:10361000002010BD00F046F80028F7D00138062839
:1036200003D8044B53F8200010BD034810BD00BF61
:10363000000701205C610000FE8FFFFFBFF34F8F8A
:103640000549064BCA6802F4E0621343CB60BFF33E
:103650004F8F00BFFDE700BF00ED00E00400FA055A
:1036600030B44FF0FE320025074B084C084949683A
:10367000C3F80024C3F80424C3F80824C3F80C24B6
:10368000C4F8005530BC0847001084500000845036
:10369000B8050120024BD0E90012C3E900127047BF
:1036A000B805012038B500F02FF820B1032400F050
:1036B00063F8204638BD00F031F898B900F0ACF856
:1036C00098B90F4DD5F828391B0EF02B08D1D5F835
:1036D000242A0C4B9A420AD0072400F017F8E6E798
:1036E0000624FAE70424204638BD0024F5E701202B
:1036F00000F092F804460028F7D1C5F80C0AD8E784
:10370000001084500000E020002070470020704727
:10371000014BC3F8040A70470010845010B51148DB
:1037200000F048F800B110BD0F4800F043F8002841
:10373000F9D10E4C204600F03DF80028F3D10C4B97
:103740000C481C6000F036F801460028EBD100F070
:103750002DF8044608B1204610BD00F03FF8204681
:10376000FAE700BFD0050120CC050120C8050120E3
:10377000C0050120C405012008B5084800F024F860
:10378000074800F021F8074800F01EF8064800F04E
:103790001BF8BDE8084000F00BB800BFD0050120C1
:1037A000CC050120C8050120C40501200020704778
:1037B000704700BF08B5034B02681B681068984744
:1037C000002008BDE805012008B5034B02685B68CE
:1037D00010689847002008BDE805012070B5094C25
:1037E000094D2069AB68984718B1084B08485B68D9
:1037F00098470021074AEB6811602069BDE87040D6
:10380000184700BFD4050120E8050120B8050120B4
:103810007861000004070120F8B51A4D1A4E0446DD
:10382000B26828699047E8B9184F3B684CB1A3B11A
:10383000012B19D0013B3B602869F36898470020B1
:10384000F8BD43B90121124AC2F800151149D1F857
:103850001029002AFBD101333B60F368286998479F
:103860000020F8BD0C48F8BD0A4AD2F81039002BE8
:10387000FBD1074A6FF07E40C2F80035FFF748FFE2
:103880003B68D7E7D4050120E805012004070120A3
:103890000000845000108450E98FFFFF10B50446EB
:1038A00050B1636813F0685F05D0064A934202D0B6
:1038B00000236260236010BD034B04485B68984797
:1038C000EFE700BF2C5F5CA9B805012098610000FC
:1038D000C8B143680D4A934213D013F0685F0ED00D
:1038E000012350E8002F194640E8001C9CF0000F0F
:1038F000F7D1012AF5D0BFF35F8F0020704704484D
:103900007047044870476FF4E04070472C5F5CA933
:10391000E98FFFFFEA8FFFFF034680B14268094944
:103920008A420AD012F0685F05D0BFF35F8F002291
:1039300010461A60704704487047044870476FF497
:10394000E04070472C5F5CA9E98FFFFFEA8FFFFF23
:1039500010B5044620B10023034A2360626010BD05
:103960000248FFF77DFEF6E73A00003AC06100002A
:103970002DE9F04101260746B24201DCBDE8F081A5
:103980003B461F4613F8014B002CF7D0252CF8D1ED
:103990001C780237252CF3D00023DFF804819C46E5
:1039A0001D461F2D18D8A4F1200EBEF1100F09D905
:1039B000A4F1300EBEF1090F1ED80A24202504FB05
:1039C00003E304E028FA0EFE1EF0010F06D017F8FC
:1039D000014B002CE5D128E07F2D1CD8A4F1300E3E
:1039E000BEF1090FE9D9242C10D1BCF1000F46D04B
:1039F000B34246D00023EAE724F0040EBEF12A0FBA
:103A0000F8D06C2C09D145F08005E0E724F0040ED5
:103A1000BEF12A0FEED06C2C22D06C2C1BD8682C57
:103A200023D06A2C28D04C2C26D0BCF1000FA5D076
:103A3000B445A1D144F020070B68A7F1650CBCF197
:103A4000020F01D9612F1ED1073323F0070308337A
:103A500001360B608FE7742CB9D07A2CB7D0E4E72D
:103A60002C0648BF45F40075CDE7EC0548BF45F48A
:103A7000007545F48075AAE745F42075A7E79C46D4
:103A8000B8E76324D6E7692C02D007D8632C03D0AB
:103A90002F0601D5AC05D7D40433D9E7732CF6E74C
:103AA000892801002DE9F04F436893B080460193C7
:103AB00083789807CDE9061216D50B4600250B92A0
:103AC0001F789FB1252F15D0013305934146384605
:103AD000019B01359847002880F2458498F8023010
:103AE00043F0040388F802304FF0FF35284613B046
:103AF000BDE8F08F5F789A1C252F0592E6D0002450
:103B00002646A246A346BBF11F0F32D8A7F12003D9
:103B1000102B0AD8DFE803F02409092A0909091B38
:103B200009090922092709091900A7F13003092BFE
:103B30002DD92A2F39D154B90B9B1BF0400F53F8C4
:103B4000042B0B9329D0164601E04BF0010B059B8B
:103B500013F8017B0593002FD5D15BE04BF0020BEE
:103B60004BF0040BF3E74BF0080BF0E74BF0100BB6
:103B7000EDE7BBF17F0F3FD8A7F13003092BD8D871
:103B80001BF0400F03D00A2202FB0636DFE70A22B1
:103B900002FB0A3A4BF0200BD9E7B2F1000AF9DA3E
:103BA000CAF1000A4BF0280BD1E72E2F05D11BF0EC
:103BB000400F9BD14BF0400BC9E7242F1CD1002CA8
:103BC00000F03F81079B1BF0400F0B930AD1524638
:103BD0000BA90698FFF7CCFE0B9B1A1DD3F800A08B
:103BE0000B92B4E732460BA90698FFF7C1FE0B9B78
:103BF0001A1D1E680B92AAE76C2F00F00F8100F2CD
:103C00000681682F00F012816A2F00F017814C2F77
:103C100000F0148134B1079B22460BA906980B9340
:103C2000FFF7A6FE002E47F02003B8BF2BF0400B95
:103C30000293A3F16503BCBF00261FFA8BFB022B86
:103C400040F20481029B612B40F07282FF431BF023
:103C5000400F0CA84BF4C05407F0200314BF3146AA
:103C60004FF0FF31A346049301270B9B073323F04A
:103C7000070303F1080293ED000B0B92049A01F085
:103C8000F1FD431C0646DDF83090DBB20393702350
:103C9000029309F10903122B0CD909F16303C62B16
:103CA00040F20D8109F2E73340F2CE72934294BFA5
:103CB000032704279DF8342002F00C0312F00102C0
:103CC00040F018811BF0020F40F011811BF004043A
:103CD00000F0F780002B40F0108120231BF4405FA0
:103CE00022D1039A002E02F1480208BF01266A443D
:103CF000133A039921B112F8011D302900F03281E5
:103D00001BF0100F039A18BF324619F1040FC0F2CE
:103D10002E81B14580F22B814A454BF4005B40F384
:103D2000288109F10106961B1BF40052089200F04D
:103D3000228129EAE974013403B10134002E00F034
:103D40002181721C1444A245CCBFAAEB04040024B8
:103D50001BF0090F04D12C44A54240F01881002427
:103D60003BB118464146019B013598470028FFF6B4
:103D7000B5AE1BF4006F12D041463020019B98472E
:103D80000028FFF6ABAE049B41460235C3F1780034
:103D9000019B00F0F80098470028FFF69FAE1BF04B
:103DA000080F05D12C44AC4240F0FD80254600248C
:103DB000089B002B00F0268129EAE97A7642A9EBDC
:103DC0000A02039B0AF1FF3A6F1C0292934289BFD9
:103DD0000CAB3020D3185879564500F3ED8041469E
:103DE000019B9847029A002802F10102FFF676AE85
:103DF000BAF1FF3F09D141462E20019B029298471C
:103E00000028FFF66BAEAF1C029A3D46D9E7742F2F
:103E10003FF49DAE7A2F3FF49AAEFBE61BF0800F85
:103E200018BF4BF4007B4BF0800B90E61BF4807FB7
:103E300018BF4BF4007B4BF4807B88E64BF4207B6F
:103E400085E626465446B346B24680E6FF431BF05D
:103E5000400F07F0200308BF062604930B9B07338F
:103E600023F0070303F1080293ED000B029B0B9272
:103E7000652B12D1711C00224BF4805BC9B2134632
:103E800011290CA84FF0020728BF112100F008FBF0
:103E9000DDF83090C3B20393FBE6029B662B05D19D
:103EA0004BF4005B334601221121E9E7F1B2002215
:103EB000652001291346029038BF0121E0E702275F
:103EC000F8E6002B3FF40AAFBAF1030F39DC9DF896
:103ED0003430A44E13F0080FA34B08BF1E46B14662
:103EE0004F4619F8010BA0BBAE1B374485E023BB3E
:103EF0002B23F3E61BBB2D23F0E62022BAF1040F9F
:103F000012DD1BF0080FAAF104040ED12C44414627
:103F10002020019B0135029298470028FFF6DEAD74
:103F2000A542029AF3D192B1002441461046019B6A
:103F3000013598470028CADAD0E52B22DEE72D228A
:103F4000DCE71BF0080FAAF10304C0D1DEE714463A
:103F5000BDE7049B4146C01A019BC0B298470028A8
:103F6000BEDABBE503990139C9B20391C1E6561E19
:103F7000DAE60026D8E61BF4006F0CBF0324052404
:103F80003C44D9E61BF0100F18BF0134DBE609935F
:103F90004146019B20209847002805F10105099B17
:103FA000BFF6DAAE9AE541463020019B01359847CD
:103FB0000028BFF6F8AE91E5D1450AD19DF835301D
:103FC000352B1DD805D19DF8343013F0100F08BFE4
:103FD00031204146019B98470028FFF67FAD1BF03A
:103FE000100F0AD0BAF1FF3F07D1AF1C41462E2077
:103FF000019B98470028FFF671AD3D463C4436E2F0
:104000003120E6E79DF83500414631281EBF9DF876
:10401000343023F010038DF83430019B984700288A
:10402000FFF65CAD002E68DD41462E20019B9847CF
:104030000028FFF653AD4FF0010A039B4146D346DB
:104040009A45B7BF0CAB302053445879019B984731
:104050000028FFF643AD0AF1010A5645EDDA0235B4
:104060005D44029B4146049A981A019BC0B298474E
:104070000028FFF633ADB9F1000F04DB4AD19DF8FB
:104080003430DB0646D5C9F100092D204146019B9D
:1040900098470028FFF622AD042F3DD14FF47A77E0
:1040A0004146019B033599FBF7F606F13000C0B29B
:1040B00098470028FFF612AD07FB16996427414682
:1040C000019B013599FBF7F606F13000C0B2984725
:1040D0000028FFF603AD07FB16990A274146019B0E
:1040E000013599FBF7F606F13000C0B29847002879
:1040F000FFF6F4AC07FB169914E01BF0100F01D18A
:104100000135AEE741462E20019B02359847002835
:10411000A7DAE3E42B20B9E7032F05F10205CDD0A0
:10412000012FDAD109F130006F1C4146C0B25FE7C0
:10413000A7F16303122B00F2FF80DFE813F01700F2
:104140005700FD00FD00FD00FD005700FD00FD00D3
:10415000FD00FD00FD001701F800FD00FD002C0032
:10416000FD00B900C6690000C26900000B9B012474
:104170000CAF1A1D1B680B928DF830301BF0080F26
:104180002AD007EB04093E464E4527D1EF1B3744A2
:10419000AAEB040431E70B9B1A1D0B921F68AA4B74
:1041A000002F08BF1F461BF0400F384614BF314692
:1041B0004FF0FF3101F0FDF90446DFE741462020D2
:1041C000019B98470028FFF689AC013EB442F5D325
:1041D0005544B246AD1BD4E75646F7E7414616F8BC
:1041E000010B019B98470028CEDA77E41BF0800F83
:1041F0000B9B35D01BF4007F2DD0073323F0070332
:1042000003F10802D3E900010B922BF010090029F9
:104210001FFA89F936DA404249F4806961EB4101BD
:104220000DF1300B0A235A4601F0CFF919F0400F77
:10423000A0EB0B0B65D029F001025E4592B240F372
:10424000B280002F00F0A98019F010033446914687
:1042500026D002345CE01A1D18680B92C117D4E70F
:104260001A1D1BF4807F19680B9201D10846F5E7EF
:104270001BF4007F19BF48B241F3C01108B241F3EB
:10428000C031C2E750EA0103CAD11BF0400FC7D0CA
:10429000002EC5D12BF0110B34461FFA8BF9B34613
:1042A00040F2064319EA03031CBF013400232FE048
:1042B0002BF0100B0A231FFA8BFB1BF080040B9AC8
:1042C00057D01BF4007115BF0732101D22F00702F2
:1042D0000B900FBF106802F108010B91D2E90001A9
:1042E00050EA010252D12BF016091BF0400F1FFAC1
:1042F00089F94FD0002E4DD12BF0170B1FFA8BF9F7
:10430000B34619F0100352D0002F4ED10BF1010427
:1043100019F0080F5ED119F0010F06D0A2456DDD2E
:10432000AAEB040404EB0B06544622464DE04BF086
:10433000100B10237827C0E7029B782B04D1C7F11C
:10434000780343F01003B8E741462520019B9847C6
:104350000028FFF6C3AB41463846019B984700282A
:10436000FFF6BCAB0235059BFFF7AABB082300276D
:10437000A3E7111D10680B911BF48071B0D01BF4E2
:1043800000711ABFC0B2214680B2A9E72BF0060B1C
:104390001FFA8BF90DF1300B45E729F0110934466E
:1043A0001FFA89F97CE79146ABE75C4651E75C462A
:1043B00076E7CDE9022341462020019B984700285B
:1043C000FFF68CAB029A039B01329245F1DC2C1B69
:1043D000A5181446EBB141463020019B98470028B0
:1043E000FFF67CAB67B901352F462E44F31B5B45C6
:1043F00021DC5D460CAE4DBB5F44C9E65E4694E7EA
:10440000023541463846019B98470028ECDAFFF711
:1044100065BB40F2064319EA030FE5D019F0020F1D
:1044200005F10105414614BF2B20202019F4806FAF
:1044300018BF2D20E7E741463020019B0137984700
:104440000028D3DAFFF74ABBCA690000013D4146A4
:10445000019B705D98470028CDDAFFF73FBB4146CE
:104460002020019B013598470028FFF637AB631BDE
:10447000002BF4DC77E700BF1FB502AB074A0093BF
:104480004FF0CC3301F085F9DDE90201C00840EAC4
:104490004170C90805B05DF804FB00BFCDCCCCCCA1
:1044A0002DE9F04F9DB055EC104BCDE90B122A468B
:1044B000290D0D93C5F31303D20FC5F30A550790C9
:1044C0008DED050A0A9275B922461A431BD1302395
:1044D0000126056043710A9B43F0020303713046D5
:1044E0001DB0BDE8F08F40F2FF7295424DD1059AA4
:1044F000002613430A9B079A14BF43F0080343F0B6
:1045000004031371EBE7059A4FEA83089A46B14D0D
:1045100002F001020992059A48EA92789700012276
:104520001646C5F1000B0892584600F017FAB5F18F
:10453000FF3FACBF8146A0F10109ABEB090B09EBD2
:1045400005035846069300F00FFA18A9A0F17D055F
:10455000584600F029FA14AB089AA9EB0505019317
:1045600012AB02925146009318AA2B46059801F00F
:1045700053F8B9F1010F04460D4600F2D880099BAB
:10458000002B40F0CB8001276FE0059A43F4801A9E
:10459000A5F2354502F001024FEA8A080992059A10
:1045A000134348EA92784FEA82074BD140F2FE73F8
:1045B00019420CBF01260026002D3246B1DB2846E9
:1045C00000F0C6F90346032DC8BF013B1846069309
:1045D00000F0CAF9069B7C3018A95D1B05441846FB
:1045E00000F054FA14AB18AA0598019312AB514687
:1045F000029600932B4601F00FF8069B04460D46E9
:10460000152B00F2888016AB734A3846414600935A
:104610004FF0CC3301F0BDF8169B179A9B0843EA84
:10462000827303EB8303BB42DDE9129A0CD1384657
:10463000414600F0A1F9069B83428CBF0027012769
:10464000002612E00126B7E7099B002B53D1013F5A
:1046500048F1FF31B81B61F1000100F08DF9069BB4
:10466000099F83428CBF002601260C9B002B40F043
:104670009280DDF82CB04FF000084FF00A0ACDF818
:104680002080CDF81480DDE91201FFF7F5FE149BC0
:10469000CDE90E01184615991093FFF7EDFE0E9B1C
:1046A00081460F9A98420B461191934180F08D807C
:1046B00020462946FFF7E0FE0AFB09F3109AB8F1FD
:1046C000000F14BF002707F001070AFB10480D4632
:1046D000934214BF002606F001060E9B5FFA88F88D
:1046E000044612930F9BCDE91339119B1593089B38
:1046F00001330893C7E7B81C48F1000100F03CF90A
:10470000069B83428CBF00200120B9EB00006AF1B8
:104710000002CDE9120200273E46A6E7129B0127C0
:10472000139A013B42F1FF32CDE9123288E7B9F129
:104730003E0FF0D84FF0FF33A9F12000C9F120015E
:1047400003FA09F203FA00F023FA01F103FA09F37C
:10475000024327EA03070A4328EA020857EA080740
:104760000CBF012700276BE700FB02FC0133A1FB14
:10477000001262448C4275EB020CF5D2069A134487
:104780000D9A13440B9A012BB8BF01239A42A8BF7C
:104790001A4693466FE70A21002201230846E9E7FB
:1047A0000AFB03F00131A2FB0A230344944275EB98
:1047B0000300F5D2594511DDBBF1000F02D154EAD7
:1047C00005030BD00123059372E70A220023012180
:1047D000ECE700BFCCFBFFFFCDCCCCCC7EB34FF0E1
:1047E0000A0A149B159918460F93FFF745FE0F9B75
:1047F0000AFB00F281460E919A4220D1B8F1000FD7
:1048000014BF002707F00107DDE91201FFF734FEAE
:1048100010900F9120462946FFF72EFE0F9B0AFBB2
:104820001048109A04460D465FFA88F81292CDE9B6
:1048300013390E9B1593089B01330893D1E7069B10
:10484000089A13449946002F5BD0B8F1050F58D150
:1048500014F001034BD1059A32B9DDE914239D42CE
:1048600008BF944260D0059B18194FF00A044FF01E
:1048700000024FF0010645F100012546A04271EB10
:10488000020754D2EBB1B3451BDA0C9B63B106EBC4
:1048900009030D9A1A4422EAE2730B9A9A42A8BFBE
:1048A0001A46964293460CDD053009F1010906F1DE
:1048B000FF364FF00A024FF0000341F10001FBF711
:1048C00015FD5E450FFA89F9079BA8BF5E4636B213
:1048D000B14406F1050809F1FF3798444FF000098B
:1048E000B1452BDB079B0A9A1F601A71F7E5059B00
:1048F0002BB9DDE914239D4208BF944209D001235E
:10490000B2E7059B53B9DDE914239D4208BF9442E9
:1049100004D1099B002BF2D1002EF0D0B8F1040F86
:1049200094BF002301239FE74FF00408F1E705FB44
:1049300002F70136A4FB05423A449FE70A2200230E
:10494000FBF7D4FC303209F1010908F8012DC7E763
:10495000014B5843800C704741340100014B5843D0
:10496000000D7047FB2E0B00024B5843C00C01306A
:10497000704700BF4F93120070B50346094A0020EC
:104980004FF0CC364FF0333506FB03F402FB014405
:10499000A3FB023121449D4275EB010401D3013098
:1049A000F2E770BDCDCCCCCC1A232DE9F04FB0FB93
:1049B000F3FA334E03FB1A0389B004460D4606EBA7
:1049C0000A1653B9D6E90023C1E90023D6E902014A
:1049D000C5E9020109B0BDE8F08F2A4A02EBC30322
:1049E000D3E9008904AB404649460093D6E9022347
:1049F00000F0CFFE06AB83460F4640464946009383
:104A0000D6E9002300F0C5FE00238146DDE90662F9
:104A100016EB0B0652EB070828BF012333B1049BAA
:104A2000059A013342F10002CDE904322046039198
:104A3000FFF79AFF07461A2000FB0AF0FFF794FFE2
:104A40003F1A3246434648460399009700F0BCFEA1
:104A50000D4A4FEA141C640004F01E0352F82C4067
:104A6000DC4004F003042418304641F10001DDE984
:104A70000423C5E900414146009700F0A5FEA7E7E1
:104A8000A85D0000D85C0000E46100002DE9F04F53
:104A90001A2700F11905DFF8E8A089B004460E4690
:104AA000B5FBF7F56F434FEA051B0AEB05153A1AFC
:104AB0000AD1D5E90023C1E90023D5E90201C6E9FD
:104AC000020109B0BDE8F08F2B4B03EBC203D3E921
:104AD000008904AB404649460093D5E9022300F023
:104AE00058FE5AF80B206B68013ACDE9020106A97D
:104AF00063F1000340460091494600F04AFE8A46B1
:104B0000029900238146DDE906526D18039952EBA4
:104B1000010828BF012333B1049B059A013342F1F8
:104B20000002CDE904323846FFF71EFF0746204653
:104B3000FFF71AFF3F1A2A46434648465146009758
:104B400000F042FE0D4A4FEA141C640004F01E03FC
:104B500052F82C40DC4004F00304013424182846A9
:104B600041F10001DDE90423C6E900414146009717
:104B700000F02AFEA3E700BFD85C00003862000006
:104B8000785E00007047836800EBC101B3F5004F09
:104B90002CBF51F8220031F81200704700EBC10120
:104BA0008068B0F5004F2CBF41F8223021F8123058
:104BB0007047012208B5FFF7E6FFD04008BD8368C3
:104BC00000EBC101B3F5004F08D34B681AB143F0B5
:104BD00001034B60704723F00103FAE74B881AB1D9
:104BE00043F001034B80704723F00103FAE75300C1
:104BF0000122FFF7D3BFB0F5004F34BF04230823D1
:104C0000481C0833A0EBD300B0FA80F0C0F11F00BD
:104C100070472DE9F0410D4686680446FFF7C9FF4D
:104C2000B6F5004F014601D3012832D03046FFF7D8
:104C3000E2FF04EB80010E6996B90122E36882402D
:104C40001343E36002220D612B4629462046FFF7FD
:104C5000A5FF032229462046BDE8F041FFF79EBF8D
:104C6000022231462046FFF78EFF074603462946BB
:104C70002046FFF793FF0322334629462046FFF7DD
:104C80008DFF39462B462046FFF788FF022231462A
:104C9000E1E7BDE8F081B2F5802F2CBF08230423A3
:104CA0002DE9F0410026D21A8C18CD1D25F00705FC
:104CB00024F00704641BE408056021462046AC602C
:104CC000EE60FFF798FF421D9200013002F10707E6
:104CD0004FEAD7073146A2F1100205F11000B8BF24
:104CE000324600F0B7FD3A4631462846FFF77FFFCF
:104CF0003346324631462846FFF750FFA4EB0708FB
:104D0000284631460122FFF75AFF42463946FFF74F
:104D10006EFF3B46324639462846FFF73FFF2146A5
:104D20002846FFF764FF4346324621462846FFF7F0
:104D300035FF214628460122FFF741FF3946BDE8ED
:104D4000F041FFF766BF002070470FB407B504A914
:104D500051F8040B0191FBF70BFD03B05DF804EB78
:104D600004B0704738B50C46054658B151B10B68D0
:104D700043B14B6833B11C22002100F06BFD0020D1
:104D80002C6138BD6FF01500FBE77047FEE77047F8
:104D9000012801D1EFF3058300F09EBB01460068B6
:104DA000FFF7F6BF08B5FBF715FDBDE8084000F0BA
:104DB00000B8704700210120FFF7EABF61B662B674
:104DC00080F31188BFF36F8F7047EFF311802023BA
:104DD00083F31288BFF36F8F704708B5FBF750FF5E
:104DE000002008BD0C220369C9B201FB0233186C14
:104DF00000F00700704770B5C9B20369EFF3118581
:104E0000202484F31288BFF36F8F0C2606FB013435
:104E1000246C14F0C00408D0A24206D085F3118897
:104E2000BFF36F8F4FF0FF3070BD012206FB0133DF
:104E30001A6485F31188BFF36F8F436803EBC103D6
:104E40005B6898470020EFE78022FFF7D4BFF8B5F2
:104E5000069F0469C9B2EFF31186202585F31288F5
:104E6000BFF36F8F0C2505FB0144256C05F0070C83
:104E7000BCF1010F0CD1276486F31188BFF36F8F4B
:104E8000C4E90E23436853F8313098470020F8BD39
:104E900005F0C005AF4286F31188BFF36F8F0CBFDA
:104EA0006FF077004FF0FF30F1E713B580240094E6
:104EB000FFF7CDFF02B010BD6FF08500704710B452
:104EC0001C240069CBB203FB040000215DF8044BF5
:104ED00010470020FDF74EB8002000F0BABA30B5F8
:104EE00043681360057A446804EBC504A34202D307
:104EF0006FF0010030BD5C798C4201D00833F0E7DF
:104F00000020F7E743681B68D3F88004C3F88004E7
:104F10007047436802691B68D3F8100150B1002044
:104F2000526912780A70C3F81001D3F810210122D7
:104F30001A6070474FF0FF30704702680346D2F89E
:104F4000580140B95B689B0706D4D2F820010038AD
:104F500018BF012070470120704742681368D3F8DA
:104F60000413C90517D5D3F82011A1B1EFF31181AE
:104F7000202080F31288BFF36F8FD3F8200130B167
:104F80000020C3F82001D3F820010120D86081F36C
:104F90001188BFF36F8F5268D20614D5EFF31182D8
:104FA000202181F31288BFF36F8FD3F8581111B10C
:104FB0000021C3F800154FF48001C3F8081382F3F1
:104FC0001188BFF36F8F704710B50446002201218E
:104FD0000920FBF7C9FD0920FBF7AAFD2046BDE823
:104FE0001040FCF7BFB810B504460022012108208C
:104FF000FBF7BAFD0820FBF79BFD2046BDE81040FB
:10500000FCF7B0B830B589B0154601230A46014611
:10501000684600F0DAF8044640B92022694628467E
:10502000FBF77EF9002808BF6FF06404204609B042
:1050300030BD2DE9F04190B09DF85C600446884693
:1050400015461F4601463346402208A800F0BDF829
:1050500038B91022404608A9FBF762F920B96FF071
:10506000640010B0BDE8F081334639466846169AB0
:1050700000F0ABF80028F4D12022334669460DEB4E
:10508000020000F0A2F80028EBD120212B46224696
:105090000DEB010000F01CF8E3E713B501240194C7
:1050A000049C0094FFF7C5FF02B010BD08B500F0E6
:1050B0000DF808B900F068F808BD13B50024019494
:1050C000049C0094FFF7B5FF02B010BDFCF738BA9E
:1050D000F0B5144606460F461D46ADB0FCF720FA63
:1050E000334621462A46009703A800F026FA0446D4
:1050F000FCF71EFAA4F57003A3F676030E2B0DD869
:10510000DFE803F0080C0C0C0C0C0C0C0C0C080861
:105110000C080E006FF015002DB0F0BD2046FBE727
:105120006FF06500F8E72DE9F84F15469A42904672
:1051300081468A461E4628BF9846AB46FCF7F0F9E2
:105140000027AF4205D30024FCF7F2F92046BDE862
:10515000F88F0A9B0AEB07013BB108F103021846DE
:1051600022F0030200F05CFB0A9942464846FDF734
:105170009DF904460028E7D1ABEB080B5E45B0462D
:10518000374428BFD846DCE7FCF7DAB90123FCF73F
:10519000F5B938B504460D46FCF7C2F92946204654
:1051A000FDF7DCF90446FCF7C3F9A4F57003A3F599
:1051B0000073052B04D8252222FA03F3DB0701D460
:1051C000204638BD6FF01500FBE7F0B59FB00446F0
:1051D00001A80D4616461F46FCF702FA50B93B4699
:1051E0003246294601A8FCF7C9F918B9214601A899
:1051F000FFF7CFFF1FB0F0BD13B5044658B1012033
:105200000DF1060100F06CF818B9BDF806305B0826
:10521000238002B010BD6FF01500FAE770B50546A7
:1052200008460C46FCF7FCF92146024601232846B5
:10523000BDE87040FCF73ABA0A4600230146FCF785
:1052400035BAEFF31083012B03D10068BFF34F8F02
:10525000704772B60068BFF34F8F62B670472DE992
:10526000F8430D461646FCF7DFFB0446F8B1F5B1EE
:10527000023000F00EF900278146B8460434B945E3
:1052800007D8002406B134600020A5F80080BDE8EE
:10529000F883204600F0FDF8C3439BB2A21C002B0C
:1052A000F0D0984538BF984614460137E7E76FF0CD
:1052B0001500ECE710B50C46FCF7B6FB58B154B13D
:1052C000023000F0E6F84FF6FF72904203464FF0CE
:1052D000000003D120806FF0150010BD2380FCE793
:1052E0000022FFF7BCBF37B50D4601AA0DF1020140
:1052F000FFF7B5FF044648B9BDF80230AB4208D20B
:10530000019848B1E94389B200F0B3F8204603B0F0
:1053100030BD6FF01504F9E76FF00B04F6E70346B4
:105320005A6B00233C309A4200D17047C168013368
:105330000844F8E7FEF766B908B5FBF745FAFFF74A
:1053400026FDBDE80840FEF75DB94FF47F03D3F8B2
:105350003001D3F83431BFF34F8FC0F30B00A0F10D
:1053600009035842584170474FF47F02D2F8303158
:10537000D2F83401BFF34F8FC3F30B03092B03D1D2
:10538000431E58425841704700207047004700F0C4
:1053900088B840F00040C1F88000C2F88000704733
:1053A000F7B5044618B1012824D003B0F0BD4FF082
:1053B00050230222C3F8082301220646DA60C3F80C
:1053C0000401D3F80431012342F210754FF0502745
:1053D0008DF80730DCB1012CE7D1D7F80C3403F499
:1053E00080338EBB002BE0D00120FFF7D0FF013DC2
:1053F000F3D1DAE74FF050230022C3F808035860D6
:10540000C3F80021D3F800310DF10706DBE7D7F828
:10541000183403F480333EB9002BC6D00120FFF7C7
:10542000B6FF013DF3D1C0E7D7F8182402F003021C
:105430003270002BB9D09DF807000128B5D1FFF7D5
:10544000A6FF013DC6D1B0E7D7F80C2402F0010257
:10545000EEE7FFF7A5BF4FF0FF3307B500F00300FD
:10546000019301AB184400F0CEF9019803B05DF848
:1054700004FB13B50222ADF806100DF10601044637
:10548000FFF7E9FF014624F00300FCF719FE02B024
:1054900010BD20F003031B6882070CBF98B2180CE4
:1054A000704708B1FBF71ABC7047704740B1C3683A
:1054B000587810F001001EBF1878B0FA80F040094B
:1054C0007047EFF31183202383F31288BFF36F8FAC
:1054D000FEE708B5FFF7F5FF10B5EFF311842023C1
:1054E00083F31288BFF36F8FFFF7F3FF84F3118804
:1054F000BFF36F8F10BD10B5D0E9003433B9002071
:10550000E268537843F00103537010BD204698477A
:105510000028F4D00028B8BF4042FF28A8BFFF20D1
:10552000E3681870ECE700F095B900F06CB9EFF3A0
:105530000580003818BF012070472DE9F041069F13
:10554000044615461E46FCF767FE38B93B46324610
:1055500029462046BDE8F041FCF784BEBDE8F08155
:105560000A460021FDF70AB900F04DB900F072B902
:105570000A46002100F06EB901EB820204388A422B
:1055800001D10020704752F8043D1BBA40F8043F97
:10559000F5E70139024410B5904201D1002005E041
:1055A000037811F8014FA34201D0181B10BD013040
:1055B000F2E70246014410B58A42134603D01C7834
:1055C0000132002CF8D1181A10BD2DE9F047C3F1B3
:1055D00037090746884603F01F055FFA89F9164622
:1055E0004FF0000A384641462A465346FAF77EFEF7
:1055F0004346D4B23A4688460746092C84BF4C44F9
:10560000E4B2AA4204F1300473EB0A0306F8014B3A
:10561000E8D23046BDE8F0872DE9F04F061889B092
:105620009946154641EB010404AB3046DDF84CB019
:1056300021460093A9F1410AD2E9002300F0A9F81C
:1056400006AB07468846304621460093D5E902233B
:1056500000F09FF80022DDE90463841951EB030692
:10566000069B28BF0122D5E90001D218079B43F110
:105670000003381848EB0101B84271EB0801E968F2
:10568000039138BF0120A96828BF0020CDF800A0F1
:1056900014EB010C039946EB010110EB0C0041F1F6
:1056A0000001A04271EB060C34BF4FF0010C4FF02B
:1056B000000CCDE906231CEB020243F1000300F0CD
:1056C00083F8129BC3E90001149B012BDDE906233B
:1056D00029D1D5E90201D5E900C5201ACDF800A0ED
:1056E00066EB0101674578EB050534BF0125002510
:1056F000401B61F10001844276EB010534BF0125B6
:105700000025521B63F1000300F05EF8DDE906237B
:10571000CBE9000120463146CDF800A000F054F856
:1057200009B0BDE8F08F17EB070E48EB080C201905
:1057300046EB0601BE457CEB080834BF0127002775
:10574000C71941F10008D5E9000186457CEB010C41
:1057500034BF01200020D5E90215381A68F1000C89
:10576000401A6CEB050192185B41A74278EB0605E5
:1057700034BF01250025521943F10003874278EB1D
:10578000010834BF01250025521BA9F140050095F1
:10579000B8E7F0B50F460446A0FB0201059EA7FB43
:1057A00002524919A3FB0445A7FB037342F100020F
:1057B000611845F10004D21943F10003121943F1B5
:1057C0000003C6E90023F0BDF0B5059CC4F1400715
:1057D000C4F12006A4F12005E04002FA06F6BB4021
:1057E00022FA05F5BA403343C4F120062B4301FAEF
:1057F00006F6A4F12005304321FA05F5E1402843DF
:1058000019431043F0BD0A44431E914200D1704732
:1058100010B511F8014B914203F8014FF9D110BDB9
:10582000884210B501EB020402D98442234607D80E
:10583000431EA14208D011F8012B03F8012FF8E70D
:10584000024401468A4200D110BD13F8014D02F80E
:10585000014DF7E702440346934200D1704703F835
:10586000011BF9E72DE9F04F55EC104BA446C5F3A9
:105870000A540346084644EA0C072946C5F31305B3
:105880003026E14657EA0508AE465E7174D1002421
:10589000A1421C716EDA0121A04219714FF000047F
:1058A0001ADA204603F112060D25C2F157024FF015
:1058B000300C07F00F013F0947EA0E774FEA2E1E22
:1058C000002940F08780A84201DB86F800C0013D36
:1058D00006F1FF36EDD176E00C2868DCC0F10D0151
:1058E0000126890001F1FF3EA1F12108C1F1210744
:1058F00006FA08F826FA07F706FA0EF648EA070845
:1059000016EB060A48EB080BDAF100076BEB4B0EBF
:105910001AF1FF3A4BF1FF3B0AEA0C0A0BEA050BBE
:10592000564578EB0B0B11DBC1F1200BB1F1200ACE
:105930002CFA01F105FA0BFB58BF45FA0AFA41EAC5
:105940000B0158BF41EA0A01C90724D51CEB060C1C
:1059500045EB0805E146B5F5801F1CDB5979B4F528
:10596000806F01F10101597127D007EA0C070EEA97
:10597000050E97E7002891E75CB13126C90F002892
:10598000A4F2FF345E7119710FDB0C28A6DD0D2027
:1059900005E00124F2E707EA09090EEA0505B4F576
:1059A000806F06D04F46AE467CE70020F7E70D201B
:1059B00078E759EA05051A7908D01A794FF4806416
:1059C00042F008021A711C60BDE8F08F42F0040238
:1059D0001A71F8E70929D4BF30318918A84231700B
:1059E000B8BF284673E7000094A9FF7F01000000BC
:1059F000CD0C000000000000990D0000385A000096
:105A00003553000000000000E74F0000605A00001E
:105A1000C94F00004C5A0000D50E000000000000E5
:105A2000A90C000000000000395300000000000035
:105A3000291C00000000000059640000905F000075
:105A4000A05F000018060120300601206C640000F1
:105A5000BC5F0000246000001A0601207C050120C4
:105A600076640000F05F0000246000001C06012046
:105A70009805012000000000B54D00000000000066
:105A8000B54D000000000000B54D00000000000012
:105A9000B54D000000000000B54D000025200000BD
:105AA0008D53000000000000B54D00000000000014
:105AB000B54D0000605A00005B4F00004C5A0000DA
:105AC0005B4F000000000000B54D0000000000002A
:105AD000B54D000000000000B54D000000000000C2
