:020000040000FA
:10000000900E0120791800000F4500004D180000E7
:100010004D1800004D1800004D1800004D1800004C
:10002000000000000000000000000000F5150000C6
:100030004D180000000000004D1800004D18000091
:100040005516000055160000551600005516000004
:1000500055160000551600005516000055160000F4
:1000600055160000551600005516000055160000E4
:1000700055160000551600005516000055160000D4
:1000800055160000551600005516000055160000C4
:1000900055160000551600005516000055160000B4
:1000A00055160000551600005516000055160000A4
:1000B0005516000055160000551600005516000094
:1000C0005516000055160000551600005516000084
:1000D0005516000055160000551600005516000074
:1000E0005516000055160000551600005516000064
:1000F0005516000055160000551600005516000054
:100100005516000055160000551600005516000043
:100110005516000055160000551600005516000033
:100120005516000055160000551600005516000023
:100130005516000055160000551600005516000013
:100140005516000000000000000000000000000044
:10015000000000000000000000000000000000009F
:10016000000000000000000000000000000000008F
:10017000000000000000000000000000000000007F
:10018000000000000000000000000000000000006F
:10019000000000000000000000000000000000005F
:1001A000000000000000000000000000000000004F
:1001B000000000000000000000000000000000003F
:1001C000000000000000000000000000000000002F
:1001D000000000000000000000000000000000001F
:1001E000000000000000000000000000000000000F
:1001F00000000000000000000000000000000000FF
:10020000DEE61E284CBBCE8F025B0000EC00000037
:10021000C8590000010000000000000000000000BC
:10022000FFFF02910000000000000000000000003D
:10023000000000000500000000000000DEE61E28AF
:10024000EAAC45B8025B000020000000031000008B
:100250000100000001000000C7480000DEE61E2883
:10026000EAAC45B8025B000030000000021000005C
:100270000000000001000000992100008F490000EB
:1002800095490000FF47000074000000DEE61E28CC
:10029000EAAC45B8025B000020000000011000003D
:1002A000020000000100000091480000DEE61E2868
:1002B000EAAC45B8025B000020000000011100001C
:1002C0000300000001000000FF490000DEE61E28D8
:1002D000EAAC45B8025B00002000000000120000FC
:1002E000000000000100000091260000FFFFFFFF5A
:1002F00053B94AB9002908BF00281CBF4FF0FF318D
:100300004FF0FF3000F00CB8ADF1080C6DE904CEF1
:1003100000F036F8DDF804E0DDE9022304B07047B0
:10032000704700BF30B44FF0000310F8014B11F8D4
:10033000015B013A84EA050443EA0403F5D1A3F121
:1003400001034FEAD37030BC704700BF4FF0000389
:1003500010F8012B013943EA0203F9D1A3F101039B
:100360004FEAD370704700BF30B411F8014B12F858
:10037000015B6C4000F8014B013BF6D130BC70478B
:100380002DE9F04F099E88468E46154604461946CB
:10039000002B40F0C6804245B2FA82F746D94FB1F1
:1003A000C7F1200C08FA07F3BD40BC4020FA0CFC52
:1003B0004CEA030E4FEA15481FFA85FC220CBEFBDF
:1003C000F8F908FB19E309FB0CFA42EA03439A45E2
:1003D00028D9EB1809F1FF3004D29A4502D9A9F1C6
:1003E00002002B44A3EB0A03A4B2B3FBF8F208FB10
:1003F000123302FB0CFC44EA0344A44514D92C1923
:1004000002F1FF3303D2A44501D9931E2C44A4EB7F
:100410000C0443EA00401EB1FC40002334607360CA
:10042000BDE8F08F4846DDE71346F0E702B9FFDE8E
:100430008FBBA8EB020301214FEA154EAAB2200C94
:10044000B3FBFEFC0EFB1C330CFB02F840EA03433B
:10045000984562D9EB180CF1FF3004D2984502D9C7
:10046000ACF102002B44A3EB0803A4B2B3FBFEFCE7
:100470000EFB1C330CFB02F244EA0344A2424ED9A9
:100480002C190CF1FF3304D2A24202D9ACF10203C1
:100490002C44A41ABDE7C7F1200CBD4008FA07F3AD
:1004A000BC4028FA0CF94FEA154E20FA0CFC4CEA35
:1004B0000302ABB2B9FBFEFC110C0EFB1C900CFB53
:1004C00003F841EA0040804523D928180CF1FF3198
:1004D00004D2804502D9ACF102012844A0EB080007
:1004E00092B2B0FBFEFC0EFB1C000CFB03F842EAD0
:1004F000004398450FD9EB180CF1FF3204D2984510
:1005000002D9ACF102022B44A3EB080342EA0141F9
:1005100092E76146E2E76246F6E76046A3E7634694
:10052000B7E7434505D90EB1C6E9000800210846E2
:1005300076E7B3FA83FCBCF1000F10D1434501D339
:1005400082420AD8841A68EB030301209E46002EDB
:1005500068D0C6E9004E002162E76046F7E7CCF1BB
:10056000200E03FA0CF302FA0CF500FA0CF722FA4B
:100570000EF428FA0EFB20FA0EF11C4308FA0CF3D5
:100580004FEA14491943A3B20A0CBBFBF9F809FB63
:1005900018BB08FB03FA42EA0B4292453ED9A21867
:1005A00008F1FF3004D2924502D9A8F1020022449A
:1005B000A2EB0A0289B2B2FBF9F809FB182208FB88
:1005C00003F341EA024293422AD9A21808F1FF310B
:1005D00004D2934202D9A8F10201224441EA004028
:1005E000D21AA0FB059842454B46414602D306D19C
:1005F0004F4504D20138B9EB050368EB04018EB115
:10060000FC1A62EB010707FA0EFE24FA0CF327FA34
:100610000CF74EEA0303C6E900379CE74046C7E7FC
:100620004146DBE73146FBE62DE9F04F2DED028B2D
:1006300081468A4615461C4600269FEDBB8B9BB023
:10064000287810B9304600F0EABD6B1C25280293CB
:1006500006D05146C8470028C0F2E185013652E273
:10066000182200210CA803F085FF6B78252B7CD085
:1006700000231F469C469E469846681C014610F87B
:10068000012B2B2A00F0A08000F29780202A00F096
:100690009E80232A00F09E80B8F1000F05D09DF8BF
:1006A000380040F004008DF83800BEF1000F05D08E
:1006B0009DF8380040F008008DF83800BCF1000FBC
:1006C00005D09DF8380040F010008DF838002FB1AB
:1006D0009DF8380040F020008DF838002BB19DF8CF
:1006E000383043F040038DF838309DF8383003F04F
:1006F0004400442803D16FF386138DF838309DF8F9
:1007000038302A2A43F080038DF838307ED19DF8A6
:1007100039204B1C42F001028DF839201A782E2A1C
:100720000CBF012100219DF8392061F341028DF8B1
:10073000392077D15A782A2A6DD000214FF00A0C3F
:100740000133184610F8012BA2F13007092F40F2AF
:10075000AB809DF838201091C2F3400040EAD1717F
:1007600061F341028DF838205CE0AA1C02928DF8FA
:100770003B309DF83930DF0740F1798154F804BBF4
:10078000BBF1000F07DA9DF83820CBF1000B42F0E7
:1007900004028DF83820580740F1728154F8048B18
:1007A000B8F1000F80F271819DF839306FF3410389
:1007B0008DF839304FF0FF3867E12D2A0CD0302A00
:1007C0007FF46AAF012359E74FF0010E56E74FF06F
:1007D000010C53E7012751E74FF001084EE70346AC
:1007E0000CFB0272303A184610F8017BA7F1300E6C
:1007F000BEF1090FF3D9994290D09DF838100F92AD
:10080000D20F62F341018DF8381087E70B460022C2
:100810004FF00A0CE7E79DF83920023342F004025A
:100820008DF83920194611F8012B6C2A5CD040D87C
:10083000682A46D06A2A61D04C2A67D019460B46EE
:1008400013F8012B782A02938DF83B2000F2E58003
:10085000572A6DD8412A04D0A2F14503022B00F299
:10086000DC8004219DF83A3061F302038DF83A30C0
:1008700002F0DF03A3F141089DF83920D8F100030D
:1008800043EB080363F3C7128DF83920D3B2120685
:1008900000F1EB8003F07802182A40F0BB806FF380
:1008A000C6038DF83930A2E00CFB01210346303934
:1008B00047E7742A26D07A2AC0D106229DF839301B
:1008C0000DE05A78682A9DF8392006D1012161F39C
:1008D000C6028DF83920991CB1E71346022262F353
:1008E000C6038DF83930AAE75A786C2A9DF839206A
:1008F00001D10421EBE713460322F0E705229DF81E
:100900003930ECE707229DF83930E8E7BDF8383098
:1009100023F4F04323F0020343F4804343F0020343
:10092000ADF838308BE700BF000000000000000881
:10093000A2F15803202B70D801A151F823F000BF79
:10094000F30900001B0A00001B0A00001B0A00003C
:100950001B0A00001B0A00001B0A00001B0A000003
:100960001B0A0000630800001B0A0000F3090000D6
:10097000C509000063080000630800006308000068
:100980001B0A0000C50900001B0A00001B0A00002A
:100990001B0A00001B0A0000290A0000F3090000DE
:1009A0004D0A00001B0A00001B0A00004D0A00004F
:1009B0001B0A0000F30900001B0A00001B0A0000CC
:1009C000F309000001219DF83A3061F302038DF82C
:1009D0003A309DF8393003F07803402B02BF9DF880
:1009E000381041F001018DF83810632A05D000233A
:1009F00006E002219DF83A30E7E7003B18BF0123EB
:100A00009DF83820C2F340010B4363F341028DF897
:100A10003820AEE613F0380FE9D09DF8383043F0B7
:100A200001038DF83830E2E703229DF83A3062F393
:100A300002038DF83A309DF8393003F07803A3F1C2
:100A4000400CDCF1000343EB0C03D9E703229DF8D3
:100A50003A3062F302038DF83A309DF8393013F0E2
:100A6000780F14BF01230023CAE70123C8E79DF9CB
:100A70003820002AACBF4FF0FF3BDDF83CB08AE6DF
:100A800099077FF597AEDDF840800023CDE90F335D
:100A90009DF83A309DF8391003F00702042A09D175
:100AA0008A0707D49DF93920002AB4BF4FF00D08FA
:100AB0004FF0060803F00703012BC1F3C30134D143
:100AC000CB1E042B21D8DFE803F003090920200006
:100AD00054F8043BDA17CDE90C3206E0073424F071
:100AE0000704F4E80223CDE90C239DF83870BB0716
:100AF00059D02A4651464846029B03F0DFFC0028A5
:100B0000C0F28D830644029D9AE554F8043B012906
:100B10004FEAE372CDE90C3202D19DF93030D9E7CA
:100B20000229E2D1BDF93030D4E7022B29D1CB1E06
:100B3000042B13D8DFE803F0030A0A121200002284
:100B40002068231D0C900D921C46CEE7E31D23F078
:100B50000703B3EC027B8DED0C7BF5E754F8043B07
:100B600001290C934FF000030D9305D19DF830300F
:100B70000C9300230D93B8E70229B6D1BDF83030AD
:100B8000F6E7042B09D1E31D23F0070303F1080462
:100B9000D3E90023CDE90C23A7E7032B04BF54F8C6
:100BA000043B0C93A1E79DF83B20782AABD8572A49
:100BB00000F28C80252A00F0D380242AA3D9412A70
:100BC00003D0A2F14503022B9DD8DDE90C13002BC5
:100BD000C0F2B581380700F1B48117F0100718BFD3
:100BE0002027C3F30A55C3F31303CDE90813002DDF
:100BF00040F0A98151EA030014BF01200020DB026C
:100C000043EA5153C902462A45EA010E43EAE57C0C
:100C100008BF66225EEA0C0CCDE9081300F0FD81E6
:100C2000002840F0C581DDE908014FF0000C4FF0CD
:100C3000050E634641F00041A5F2FE35099115F11C
:100C4000020FC0F2BC81BCF1000F01D0CDE9080158
:100C5000DDE90801002D00F3C78109980899C5F165
:100C6000040C1C3500FA05F5ACF1200E21FA0CF14C
:100C700020FA0EFE294341EA0E0120FA0CF0CDE9DC
:100C8000081002F0DF01472940F0CE81DD1C02DBB5
:100C9000984580F2C581023AB8F1000FD2B201DD69
:100CA00008F1FF389DF83810880600F1BD81B8F1D1
:100CB000000FD4BF00210121662A039140F0B681C4
:100CC00018EB030540F1B4810025B4E1A2F158030B
:100CD000202B3FF618AF01A050F823F0E10E0000E2
:100CE000070B0000070B0000070B0000070B0000BC
:100CF000070B0000070B0000070B0000070B0000AC
:100D0000CB0B0000070B00008D0D0000810E0000D2
:100D1000CB0B0000CB0B0000CB0B0000070B00003F
:100D2000810E0000070B0000070B0000070B0000FE
:100D3000070B0000170F0000E10E0000E50E000099
:100D4000070B0000070B0000670D0000070B0000F9
:100D5000E10E0000070B0000070B0000E10E000091
:100D60005146104676E4B8F1000F0C9A09DB414673
:100D70001046039203F0D9FB0027039A151862B9B5
:100D8000C1E61046039203F0C9FBF5E700270C9B70
:100D90000DF14D058DF84C3013AAAB1A07B1013394
:100DA0009DF83A00C10640F12E8202330F994006A9
:100DB0000B4444BF10995B18BBF1000F23DDABEB74
:100DC000030B9DF838305907C3F380081BD458062D
:100DD00040F12A82002F00F02A82514638460392C1
:100DE000C8470028C0F21B8247464FF03008039ADC
:100DF00001365E445B46002BA6EB0B000BF1FF3B7C
:100E000000F30582064647B1514638460392C8476B
:100E10000028C0F20482039A01369DF83A30590640
:100E200040F159829DF93930B61A002B80F20E82BA
:100E30001746B846F31917F8010B702840F0FA81ED
:100E40001E46109F1F44BB1B002B00F33D822B4608
:100E500042465146484603F031FB0028C0F2DF818C
:100E6000304406468344ABEB0603002B7FF74BAEC2
:100E700051462020C8470028C0F2D1810136F2E750
:100E80003D072BD417F0100718BF2027DDE90C23EE
:100E9000002B05DA2D27524263EB4303CDE90C23E7
:100EA000DDE90C010DF1650300930EAA13AB03F00D
:100EB000BFFA0246B8F1000F0DF16505FFF65FAF0E
:100EC0009DF83810AB1A6FF3861198458DF83810DD
:100ED0007FF655AFA8EB03030F9350E72B27D5E719
:100EE0000027DDE70C98002800F089810DF16503EB
:100EF00000930EAA13AB002103F09AFABDF83A3022
:100F0000024603F0EF0343F4F04343F010030027DD
:100F1000ADF83A30CEE70C9B07293FF6F4ADDFE899
:100F200001F00C04060C08080C0C1E70EBE51E808A
:100F3000E9E5F217C3E90062E5E51E60E3E52D2768
:100F40004FE62B274DE640F2FF7085422DD10B4333
:100F5000A2F141021BD1192A11D849238DF84C3036
:100F60004E238DF84D3046238DF84E309DF83830A5
:100F70000DF14F056FF386138DF838300CE76923B8
:100F80008DF84C306E238DF84D306623ECE7192A2E
:100F900099BF4E2341226E23612294BF8DF84C30BD
:100FA0008DF84C308DF84D20DEE7002027E6013D1E
:100FB00049185B41002BFADACDE9081333E6400803
:100FC00040EAC1704908B1F1333FAC4605F1010573
:100FD000F5D20EFB01F5A0FB0E01013B29440CF1FB
:100FE00002054FF0010C2AE6023041F10001CDE983
:100FF000080108A8CDE9032303F0EBF9DDE90810A7
:10100000049B039A013D013349184041002805F132
:10101000FF35F9DACDE908101AE600231D461CE673
:101020006622A8EB03083DE6002145E608F101052C
:10103000102DA8BF102510218DED0A8B0791DDE939
:101040000A10A5B9089D4919099D40EB0500B0F1AA
:10105000805F1BD2CDE90810662A40F09880002BF3
:1010600023DC30210DF14D058DF84C102FE049089F
:1010700041EAC0714008CDE90A100AA8CDE904236D
:10108000013D03F0A6F9DDE90423D8E7490841EA68
:10109000C0714008CDE9081008A8CDE9042303F089
:1010A00098F9059B049A0133D6E713AD07990029F7
:1010B0000BDD07A908A8CDE9042303F0A2F9059BDD
:1010C000049A013B05F8010BF0D10F9300239DF822
:1010D0003810890602D4B8F1000F1DDD2E2105F865
:1010E000011B9BB1B8F1000F16DD59424145A8BF65
:1010F000414600290F91A8EB0108D4BF002101212E
:101100009DF83A0061F345108DF83A00B8F1000FF0
:1011100002DD0799002955DC0399002962D1CDF839
:10112000408002F0DF01452920D12946002B01F83B
:10113000022BB6BF2D222B225B42632B6A7009DD86
:101140006420B3FBF0F200FB123302F1300CE91C17
:1011500085F802C00A20B3FBF0F20D4600FB123303
:1011600002F1300C303305F802CB4B700F9B002B93
:1011700043DC109B002BD4BF002301239DF83A20B1
:1011800063F3861200238DF83A202B7004E607A93A
:1011900008A8CDE9042303F034F9DDE904239DF820
:1011A000381030288DF84C0018BF03F1FF33880643
:1011B00002D4B8F1000F12DD2E210DF14E058DF88D
:1011C0004D10A3E707A908A8CDE9042303F019F9F6
:1011D000DDE9042305F8010B08F1FF3896E70DF16E
:1011E0004D0599E700211091284615F8011D302979
:1011F000FAD02E2918BF054693E70123BEE74B4DD1
:1012000007466A1FC9E5010748BF0133CEE55146CD
:1012100040460392C8470028039ABFF6EBAD1BB0C7
:10122000BDEC028BBDE8F08F4FF02008E1E54FF0F8
:101230003008DEE55146C8470028BFF6FAADEEE7B4
:1012400051460392C8470028039AE8DB10781746F6
:10125000A0F13003092B06EB020802F10102EFD9DD
:101260009DF83A300F9E9B0607D4B044002EA8EBA1
:10127000060206F1FF360FDC904638782E2808D19A
:101280005146C8470028CADB002E08F1010809DCD6
:101290000137A8EB07060EE051463020C84700286A
:1012A000E4DABCE751463020C847013EEAE7514640
:1012B000C8470028B3DBB846F31917F8010BA0F1B3
:1012C0003002092AF3D9BBE551463020C84700282F
:1012D000A5DB0136B7E5D80601D4190707D5514675
:1012E00030200392C847002899DB039A01369DF805
:1012F0003A30DB0608D551469DF83B000392C847BB
:1013000000288CDB039A01360F9F3744BB1B002B50
:1013100001DC2B469DE5514630200392C84700284A
:10132000FFF67DAF039A0136F0E700BFCB53000014
:101330002DE9F0430746002685B0DFF83490DFF84A
:10134000348001AD59F8044B98E807003C4485E827
:1013500007000C222946204603F0F0F800B91CB91A
:101360000136052EEED10024204605B0BDE8F083FD
:1013700048500000F04F000070B5044617480D4675
:1013800003F007F824B9BDE87040154803F001B830
:10139000A169144802F0FDFF2146A06903F04AFB51
:1013A00038B9114802F0F5FF2046BDE8704001F061
:1013B00037BA61690D4802F0ECFF0020666903F05E
:1013C0002DFB864204D96069294680B201F07EF87F
:1013D0002046BDE8704000F027BE00BFC7520000A5
:1013E000E55200000053000028530000585300004D
:1013F00070B54FF40041002000F0F8FD064620B122
:101400001348BDE8704002F0C4BF01F085F80446FF
:1014100001F08AF805462046FFF78AFF0446284671
:10142000FFF786FF054618B1626943699A4209D3FE
:1014300000212046FFF7A0FF01212846FFF79CFF6F
:101440000448DEE70121FFF797FF31462046F5E724
:101450006E5300009C530000014B1B68184700BFEF
:10146000E8040120014B1860704700BFE804012028
:1014700007B50B460021024600910348FFF7D4F858
:1014800003B05DF804FB00BF5914000008B54FF02D
:101490002002EFF3118382F31288BFF36F8F00F005
:1014A0001BFA034802F075FF00F030F8FCE700BFBC
:1014B000CC5300004FF02002EFF3118382F3128827
:1014C000BFF36F8F0121044AC2F8401583F31188DE
:1014D000BFF36F8F002070470090035020B1034B83
:1014E000800143F001031847704700BF40500000DF
:1014F00001F0A4B9014802F0EBBD00BF5C50000050
:10150000014910220A60704710ED00E072B64040B9
:1015100080F31188BFF36F8FBFF34F8F30BF62B678
:10152000BFF36F8F704700BF43B2002B08DB01226F
:1015300000F01F0002FA00F0024A5B0942F82300A3
:10154000704700BF00E100E0054B420953F822203C
:10155000012300F01F0003FA00F01040704700BFA5
:1015600000E100E043B2002B01F10101ACBF03F147
:101570006043064B4FEA4111C9B2ABBF03F561436B
:1015800000F00F0083F800131954704714ED00E0C9
:1015900030BFFFF7FDBF00BF144A08B5144B22F05F
:1015A0007F029A60BFF34F8FBFF36F8FD3F888200D
:1015B00022F47002C3F88820D3F8882042F4A002F5
:1015C000C3F888204FF04042C3F83422BFF34F8F56
:1015D000BFF36F8F0023E1EE103A01F0C3FA01F080
:1015E00003FB00F03DF901F0C9FA00BF0000000064
:1015F00000ED00E01EF0040F0CBFEFF30880EFF3E6
:101600000980816911F8021C0229FFD001B502F09E
:1016100076FF01BD0446084611461A460023E1EE56
:10162000103A83F30B880A4B2025A3F5006686F356
:101630000B8883F3098863B64FF0000383F31188A6
:10164000BFF36F8FA04785F31188BFF36F8FFEE75D
:10165000900E012001B5EFF30580A0F110004FEAD4
:10166000C0000449014409C99847BDE80140024946
:1016700008470000C84D00007D160000704700BFFD
:10168000094B9A6A9A6A986A9A6A9A6A9A6A9A6AEC
:101690009A6A10F480106FEA02426FEA124218BF91
:1016A00002209A62704700BF00ED00E00D4B9A6A7D
:1016B0009A6A9A6A920508D59A6B9A6A120404D5B6
:1016C00018B19A6A22F400429A620020054B9A6A85
:1016D0009A6AD20558BF9A6A9A6A42F47F429A621D
:1016E0000870704700ED00E0124B9A6A9A6A9A6A95
:1016F000920708D55A6B9A6A120604D518B19A6AED
:1017000022F080029A620B4B9A6A9A6A9A6AD00611
:101710004FF0000058BF9A6A9A6A920642BF5A6A0E
:1017200022F400525A62034A936A43F0FF03936221
:101730000870704700ED00E070B53D4B00255B6818
:101740008AB0C3F3080385F31188BFF36F8F02F0EB
:101750007F44B4F17F4F12D102F00C04082C0ED05C
:1017600012074EBF0E46064601250022033B8DF8A8
:101770000720032B55D8DFE803F0044C50492E46D0
:10178000F3E72B4BDC6A14F002044AD1DA6A002A30
:1017900015DBDC6A14F0804411D0B26932F8021C07
:1017A0004DF60272914209D09A6AD2B2FAB1012082
:1017B0000DF10701FFF798FF044600E034689DF83B
:1017C000073093B92022314602A802F0C8FE099BD7
:1017D0004DB3C3F3080222B96FEA53236FEA4323E0
:1017E0000993204602A902F088FE0AB070BD9A6AE9
:1017F00012F47F4F05D001200DF10701FFF756FFCE
:10180000DAE79C6A240C2404002CD8D0FFF738FFB8
:10181000D2E700200DF10701CCE700200DF1070110
:10182000ECE70024CBE723F4FF7323F00103D7E7B1
:1018300000ED00E0044B5A6942F010025A615A6907
:1018400042F480625A61704700ED00E0EFF30880D7
:10185000EFF3098101B57246FFF76EFF01BD00BFCE
:10186000002320210348C2180133412B82F80013C2
:10187000F9D1704700E100E0002080F31488BFF345
:101880006F8F002080F30A8880F30B88FFF730FE0B
:1018900000200E490860BFF34F8F0D4880F3088881
:1018A00000F03EF8202080F311880A484FF40061D0
:1018B000401880F30988EFF314800221084380F375
:1018C0001488BFF36F8FFFF767FE000094ED00E010
:1018D000900E0120900E0120BFF34F8F0549064B5B
:1018E000CA6802F4E0621343CB60BFF34F8F00BFBE
:1018F000FDE700BF00ED00E00400FA0500231846F4
:101900000649D1F89020C2F30722934200D17047D4
:10191000C1F89830C1F8A0000133F6E700ED00E00F
:1019200010B572B6002484F31388FFF7E7FF23464F
:101930004FF0FF300B4A03F120010133102B42F826
:101940002100F8D100234FF0FF3003F16001013393
:10195000102B42F82100F8D162B6BFF34F8FBFF3CE
:101960006F8F10BD00E100E0014B1860704700BFB1
:10197000EC040120084B70B5C31A0D4607499B10B3
:10198000044659434022064802F01CFE2B460146FD
:101990002046BDE8704018479C050120B76DDBB6B6
:1019A000804D0000402373B50B4C0093041B0B4685
:1019B0000D460A49A41061430646094A094802F047
:1019C0002DFE011E05DA30462B4602B0BDE8704000
:1019D000184702B070BD00BF9C050120B76DDBB693
:1019E00091460000804D000070B5002201210446A0
:1019F0000520FFF7B7FD0F4801F00CF80E4B984299
:101A000015D103F0F2F826690C49304602F0CEFCFD
:101A100000280BDB012524690849356404F11C000A
:101A200002F0C4FC002801DB0020E56470BD6FF00B
:101A30000400FBE77D1A00000000AD0B9050000091
:101A400073B50C23014600264B430A48C4184033A3
:101A5000D4E90E521844A663019202F0A0FD35B1FC
:101A60002B46019A044802B0BDE87040184702B006
:101A700070BD00BF9C050120804D000010B1012801
:101A800004D07047034B1B6C5B0701D1FFF7D8BF35
:101A9000704700BF9C05012008B54FF02003EFF30D
:101AA000118183F31288BFF36F8F124A136843F0DA
:101AB000020013F0010310600CD04FF05022D2F856
:101AC0000C34D2F80C2413F0010303D00A4802F0BE
:101AD00066FD012381F31188BFF36F8F23B1BDE849
:101AE00008400020FFF7ACBF0120BDE8084003F02C
:101AF0008AB800BFEC050120DC050120074BD3E8C4
:101B0000EF2F22F00201C3E8E01F0028F7D1D3072E
:101B100002D4012003F0B8B8704700BFEC050120E3
:101B200008B50848084B186003F0B1F838B1074809
:101B3000FFF71AFF0548FFF795FC002008BD6FF07E
:101B40001200FBE7B04D0000F0050120511B000022
:101B50000A2838B50446074D04D1286883680D214A
:101B60005B68984728688368E1B25B6898472046BD
:101B700038BD00BFF00501202DE9F04104460D46B7
:101B8000076903F0A2F810B92B4B1B78ABB94FF0E3
:101B90002003EFF3118883F31288BFF36F8F60681F
:101BA000464602F0A8FD08BB88F31188BFF36F8F8B
:101BB000EDE788F31188BFF36F8F6426606802F049
:101BC0009AFD28B9012002F0C2FF013EF6D1F4E7E8
:101BD0004FF02003EFF3118883F31288BFF36F8F68
:101BE0006068464602F087FD0028E2D03B691D7020
:101BF000626839691368C3F844150121C3F84815B0
:101C00000021C3F82011D3F82001C3F858115268FD
:101C1000D3F85811D20641BF0822C3F800254FF46B
:101C20008002C3F8042301229A6086F31188BFF36F
:101C30006F8FBDE8F08100BF89060120F0B54B79B8
:101C4000012B26D0032B21D110268B79032B1DD1FC
:101C5000CC790CB1012C19D10A7912B1022A15D113
:101C60000E220B684568B3F5164F2D6865D02DD848
:101C7000B3F5165F64D016D8B3F5966F62D00AD864
:101C8000B3F5967F61D0B3F5167F61D06FF0850014
:101C900052E00026D9E7B3F5166F5CD0B3F5965F36
:101CA000F4D1374B3CE0B3F5E14F57D007D8B3F54B
:101CB000615F55D0B3F5964FE8D1324B30E047F62F
:101CC0001227BB42E2D14FF4000329E0B3F5613F94
:101CD00048D013D8B3F5963F47D009D84DF6C02762
:101CE000BB4244D0B3F5614FD0D14FF46B0317E042
:101CF000B3F5E13FCAD14FF0EB7311E0B3F5612FBB
:101D000038D008D8204FBB4237D0B3F5E12FBDD132
:101D10004FF0E86304E01D4FBB42B7D14FF0805352
:101D200000693443C5F824352243031DC5F86C25EA
:101D300003C983E803000020F0BD4FF41D03EFE763
:101D4000134BEDE74FF49E23EAE74FF4A033E7E7A8
:101D50004FF41C33E4E74FF41D23E1E70D4BDFE7BD
:101D60000D4BDDE74FF06C73DAE70C4BD8E74FF41F
:101D70006503D5E74FF07063D2E74FF08063CFE79C
:101D800000B0130000A04E0090D0030040420F00AE
:101D90000050270000C0750000F03A0000903A01A2
:101DA0002DE9F7430021D0F804800669D8F80040F7
:101DB000D8F80C90C4F800150746306001AA4846D0
:101DC00002F001FD051E4EDB019BD9F800201979B8
:101DD000186800F079F8051E45DB3846311DFFF71D
:101DE0002DFF054600283ED1D8F80430990712D5BA
:101DF00006F1180000F052FE1E4B984237D1327E99
:101E000042F00043C4F8A031C4F88C300123934061
:101E1000194AC2F804350823C4F8003598F8083088
:101E200053B9C4F81031D4F810317369C4F834359B
:101E30000123C4F838352360D8F804309A075CBF12
:101E40004FF48072C4F80423DB0644BF4FF48003D0
:101E5000C4F804333369C4F844350023C4F8483562
:101E60000123A360E360284603B0BDE8F0836FF070
:101E70000405F8E70000AD0B00700150012300F0ED
:101E80001F0003FA00F0034B09B9D860704798604F
:101E9000704700BF0025845010B500F48054002C1A
:101EA0001CBF0021012200F01F041B02C0F381109F
:101EB00043EA80030B4343EA4202024B803443F877
:101EC000242010BD002584502DE9F7431646054611
:101ED0000127DFF8148100EB81094D4503D1002073
:101EE00003B0BDE8F0832C68220CC4F30323192A45
:101EF00077D8DFE802F00D1A21442638447676764A
:101F000076495176767676767676767656646A7007
:101F100004F03F04C6F80C452A6802F01F0207FAD5
:101F200002F2C8F80820012204E004F03F04C6F8D9
:101F300014450022114611E004F03F04C6F808459C
:101F4000EAE704F03F04C6F808452A68012102F0D8
:101F50001F0207FA02F2C8F80C2000222868FFF7D7
:101F60009BFF0435B9E704F03F04C6F80C452A6826
:101F700002F01F0207FA02F2C8F80C20D3E704F0BF
:101F80003F04C6F81045D4E704F03F04C6F80845FE
:101F9000002B08BF0623CCE704F03F04C6F80C452D
:101FA000F6E704F03F040193C6F860452868C0F3E3
:101FB000403100F03F00FFF761FF019BB3E704F001
:101FC0003F040193C6F86445F0E704F03F04019331
:101FD000C6F86845EAE704F03F040193C6F86C458B
:101FE000E4E76FF085007BE70025845040EA0103B9
:101FF000C3F30E0330B58BB940F21515094CC90B6C
:10200000C0F3C730994201D1002030BDC218D2B20E
:1020100002F5C07244F822500133F3E76FF0150067
:10202000F3E700BF0030005038B5044681692A4804
:1020300002F0AFF90023294A4FF0FF31C2F8003512
:102040004FF05022C2F80813BFF36F8F72B6244AC4
:1020500003F120000133102B42F82010F8D10023A7
:102060004FF0FF3003F160010133102B42F82100E3
:10207000F8D14FF0E02300221A61D3F8042D03F5C4
:10208000506342F000725A605A6A22F4E0225A62A7
:10209000EFF31482920707D5EFF3148222F00202C5
:1020A00082F31488BFF36F8FBFF34F8FBFF36F8F2F
:1020B000A569012120469D6000F0EAFA58B100238D
:1020C00083F30B8883F30A882A6882F3088883F3F2
:1020D00009886B68984738BD145400000080005090
:1020E00000E100E00122024BC3F80025704700BF69
:1020F000000084500022024BC3F80025704700BF47
:102100000000845070B5094D2B7853B90126084C56
:10211000C4F8006500F070FF28B92E70C4F80005FF
:1021200070BD0020FCE76FF00D00F9E78806012084
:102130000000845090B5B1F1005F83B002AF1FD2B0
:10214000BBB16C46ADF5007D02AB00934FF400735C
:1021500002F0E4FBA5460E4B984213D00A33984296
:1021600013D00C3B984208BF6FF015000437BD46F2
:1021700090BD084B00934FF4004302F0CFFBEAE719
:102180000023F7E76FF01500F0E76FF08500EDE74B
:102190000202F0009016012008B500F08BFE034B00
:1021A000984208BF6FF0150008BD00BF0002F000A4
:1021B0001FB50446074A01AB07CA83E807000C2293
:1021C0001946204602F0BAF900280CBF204600202C
:1021D00004B010BDFC4F000070B505460024054E4C
:1021E00056F8040B2844FFF7E3FF10B90134052C1F
:1021F000F6D170BD185100002DE9F04F82468BB02A
:1022000010460F4615461C46D2F80C90D2F81080A6
:10221000FFF7CEFF30B90CB1002435E08F4802F053
:10222000B8F831E0AB69534503D0002CF4D18C48A9
:10223000F5E71CB9BB4201D08A48F0E73846FFF702
:10224000CBFF854203D0002CE6D18748E7E7296A17
:10225000864B994205D0002CDED1854802F099F8D2
:1022600012E06E6902F027FCC0F34F0086420FD2E5
:10227000002CD1D16969039102F01DFC0399C0F3D0
:102280004F027C4802F085F820460BB0BDE8F08F85
:102290002E69B6F5424F02D8EB689E4203D2002C5D
:1022A000BAD17548BBE715EB090918D218EB07033B
:1022B00015D2BD4213D39D4211D209F1FF394F45CA
:1022C0000DD84B450BD918EB0A082CBF4FF001096C
:1022D0004FF0000907D3002C9ED168489FE7002CDF
:1022E0009AD167489BE7EB695345F4D34345F2D253
:1022F0003A1DA2EB0A02D3589A4503D9002C8BD180
:1023000060488CE79845F9D93E44DFF8B4A106F15E
:10231000050B0DF11808B34504D1002C7FF47CAFF8
:1023200059487CE79AE8070088E807000C224146F4
:10233000304602F003F900B90EB90136EBE7F26856
:10234000AB699A4204D0002C7FF466AF4F4866E731
:102350002B69049302F0A5FA014620B1002C7FF40A
:102360005BAF4B487AE700F017F9054658B1002CEF
:102370007FF452AF0146474802F00BF871357FF405
:102380004BAF45484BE7454A454BDFF838A1002C99
:1023900008BF1A46DFF830B10592039000F0CCF880
:1023A000039B834204D3002C7FF436AF3D4836E7CD
:1023B00041461022039800F01BF91028014610D066
:1023C00010F1160F08D11CB90399374801F0E1FF4D
:1023D000039B01330393E1E7002C7FF41DAF3348E7
:1023E0003CE754B95046039901F0D3FF58469DF895
:1023F00027209DF8181001F0CCFF049B4146009364
:10240000059D3B4606F1700206F13000A8470146E3
:10241000B0B9274E039B4B4507D1002C7FF434AF56
:10242000244801F0B6FF01242EE71CB94946304686
:1024300001F0AFFF484600F015F909F10109E9E79D
:1024400010F1650F05D1002CC2D11B4801F0A1FF8E
:10245000BEE7002C7FF4E0AE1848FFE626540000EB
:102460004654000079540000A6540000FFFF02917A
:10247000CF540000F654000036550000925500007D
:1024800065550000BE550000EB5500001C560000CD
:102490004F5600006F560000935600009148000010
:1024A000B1480000D7570000C8560000F1560000A0
:1024B000505700006757000086570000AB570000D8
:1024C00008500000145700003A57000038B50C4679
:1024D0000A46054601460D4801F05BFFB4FA84F157
:1024E000490941EA450080B202F0E8FA044602F0E8
:1024F000B0FA20B9064801F04CFF204638BD002C48
:10250000FBD02146034801F044FFF6E7F7570000EF
:102510002B58000054580000024B9868BFF34F8FAF
:10252000704700BF0081FF00024BD868BFF34F8F98
:10253000704700BF0081FF00024B1869BFF34F8F47
:10254000704700BF0081FF0070B5FFF7F5FF14234F
:10255000584310490144084602F071FA012802D09C
:102560000024204670BD00260C1D0231084602F0F2
:1025700066FA8642F4D2A01C02F061FA05462046B3
:1025800002F05DFA0128ECD0023504EB4504013677
:10259000ECE700BF1481FF002DE9F0410021142772
:1025A0004FF6FF78104C114EFFF7C6FF884202D855
:1025B0000020BDE8F08107FB01635B69BFF34F8F2B
:1025C00013F5803F09D0A4F11005284602F037FA30
:1025D000404505D00235A542F7D101311434E3E777
:1025E0006FF07000E5E700BF2881FF000081FF0069
:1025F00038B51424444304F57F0303F5014305462D
:102600005B69BFF34F8F13F5803F20D00F2A21D98C
:10261000FFF792FFA84220D9114B0431234403F164
:10262000100053F8042B0431140A01F8082C01F8A7
:10263000074C83424FEA12444FEA126201F8064CFB
:1026400001F8052CEDD1BFF34F8F102038BD6FF08E
:102650001500FBE76FF00B00F8E76FF00D00F5E7F2
:102660001881FF001423434303F57F0202F5014262
:10267000526912F5803F06D0BFF34F8F02480349DD
:10268000184400F027BA70471481FF000000FFFFD4
:102690002DE9F04F0F46064689B018B9002009B061
:1026A000BDE8F08F02F02CFA4FF000090446B36B3E
:1026B000994501D30120F2E74FF0000A2A4B01931C
:1026C000019B4FF0000B1A4652F8043B0DF1140821
:1026D0000293264B019253F8045B0393029B1D4423
:1026E000234B93E8070088E807000C224146284660
:1026F00001F024FF039B00B9ADB90BF1010BBBF155
:10270000050FE8D11B4B0AF1010A9A45D8D31FB136
:102710000023626A136013BB236A03B3BEE7DA685F
:102720000130134408E02B6A134A9342EAD1AE42C7
:10273000E8D0696B05F13C038842E3D025691A694A
:102740009542ECD19A69A5699542E8D8E569954228
:10275000E5D962695D69AA43E1D1002FD9D1E36867
:1027600009F101091C44A2E7085900002C5100009E
:102770001450000001000000FFFF02912DE9F0431A
:10278000234885B002F0BCF900250446204B214EB9
:10279000D3F83880DFF88490A84503D8002005B02E
:1027A000BDE8F083636A96E807001F6801AB83E821
:1027B00007000C221946384601F0C0FE90B98FB1CF
:1027C000636A21691B681A6991420BD19A69A169F0
:1027D000914207D8E169914204D962695B6932EAA2
:1027E00003030AD0276A67B10B4801F0D2FD4040CD
:1027F00080F311884FF0040002DFE36801351C44C8
:10280000CAE7484601F0C5FD636A1F60F5E700BFEF
:10281000000200002050000078580000A15800007D
:10282000026A044B9A4203D10349203000F052B9A6
:10283000704700BFFFFF02910000FFFF08B54FF493
:102840007F03D3F83021D3F83431BFF34F8F092AF7
:1028500001BF4FF050230022C3F81421C3F8182100
:1028600002F064F928B10122514BC3F8382AC3F8A9
:1028700078254FF47F03D3F83021D3F83431BFF3F8
:102880004F8F092A05D1012B1EBF0122484BC3F8E7
:10289000782502F04BF918B10E22464BC3F8E42E0E
:1028A0004FF47F03D3F83021D3F83431BFF34F8F87
:1028B000092A06D100223E4BC3F80C270122C3F897
:1028C00010270022D30003F57F03D3F80013BFF3D2
:1028D0004F8F013108D0D3F800130132D3F80433FD
:1028E000B2F5807F0B60EDD1334BDA69BFF34F8FC8
:1028F000D10743D5314BD3F80024012AFBD1C3F8CB
:102900000425D3F80024012AFBD12B4BDA69BFF34D
:102910004F8FD2070AD5DA6922F00102DA61BFF3DC
:102920004F8F264AD2F80034012BFBD1224A136A7A
:10293000BFF34F8F01330CD1136A23F0FF0343F031
:1029400020031362BFF34F8F1C4AD2F80034012BCF
:10295000FBD10022194BC3F80425D3F80024012A27
:10296000FBD1BFF34F8F1649164BCA6802F4E062E1
:102970001343CB60BFF34F8F00BFFDE71B6ABFF36C
:102980004F8F0133B6D00E4BD3F88C2042F4406207
:10299000C3F88C20D3F8882042F47002C3F8882052
:1029A000BFF34F8FBFF36F8F074B084A1A6008BD04
:1029B0000040005000A003500080FF000090035032
:1029C00000ED00E00400FA05280501200090D00386
:1029D00070B501250268B2FA82F3C3F11F035E1CD1
:1029E000DCB210D005FA03F322EA0303D0E8EF6F5C
:1029F000964204D1C0E8EC3FBCF1000FF6D1E9D11A
:102A000002480C7070BD0248FCE700BF0000AD0B2F
:102A10000200AD0B044B1A7922B9012218601A7119
:102A20000248704702487047F40501200000AD0BD2
:102A30000C00AD0B4FF05023D3F8002110B552B16C
:102A40000020C3F80001D3F800210122C3F80823B5
:102A5000114B1B6898474FF05023D3F804218AB1DB
:102A60000022C3F80421D3F80421D3F81824D3F8A2
:102A7000181402F00302012A4FF0020103D1C3F837
:102A800018159A6010BDC3F80813034B0120BDE868
:102A900010401B68184700BFF4050120014601489B
:102AA000FFF796BF2C0501200022034BC3F88425B5
:102AB000C3F80425704700BF00900350044AD2F8C1
:102AC0000834DB07FBD50160BFF35F8F704700BFA1
:102AD00000900350012208B5054BC3F88425C3F8C4
:102AE0000425FFF7EBFFBDE80840FFF7DDBF00BF9F
:102AF000009003500E4B70B553F82040013053F84E
:102B00002060A64200D870BDD4E900352846984719
:102B100065B1EB6830B10028B8BF4042FF28A8BFBC
:102B2000FF2018705A7842F001025A700834E8E722
:102B300040510000012208B5084B02201A70FFF72F
:102B4000D9FF00F06BF80320FFF7D4FFFEF750FC2D
:102B5000034A137B23F00103137308BD8906012088
:102B6000FC05012008B50348034A0021121A02F0AF
:102B7000A8F808BD9C0501208C06012008B5174B5C
:102B800003F5006282F3088883F30A880025E023B6
:102B9000134C84F82230E57725766576A57684F89F
:102BA0002050636A43F4E023636284F82350FEF705
:102BB00041FEFEF7A5FC4FF0FF33A362E36202F093
:102BC00065F82846FFF796FF0120FFF793FF2B4695
:102BD0002A4629460348FEF71DFD00BF900E01203E
:102BE00000ED00E0352B000008B50648064A07490D
:102BF000121A02F068F8BDE80840054A054906487F
:102C000002F061B8E80401209C050120145900007D
:102C10000000000014590000E8040120024A0349A2
:102C2000034801F0B6BB00BF2A580000D45800008A
:102C3000E158000030B10268034B04489A4208BFD3
:102C40000020704702487047DD55AABB8208F0009B
:102C50007108F00038B50D460446B0B1A02200213D
:102C6000043002F055F895B10822294604F16400B9
:102C700002F054F8082205F1200104F1840002F06A
:102C80004DF80020034B236038BD0348FCE70348A0
:102C9000FAE700BFDD55AABB7108F0008308F00019
:102CA0002DE9F74305460E4699461146FFF7C2FF48
:102CB0000446002840F08480002E00F08580002922
:102CC00000F08480B9F1200F40F0828005F14404C7
:102CD000082205F10408204602F020F805F1240737
:102CE00008223146404602F019F806F12001082278
:102CF000384602F013F802A941F8049D4FF48070A1
:102D000002F000F8002865D14FF48073324A0121A7
:102D1000136093600823314A00F034FB012105233E
:102D200008462F4A00F02EFB0823424601211C20B2
:102D300000F028FB08233A460121032000F022FB83
:102D4000224608230121022000F01CFB0823254A0B
:102D500001211A2000F016FB0523234A01211B2024
:102D600000F010FB0823214A0121142000F00AFB87
:102D700008231F4A0121152000F004FB082305F158
:102D800064020121162000F0FDFA082305F18402F7
:102D90000121172000F0F6FA0823164A01210B2022
:102DA00000F0F0FA00F04AFB0446019800F0D8FA6F
:102DB000114B002C18BF1C46A421284601F0AAFF85
:102DC000204603B0BDE8F0830C4CF9E70C4CF7E764
:102DD0000C4CF5E7084CEFE790108450945100003C
:102DE0000C52000054510000F8510000B85100008E
:102DF000D8510000745100008408F0007608F000FB
:102E00008008F0008108F000C2690C4B1A608269EA
:102E100043F8042C426943F8082C026943F80C2C4F
:102E2000C26843F8102C826843F8142C426843F8B7
:102E3000182C026843F81C2C704700BF5C168450A5
:102E40000C4B1B68C3610C4B1B6883610B4B1B68ED
:102E500043610B4B1B6803610A4B1B68C3600A4B41
:102E60001B688360094B1B684360094B1B68036048
:102E7000704700BF5C168450581684505416845016
:102E8000501684504C168450481684504416845072
:102E90004016845030B10268034B04489A4208BF80
:102EA0000020704702487047DD55AABB0202F000BF
:102EB0000002F00038B5044668B1051D70212846AF
:102EC00001F028FF28462022044901F01FFF0020BE
:102ED000034B236038BD0348FCE700BF20520000CD
:102EE000DD55AABB0002F0002DE9F04385B0154680
:102EF0006F46274B04460E460FCB87E80F002DB9CF
:102F00004FF00009484605B0BDE8F0832046FFF7C2
:102F1000C1FF81460028F5D1231D0193636AA3BB3D
:102F2000236F8BB1C3F14008A84528BFA84604F120
:102F3000300031461844424601F0E8FE236F464413
:102F400043442367A5EB0805226F402A06D104F10C
:102F50003001384600F0B4FB0023236705F03F083A
:102F600035F03F0505D031462A46384600F0A8FB2B
:102F70002E44B8F1000FC3D04246314604F1300070
:102F800001F0C4FEC4F87080BCE7DFF80890B9E730
:102F90002C5000000C02F0002DE9FF4104466F4662
:102FA000134B0E460FCB87E80F002046FFF772FF4A
:102FB0008046B0B9CEB1636A251D01953BB90123A6
:102FC000226F636204F13001384600F079FB2B4632
:102FD000043E243453F8042B12BAA34246F8042FBB
:102FE000F8D1404604B0BDE8F081DFF80880F8E78A
:102FF0002C5000000502F000084B1B681B0EF02B44
:1030000008D1074B1A68074B9A4205D10020064B9E
:1030100018607047052070470620704728198450B3
:10302000241A84500000E0200C1A8450002230B58D
:10303000134640F6FC754900023802F1A15404F52C
:10304000823490424FEA840402F10102CABF236035
:1030500025605B181E2AF0D1034A13600B445360AD
:10306000024B034A1A6030BD78108450841084509B
:1030700020F80F001E4B30B51A4685B01968009134
:103080000099CC07FAD500F1A15000F582308000FC
:10309000016813680193019BD807FAD5154B164CAC
:1030A000186820231F3090FBF3F0144D01380028DE
:1030B00010DA00230130400153B14FF00042A0F17B
:1030C0002001134204D1013888424FEA5202F8D15C
:1030D00005B030BD13680393039BDB07FAD5431893
:1030E00023602B680293029B002BE3D10138DEE7BB
:1030F000B4108450AC108450E4108450DC10845020
:10310000F0B51D6885B001F01F040DB91F2C28D142
:10311000174D2E462F680197019FFF07FAD500F142
:10312000A15000F582308000006835680395039D4A
:10313000ED07FAD51F2C00EB611018BFC9430D4DE8
:1031400018BF01F01F0128600B4800680290029828
:103150001CBF00FA01F111604FF0000108BF1060C0
:10316000196010684300C00F136005B0F0BD00BFC8
:10317000B4108450E4108450DC1084500C4B89014E
:1031800018603F3020F03F00403058609960094897
:10319000D9601961596199611C3382B01960026864
:1031A0000192019AD207FAD5196002B0704700BFA8
:1031B00090108450B410845038B5A0F12003B3F5BA
:1031C000426F05462CD88F2826D800F1470300F11E
:1031D0006604DB064FEA541400D0013464013F3426
:1031E000A409013411B1A1421AD30C464FF4805006
:1031F000E300B0FBF3F0202828BF202002B11060CC
:103200000122084B21461A60FFF710FF284621468D
:10321000FFF7B4FF002038BD00F11F046409DDE7AB
:103220000148F8E71C1884502221F000464BF0B505
:103230001D4689B01C680194019CE407FAD5434BF4
:10324000002413449B001A680B181E2B88BFC0F182
:103250001E011F320B1852095343B3F5806F84BF10
:103260004FF48061B1FBF2F1274688BF091ADFF8FD
:10327000E4E000F1A150DFF8E0C000F58230A142A7
:1032800033DC2B680493049BDB07FAD5304B1B68B7
:10329000296805910599CF07FAD52E4C2E49236050
:1032A00000231E46934203F1010040D11946002637
:1032B00020F0010228488A423CD8296806910699E4
:1032C000CE07FAD525490968286807900798C007EE
:1032D000FAD5216000210C461F488B422DD10020D9
:1032E0001D499A422CD809B0F0BD2B680293029B6D
:1032F000DB07FAD503199B001B682E680396039E13
:10330000F607FAD5CEF800300023934203F101030B
:1033100006D1164623F00103B34204D80134AEE7C8
:10332000CCF80070F1E7CCF800700136F4E70E60DD
:103330000346B7E706600131BDE704600131CCE721
:1033400008600133CDE700BFB41084502404211479
:103350007C108450D4108450D8108450781084503D
:1033600008B540B1202801464FF0070228BF2021B0
:103370000020FFF75BFF0022014B1A6008BD00BF71
:103380001C188450F0B5294D85B02C462E68009647
:10339000009EF607FAD500F1A15000F582308000BA
:1033A0000568206801900198C707FAD52048214F89
:1033B000056002EB8306B24229D100275A1C1D4E3C
:1033C00022F001029A4227D823680293029BDE076B
:1033D000FAD5194B0B449B001B681F335B099A42BB
:1033E00013D2216803910399C907FAD50021154426
:1033F000056008469B1A0F4A8B4210D800205A1CC1
:103400000C4922F001029A420CD805B0F0BD52F8E6
:1034100004CBC7F800C0CEE737600133D2E71060B5
:103420000131E9E708600133EDE700BFB4108450D3
:10343000D4108450D8108450240421142DE9F04174
:10344000814BA0B01D68986820331E461A6801920F
:10345000019AD707FAD57D4B7D4A1A6032680292ED
:10346000029AD407FAD57B4A1A607B4A144611683F
:1034700003910399C907FAD5784A1168C1F340212D
:1034800037680497049FFF07FAD5754F1F602768B8
:103490000597059FFF07FAD51768002900F0CF8030
:1034A000B90540F1CC80316806910699CF07FAD56D
:1034B0006C491960216807910799C907FAD5116805
:1034C000C1F3402137680897089FFF07FAD5664F78
:1034D0001F6027680997099FFF07FAD5126800291E
:1034E00000F0AF80910540F1AC8032680A920A9AF0
:1034F000D207FAD5564A1A6032680B920B9AD70750
:10350000FAD55A4A1A6031680C910C99CC07FAD551
:103510005749196031680D910D99C907FAD5554978
:10352000196031680E910E99CF07FAD5524919608A
:1035300031680F910F99CC07FAD550491960504B5B
:103540001E46196810911099C907FAD53F4C4D4B8A
:10355000236033681193119BDB07FAD54A4B236034
:1035600033681293129BDF07FAD5484B23603A4B1E
:103570009846196813911399C907FAD5324F3860E4
:1035800033681493149BDB07FAD5226033681593D4
:10359000159BD807FAD53E4B236033681693169BCC
:1035A000D907FAD53B4B236033681793179BDA078B
:1035B000FAD5394B236033681893189BDB07FAD58B
:1035C000364B236033681993199BD807FAD5344BCF
:1035D000236033681A931A9BD907FAD5314B2360BD
:1035E00033681B931B9BDA07FAD52F4B236000F03F
:1035F0001DFC08BBD8F800301C931C9BDB07F9D5D9
:103600003D6033681D931D9BD907FAD5274B236076
:1036100033681E931E9BDA07FAD5254B2360D8F832
:1036200000301F931F9BDB07F9D50C4B1B6813F46D
:10363000805F204B08BF184620B0BDE8F0811E48CF
:10364000FAE71E48F8E700BF9010845080108450BD
:1036500000100251C01F7229B41084508810845089
:10366000C0CF0129C01F0E29C03F002940010249D7
:10367000003184A800001649400108A18044088850
:10368000B0108450C044708880077A41C0077E41E2
:1036900000006A498006164940006E490002002178
:1036A00000822021408220218082242140A161A12A
:1036B00000C861510308F1000108F1000208F1009F
:1036C000324B2DE9F74F80469246994644681A6876
:1036D000002AFCD12E4B9B461A68002AFCD14FF0E1
:1036E000FF30019100F094FC802000F097FC012352
:1036F0000720284A284DA2F59E722B60C2F83C0193
:103700001360636A254F264E3B60A36A20463360F0
:10371000D8F8003042F8043CD8F8083098470199AE
:10372000D9F80030002BFBD1BAF1000F20D10422D0
:103730001C4B1A60D9F80030002BFBD1DBF800A03D
:10374000BAF1000FFAD1D8F80C30204698473B6800
:1037500063623368A362144BC3F800A0C3F844A1AA
:10376000D9F80030002BFBD12B6003B0BDE8F08FFF
:10377000236A4020012B04BF0B4A13600B4B1960D6
:10378000C3F804A000F050FCD4E700BF1019845027
:10379000201C84500019845018188450CC17845071
:1037A000D0178450C817845084168450281C845025
:1037B000544B10B5194698B01A680192019AD20775
:1037C000FAD5514B514A1A600A680292029AD407FC
:1037D000FAD54F4A1A600A680392039AD007FAD5BD
:1037E0004C4818600A680492049AD207FAD54A4AEB
:1037F0001A600A680592059AD407FAD5474A1A60F2
:103800000A680692069AD207FAD5454A1A600A68EB
:103810000792079AD407FAD5424A1A600A680892B2
:10382000089AD207FAD5404A1A600A680992099A9A
:10383000D407FAD53D4A1A600A680A920A9AD20752
:10384000FAD53B4A1A600A680B920B9AD407FAD54C
:10385000384A1A600A680C920C9AD207FAD5364A8E
:103860001A600A680D920D9AD407FAD5334A1A6085
:103870000A680E920E9AD207FAD5314A1A600A687F
:103880000F920F9AD407FAD52E4A1A600A6810923E
:10389000109AD207FAD52C4A1A601A4B19461C689E
:1038A0001194119CE407FAD5174B18600868129020
:1038B0001298C407FAD51A600A681392139AD007AF
:1038C000FAD5124A1A600A681492149AD207FAD5E5
:1038D0001E4A1A600A681592159AD407FAD51C4A2E
:1038E0001A600A681692169AD007FAD5194A1A6011
:1038F0000A681792179AD207FAD5174A1A6018B0B1
:1039000010BD00BFB010845080108450009365211A
:1039100000043190409665900083612100C33021FE
:1039200000C3649000816190004610210081112144
:103930000041442100C320290C4610C800863121D3
:1039400000C3602140C128294096652100133190B1
:1039500040962529594614C840043249494B10B5B0
:10396000194694B01A680092009AD207FAD5464BCD
:10397000464A1A600A680192019AD407FAD5444A65
:103980001A600A680292029AD007FAD54148186074
:103990000A680392039AD207FAD53F4A1A600A6866
:1039A0000492049AD407FAD53C4A1A600A68059230
:1039B000059AD207FAD53A4A1A600A680692069A18
:1039C000D407FAD5374A1A600A680792079AD207CD
:1039D000FAD5354A1A600A680892089AD407FAD5C7
:1039E000324A1A600A680992099AD207FAD5304A0F
:1039F0001A600A680A920A9AD407FAD52D4A1A6000
:103A00000A680B920B9AD207FAD52B4A1A600A68F9
:103A10000C920C9AD407FAD5284A1A600A680D92BB
:103A20000D9AD207FAD5264A1A600A680E920E9AA3
:103A3000D407FAD5234A1A600A680F920F9AD20760
:103A4000FAD5214A1A600F4B19461C681094109C35
:103A5000E407FAD50C4B1860086811901198C40758
:103A6000FAD51A600A681292129AD007FAD5174A44
:103A70001A600A681392139AD207FAD5144A1A6088
:103A800014B010BDB0108450801084508090652117
:103A90000004099040966590808061218020082173
:103AA00080206490008161900046102100811121E6
:103AB0000041442180202029024610C800860921A7
:103AC00080206021402128294096652140962529A3
:103AD000594614C8504B10B51C4696B01A6801924E
:103AE000019AD207FAD54D4B4D4A1A6022680292CC
:103AF000029AD207FAD54B4A1A604B4A42EA8040F2
:103B000022680392039AD207FAD5186022680492B9
:103B1000049AD007FAD5454A1A60A2F5800242EA13
:103B2000814122680592059AD207FAD51960226868
:103B30000692069AD007FAD53D4A1A602268079283
:103B4000079AD107FAD53B4A1A6022680892089A68
:103B5000D207FAD5384A1A6022680992099AD00722
:103B6000FAD5364A1A6022680A920A9AD107FAD51B
:103B7000334A1A6022680B920B9AD207FAD5314A5F
:103B80001A6022680C920C9AD007FAD52E4A1A6055
:103B900022680D920D9AD107FAD52C4A1A60226834
:103BA0000E920E9AD207FAD5294A1A6022680F920D
:103BB0000F9AD007FAD5274A1A60216810911099F8
:103BC000C907FAD51A60144B1A4619681191119950
:103BD000C807FAD5114B2049196011681291129942
:103BE000C907FAD51D491960116813911399CC07BB
:103BF000FAD50B491960116814911499C807FAD5C0
:103C000017491960116815911599C907FAD5154A10
:103C10001A6016B010BD00BFB010845080108450E0
:103C20004004419000862929D81001C840144190D1
:103C300040142129401465210034409000310C903B
:103C4000C0400C90C030202940960D9000416090FB
:103C5000031645C80086112100416021594644C819
:103C60004014459040142D90264870B5054688B004
:103C700004680094009CE607FAD5234C23480460AE
:103C8000234C44EA83432C680194019CE407FAD551
:103C90000360930143EA824242F0104444F4C0447A
:103CA0002B680293029BDE07FAD504602B6803930E
:103CB000039BDB07FAD5174B03608B0143EA814175
:103CC00041F0104343F4C0432E680496049EF60767
:103CD000FAD503602B680593059BDE07FAD50460CF
:103CE00041F058412B680693069BDC07FAD501602A
:103CF00042F058422B680793079BDB07FAD5026016
:103D000008B070BDB0108450C021022980108450CA
:103D10008071009880611890354B8EB019461A68F2
:103D20000092009AD207FAD5324B334A1A600A68D9
:103D30000192019AD007FAD5304A1A600A680292B5
:103D4000029AD207FAD52E4A1A600A680392039A99
:103D5000D007FAD52B4A1A600A680492049AD2074F
:103D6000FAD5294A1A600A680592059AD007FAD549
:103D7000264A1A600A680692069AD207FAD5244A99
:103D80001A600A680792079AD007FAD5214A1A6082
:103D90000A680892089AD207FAD51F4A1A600A6878
:103DA0000992099AD007FAD51C4A1A600A680A9241
:103DB0000A9AD207FAD51A4A1A6008680B900B982B
:103DC000C007FAD51A600A680C920C9AD007FAD587
:103DD000144A1A600A680D920D9AD207FAD5124A4F
:103DE0000E211A6000200D230F220EB0FFF73CBFFA
:103DF000B0108450801084508043012940633921E1
:103E0000807001298020542100D13490C04034902A
:103E1000C0302029C0530D9000413890832308C83A
:103E200080E3102100413821CF4308C801232DE948
:103E3000F04192B0CDE90333624B1D461A680592FA
:103E4000059AD207FAD5604B604C2360604B194647
:103E50001A680692069AD707FAD55E4B1A68D604F6
:103E600000F1A8802A680792079AD007FAD55A4A23
:103E700022600A680892089AD207FAD51E68C6F32B
:103E80000036002E40F098801220FFF7F3F8074626
:103E90001320FFF7EFF887428CBF12201320FFF7A3
:103EA000E9F8471EFFF738FF03AB01AA3946122095
:103EB000FFF726F904AB804602AA39461320FFF724
:103EC0001FF900EB4800022832D003283ED0012819
:103ED00074D12B680993099BDB07FAD53F4B23600C
:103EE0002B680A930A9BD807FAD53D4B23602B68B1
:103EF0000F930F9BD907FAD53A4B23602B68109389
:103F0000109BDA07FAD5384B23602B681193119B6D
:103F1000DB07FAD5354B2360013F25D51023192245
:103F200018210020FFF7A0FE304612B0BDE8F08156
:103F30002B680B930B9BD907FAD52D4B23602B686D
:103F40000C930C9BDA07FAD52A4BCFE72B680D931D
:103F50000D9BDB07FAD5284B23602B680E930E9B35
:103F6000D807FAD5254BC1E703AB01AA3946122081
:103F7000FFF7C6F804AB044602AA39461320FFF740
:103F8000BFF810EB440402D1FFF712FCC4E7FFF7BF
:103F9000E5FC022C08D0032C09D0012C10D11721EC
:103FA0001620FFF797FDB7E715211420F9E70F2139
:103FB0000E20F6E7124EB7E7124EB5E7124EB3E702
:103FC000124EB1E7B010845000084A51801084505E
:103FD000B41084508810845000084E5100065A498D
:103FE00040065E49000442410014424940042E4903
:103FF000000652494006564900063A4940063E49E5
:104000000608F1000708F1000408F1000508F100B6
:10401000014B1860704700BF081A8450014B1860AC
:10402000704700BF041A8450034A13681842FCD03A
:10403000024A106018467047001A8450081A8450CB
:1040400010B50A4C23681BB101230020236010BD6A
:1040500000F046F80028F7D00138062803D8044BB2
:1040600053F8200010BD034810BD00BF6C060120AE
:1040700040520000FE8FFFFFBFF34F8F0549064BF4
:10408000CA6802F4E0621343CB60BFF34F8F00BFF6
:10409000FDE700BF00ED00E00400FA0530B44FF08A
:1040A000FE320025074B084C08494968C3F8002434
:1040B000C3F80424C3F80824C3F80C24C4F800553A
:1040C00030BC0847001084500000845030050120A7
:1040D000024BD0E90012C3E90012704730050120FD
:1040E00038B500F02FF820B1032400F063F8204623
:1040F00038BD00F031F898B900F0ACF898B90F4D20
:10410000D5F828391B0EF02B08D1D5F8242A0C4BF2
:104110009A420AD0072400F017F8E6E70624FAE7E7
:104120000424204638BD0024F5E7012000F092F871
:1041300004460028F7D1C5F80C0AD8E700108450CF
:104140000000E0200020704700207047014BC3F8BA
:10415000040A70470010845010B5114800F048F868
:1041600000B110BD0F4800F043F80028F9D10E4C03
:10417000204600F03DF80028F3D10C4B0C481C60A1
:1041800000F036F801460028EBD100F02DF8044687
:1041900008B1204610BD00F03FF82046FAE700BF06
:1041A0004405012038050120400501204805012073
:1041B0003C05012008B5084800F024F8074800F045
:1041C00021F8074800F01EF8064800F01BF8BDE88B
:1041D000084000F00BB800BF44050120380501205D
:1041E000400501203C05012000207047704700BFBA
:1041F00008B5034B02681B6810689847002008BD8B
:104200005405012008B5034B02685B6810689847A5
:10421000002008BD5405012070B5094C094D2069E6
:10422000AB68984718B1084B08485B68984700216D
:10423000074AEB6811602069BDE87040184700BF6D
:104240006405012054050120300501205C52000066
:1042500070060120F8B51A4D1A4E0446B268286956
:104260009047E8B9184F3B684CB1A3B1012B19D066
:10427000013B3B602869F36898470020F8BD43B9CB
:104280000121124AC2F800151149D1F81029002A5B
:10429000FBD101333B60F368286998470020F8BDE3
:1042A0000C48F8BD0A4AD2F81039002BFBD1074A56
:1042B0006FF07E40C2F80035FFF748FF3B68D7E754
:1042C000640501205405012070060120000084507F
:1042D00000108450E98FFFFF10B5044630B16368C9
:1042E000DB0602D500232360636010BD024B034848
:1042F0005B689847F3E700BF300501207C5200005F
:10430000B0B1436893B1DB060ED5012350E8002F0E
:10431000194640E8001C9CF0000FF7D1012AF5D0A7
:10432000BFF35F8F00207047034870470348704712
:104330006FF4E040704700BFE98FFFFFEA8FFFFF97
:10434000034668B142683AB1D20607D5BFF35F8F22
:10435000002210461A6070470348704703487047B0
:104360006FF4E040704700BFEA8FFFFFE98FFFFF67
:1043700010B5044620B1002211232260636010BDF5
:104380000148FFF78BFEF6E7A452000070470020BB
:1043900070470FB407B504A951F8040B0191FDF75C
:1043A00067F803B05DF804EB04B0704738B50C460D
:1043B000054658B151B10B6843B14B6833B11C226B
:1043C000002100F0D7F800202C6138BD6FF01500F7
:1043D000FBE7D0E9002130B54FF03333A2FB0324D3
:1043E000D51843EB0405A1FB0313521844EB030457
:1043F000521944F10002891843F10003C0E9001387
:1044000030BD0B6810B5002B10DD0A22013B0B609C
:1044100003684468A3FB021302FB04331A0F23F062
:104420007043C0E900133032104610BD3022FBE764
:104430002DE9F84F9A46D37880466F2B0F461546E4
:10444000A3F1410B29D024D8582B14BF0A261026DB
:10445000DDF828903246002340463946FBF748FFF6
:10446000092AD4B21ED83034B045E4B277F1000343
:1044700009F8014D01D3D14511D82B789B0605D5FC
:10448000082E15D1AB7843F00803AB704846BDE861
:10449000F88F03F0F703702BD7E70826D8E780469C
:1044A0000F46D7E7BBF1190F94BF37345734DBE71A
:1044B000102EEBD1AB7843F01003E6E72DE9F8437B
:1044C0008046894616461F461546BD42A5EB0604A2
:1044D00005D30FB1204608E02B78002BFAD04946CF
:1044E00015F8010BC0470028EFDABDE8F8837047E4
:1044F000002008B5FCF7CAFF704700F0D2BB0146A8
:10450000006800F0CEBB00210120FFF7F6BF08B520
:10451000FDF73EF8BDE80840FDF7B0B803460020BF
:104520001A5C02B970470130FAE7034600201A5CB2
:104530000AB1884200D170470130F8E710B562B186
:1045400003460139841813F8010B11F8012FA34217
:1045500001D09042F7D0801A10BD1046FCE710B58C
:10456000431E0A44914200D110BD11F8014B03F8DB
:10457000014FF7E70346C9B20244934200D17047A6
:1045800003F8011BF9E74FF0FF3070470C22036975
:10459000C9B201FB0233186C00F0070070474FF0FE
:1045A0002003EFF3118283F31288BFF36F8F036848
:1045B00003F0C00343F00203036082F31188BFF3EA
:1045C0006F8F7047034670B50069C9B24FF0200481
:1045D000EFF3118684F31288BFF36F8F0C2505FB70
:1045E0000104246C14F0C00401D0A24210D10122B5
:1045F00005FB01000264002086F31188BFF36F8F72
:1046000028B95B6803EBC1014B689847002070BD77
:104610004FF0FF30F0E78022FFF7D4BFF8B5069FD8
:104620000469C9B24FF02005EFF3118C85F31288AD
:10463000BFF36F8F0C2606FB0146356C05F0070EA5
:10464000BEF1010F11D1002537648CF31188BFF33F
:104650006F8F45B90C2606FB0144C4E90E2343685D
:1046600053F8313098472846F8BD05F0C005AF42F1
:1046700014BF4FF0FF356FF07705E6E713B58024E0
:104680000094FFF7CBFF02B010BD6FF085007047BC
:1046900010B41C240069CBB203FB040000215DF8B8
:1046A000044B1047002000F0AEBA002000F0ECBA36
:1046B0000B460269D2E9010183E80300002070473C
:1046C00043681B68D3F88004C3F8800470474368CC
:1046D00002691B68D3F8100150B1002052691278AA
:1046E0000A70C3F81001D3F8102101221A60704734
:1046F0004FF0FF3070470268D2F8583143B9416833
:10470000890707D4D2F82001003818BF012070476C
:10471000012070471846704742681368D3F80413A5
:10472000C90518D5D3F82011A9B14FF02000EFF337
:10473000118180F31288BFF36F8FD3F8200130B15D
:104740000020C3F82001D3F820010120D86081F3B4
:104750001188BFF36F8F5268D20615D54FF0200134
:10476000EFF3118281F31288BFF36F8FD3F85811E2
:1047700011B10021C3F800154FF48001C3F80813EC
:1047800082F31188BFF36F8F704710B50446002283
:1047900001210920FCF7E6FE0920FCF7C5FE2046B2
:1047A000BDE81040FDF7FCBA10B504460022012117
:1047B0000820FCF7D7FE0820FCF7B6FE2046BDE82F
:1047C0001040FDF7EDBA30B543681360037A03F18A
:1047D0000053013BDB00456814681D44AC4202D91C
:1047E0006FF0010030BD65798D4202D0083414604D
:1047F000F1E70020F6E7002008B5FDF76DF830B5C9
:1048000089B0154601230A460146684600F0E0F8E3
:10481000044640B9202269462846FBF783FD00285C
:1048200008BF6FF06404204609B030BD2DE9F041A7
:1048300090B09DF85C600446884615461F460146C8
:104840003346402208A800F0C3F8F0B910224046D1
:1048500008A9FBF767FDB0B1334639466846169A9A
:1048600000F0B6F888B92022334669460DEB020005
:1048700000F0AEF848B920212B4622460DEB01008E
:1048800000F021F801E06FF0640010B0BDE8F081A5
:1048900013B501240194049C0094FFF7C7FF02B0F4
:1048A00010BD08B500F00DF808B900F06EF808BDAD
:1048B00013B500240194049C0094FFF7B7FF02B0E5
:1048C00010BDFDF71FBC30B504460D46AFB00392D6
:1048D0000293FDF707FCDDE902212346009505A8B8
:1048E00000F0FDF90446FDF705FCA4F57003A3F6FE
:1048F00076030E2B0DD8DFE803F00E0C0C0C0C0C1D
:104900000C0C0C0C0E0E0C0E08006FF065002FB096
:1049100030BD2046FBE76FF01500F8E72DE9F84FB2
:1049200015469A429246804689461E4628BF9A46B8
:10493000AB46FDF7D7FB0027AF4205D30024FDF7B8
:10494000D9FB2046BDE8F88F0A9B09EB070133B17C
:1049500000230AF10304A4089C420FD10A9952468D
:104960004046FEF7C1FA04460028E8D1ABEB0A0B3B
:104970005E45B246374428BFDA46DDE751F82300EA
:104980000A9A42F823000133E6E7FDF7BBBB012397
:10499000FDF7D0BB13B5CDE90010FDF7A3FBDDE9B2
:1049A0000010FEF7F9FA0446FDF7A4FBA4F5700326
:1049B000A3F50073052B05D8012202FA03F313F0C7
:1049C000250F02D1204602B010BD6FF01500FAE7A6
:1049D00010B5A2B0044605A8CDE902210193FDF768
:1049E000DBFB50B9DDE90132039905A8FDF7A2FB15
:1049F00018B9214605A8FFF7CDFF22B010BD13B5A9
:104A0000044608460191FDF7E7FB012302462046D4
:104A1000019902B0BDE81040FDF7EEBB10B50446A9
:104A200000F049F81CB1C34303F001032380C0F335
:104A30004F0010BD0A4600230146FDF7DDBB20F004
:104A400003031B68BFF34F8F820714BF180C98B283
:104A5000704708B5FDF778FD08B9002008BD0230A1
:104A6000FFF7EDFF4FF6FF739842F7D1F5E72DE919
:104A7000F0410546FDF768FD0446FFF7EAFF211DFA
:104A8000002407462646A74207D84FF000080DB17C
:104A9000C5F800803046BDE8F0810846FFF7CFFF3B
:104AA000C3439BB288460231002BF0D09E4238BFF0
:104AB0001E460134E7E70020FFF7D9BF13B50446CF
:104AC00001A8FFF7D4FFA04214D2019BABB1E14390
:104AD00023F0030089B29B0715BF4FF6FF736FEAFF
:104AE000014143EA01416FEA1141FDF7F3FF002064
:104AF00002B010BD6FF01500FAE76FF00B00F7E79A
:104B000003465A6B00233C309A4200D17047C1687B
:104B100001330844F8E7FFF793BA08B5FCF7EAFC5D
:104B2000FFF7EAFCBDE80840FFF78ABA4FF47F03BD
:104B3000D3F83021D3F83401BFF34F8F092A03D1C2
:104B4000431E58425841704700207047004700F00C
:104B5000C2B8F7B5044618B1012825D003B0F0BD9E
:104B60004FF050230222C3F80823C3F80401D3F8FE
:104B700004210122DA6001239C4218BF002542F281
:104B800010774FF050268DF8073008BF0DF107055C
:104B9000ACB1012CE2D125B1D6F80C3403F00103FD
:104BA0002B70D6F80C3412E04FF050230022C3F8DB
:104BB0000803C3F80021D3F800215860DBE725B1D2
:104BC000D6F8183403F003032B70D6F81834DB033F
:104BD000C4D52DB90120FFF7BAFF013FD8D1BDE7F9
:104BE0009DF80730012BF5D0B8E708B50520FCF794
:104BF000ABFC10B90520FCF797FC4FF050230122C5
:104C0000C3F8182508BD08B510B1012831D008BD7A
:104C10004FF05022D2F81834D2F81814C90313D424
:104C2000D2F81434DB0719D401234FF05022C2F814
:104C300018350023C2F80431D2F804310223C2F837
:104C4000043301239360E2E703F00303022BECD06B
:104C5000012BEAD00020FFF77CFFE5E7D2F81C34F7
:104C600003F00303013B012BF4D80223C2F8043301
:104C7000CDE74FF050230022C3F80021D3F80021E4
:104C8000C3F804031860C2E7FFF763BF704738B189
:104C9000C3681888C0F30800A0F5807358425841D3
:104CA000704710B54FF02003EFF3118483F312889F
:104CB000BFF36F8FFFF79FFD84F31188BFF36F8FF2
:104CC00010BDFFF757BCFFF74ABCEFF30580003873
:104CD00018BF0120704708B1FCF700BC70472DE9F0
:104CE000F041069F044615461E46FDF7B3FF38B94E
:104CF0003B46324629462046BDE8F041FDF7D0BF8D
:104D0000BDE8F0810A460021FEF756BAFFF727BC3E
:104D1000FFF730BC0A460021FFF72CBC01EB8202F2
:104D200004388A4201D10020704752F8043D1BBA72
:104D300040F8043FF5E7FFFF48B6FF7F01000000A1
:104D4000B514000000000000E9190000804D0000CB
:104D5000174B0000000000008B470000984D00003A
:104D6000A9470000B04D0000211B0000000000001A
:104D70001B4B0000000000007D2700000000000029
:104D8000F5530000805000006450000090050120A1
:104D90009C050120DC4F0000005400000851000079
:104DA000E4500000940501200C050120D64F0000BE
:104DB0000A540000F8500000E4500000980501205B
:104DC000F0040120D04F0000000000000745000063
:104DD000000000000745000000000000074500003B
:104DE000000000000745000000000000074500002B
:104DF000352A00004D4B0000000000000745000070
:104E00000000000007450000B04D000019470000F9
:104E1000984D000019470000000000000745000001
:104E200000000000074500000000000007450000EA
:104E300000000000074500000000000007450000DA
:104E400000000000074500000000000007450000CA
:104E500000000000074500000000000007450000BA
:104E600000000000074500000000000007450000AA
:104E7000000000000745000000000000074500009A
:104E8000000000000745000000000000074500008A
:104E9000000000000745000000000000074500007A
:104EA000000000000745000000000000074500006A
:104EB000000000000745000000000000074500005A
:104EC000000000000745000000000000074500004A
:104ED000000000000745000000000000074500003A
:104EE000000000000745000000000000074500002A
:104EF000000000000745000000000000074500001A
:104F00000000000007450000000000000745000009
:104F100000000000074500000000000007450000F9
:104F200000000000074500000000000007450000E9
:104F300000000000074500000000000007450000D9
:104F400000000000074500000000000007450000C9
:104F500000000000074500000000000007450000B9
:104F600000000000074500000000000007450000A9
:104F70000000000007450000000000000745000099
:104F80000000000007450000000000000745000089
:104F90000000000007450000000000000745000079
:104FA0000000000007450000000000000745000069
:104FB0000000000007450000000000000745000059
:104FC0000000000007450000000000000745000049
:104FD00000800080FF7F00800080FF7F00800080D5
:104FE000FF7FFFFFFFFFFFFFFFFFFFFFFFFFFFFF51
:104FF000DEE61E284CBBCE8F025B0000DEE61E28DC
:105000004CBBCE8F025B0000DEE61E2883845186F7
:10501000025B0100DEE61E284CBBCE8F025B000067
:10502000DEE61E28EAAC45B8025B00000200000084
:1050300000000000092E0000412E000000000000CA
:105040000338FDD870470000000000000002000097
:105050000004000000080000001000000000000034
:10506000F14400008B460000174600007D4600001A
:10507000000000008D45000000000000000000005E
:10508000991A0000FD1A0000A5460000AB4600007A
:10509000A5190000751900000000000000900050E4
:1050A000D45000000100000000800050DC500000DF
:1050B00001000000010000000E000200C00001001D
:1050C000CF0003001D0000001B000200DC000100F7
:1050D000DA000300B450000004000000C4500000D7
:1050E00004000000CF460000791B0000C14600000C
:1050F0003D1C0000B146000000800050020000008E
:1051000000000000A85000000090005002000000C5
:10511000000000009C5000000000000000020000A1
:105120000004000000080000001000000000000063
:105130000002000000040000000800000010000051
:10514000404D0000704D0000704D0000804D00008B
:10515000804D0000FFFFFFFFFFFFFFFFFFFFFFFF8E
:10516000000000000000000000000000010000003E
:10517000FFFFFFFFFCFFFFFFFFFFFFFFFFFFFFFF42
:10518000000000000000000000000000010000001E
:10519000FFFFFFFF512563FCC2CAB9F3849E17A726
:1051A000ADFAE6BCFFFFFFFFFFFFFFFF00000000BE
:1051B000FFFFFFFF0000000096C298D84539A1F418
:1051C000A033EB2D817D0377F240A463E5E6BCF8C4
:1051D00047422CE1F2D1176BF551BF376840B6CB8F
:1051E000CE5E316B5733CE2B169E0F7C4AEBE78E8B
:1051F0009B7F1AFEE242E34FFFFFFFFF7F000000AC
:10520000800000000000000000000000FFFFFFFF22
:105210007F0000008000000000000000000000008F
:1052200067E6096A85AE67BB72F36E3C3AF54FA537
:105230007F520E518C68059BABD9831F19CDE05B63
:10524000FF8FFFFFFF8FFFFFFE8FFFFFFE8FFFFF30
:10525000FD8FFFFFFC8FFFFFFC8FFFFF436F756C1F
:1052600064206E6F74206C6F636B20706F77657253
:105270002073617665206D75746578006D75746551
:10528000785F667265652063616C6C656420776920
:105290007468204E554C4C20706172616D65746568
:1052A0007200000043616E277420696E6974696141
:1052B0006C697A65206D757465782C207761732030
:1052C0004E554C4C0D0A00417474656D7074696ED6
:1052D0006720746F20626F6F7420736C6F74202569
:1052E000642E0D0A004E6F2066775F696E666F2030
:1052F00073747275637420666F756E642E0D0A0088
:10530000417474656D7074696E6720746F20626F8C
:105310006F742066726F6D206164647265737320B0
:10532000307825782E0A0D004661696C656420741A
:105330006F2076616C69646174652C207065726D94
:10534000616E656E746C7920696E76616C696461FA
:1053500074696E67210A0D004669726D7761726526
:105360002076657273696F6E2025640D0A004661B0
:10537000696C656420746F2070726F74656374204B
:10538000423020666C6173682C2063616E63656CCB
:1053900020737461727475702E0A0D004E6F206256
:1053A0006F6F7461626C6520696D61676520666FFF
:1053B000756E642E2041626F7274696E6720626F31
:1053C0006F742E0A0D00286E696C29004661696CA5
:1053D000656420746F207265626F6F743A20737019
:1053E000696E6E696E6720656E646C6573736C7947
:1053F0002E2E2E0A00636C6F636B40353030300008
:1054000075617274403930303000756172744038A3
:1054100030303000426F6F74696E67202830782515
:1054200078292E0D0A00496E76616C6964206669E0
:10543000726D7761726520696E666F20666F726D3E
:1054400061742E0A0D00546865206669726D77617B
:10545000726520646F65736E27742062656C6F6E71
:10546000672061742064657374696E6174696F6E1E
:1054700020616464722E0A0D0073726320616E6491
:1054800020647374206D7573742062652065717576
:10549000616C20666F72206C6F63616C2063616C5D
:1054A0006C732E0A0D004669726D77617265206912
:1054B0006E666F20646F65736E277420706F696EFF
:1054C0007420746F20697473656C662E0A0D004633
:1054D0006972776D61726520686173206265656EBF
:1054E00020696E76616C6964617465643A20307815
:1054F00025782E0A0D004669726D776172652076F7
:10550000657273696F6E2028257529206973207371
:105510006D616C6C6572207468616E206D6F6E6F6A
:10552000746F6E696320636F756E746572202825D1
:1055300075292E0A0D00496E76616C6964207369C5
:105540007A65206F7220746F74616C5F73697A651D
:1055500020696E206669726D7761726520696E667A
:105560006F2E0A0D004669726D7761726520696E53
:10557000666F206973206E6F742077697468696E36
:10558000207369676E656420726567696F6E2E0AA5
:105590000D00426F6F7420616464726573732069DB
:1055A00073206E6F742077697468696E2073696701
:1055B0006E656420726567696F6E2E0A0D00526514
:1055C0007365742068616E646C6572206973206E07
:1055D0006F742077697468696E207369676E65649B
:1055E00020726567696F6E2E0A0D00436F756C64DB
:1055F000206E6F742066696E642076616C69642029
:105600006669726D776172652076616C6964617438
:10561000696F6E20696E666F2E0A0D0056616C69A7
:10562000646174696F6E20696E666F20646F657364
:105630006E27742062656C6F6E6720746F207468CB
:105640006973206669726D776172652E0A0D00625A
:105650006C5F63727970746F5F696E69742829205A
:1056600072657475726E65642025642E0A0D00766D
:1056700065726966795F7075626C69635F6B657985
:105680007328292072657475726E65642025642EF6
:105690000A0D0041207075626C6963206B6579208A
:1056A000636F6E7461696E73203078464646462C8F
:1056B00020776869636820697320756E73757070F0
:1056C0006F727465640A0D004B657920256420684B
:1056D0006173206265656E20696E76616C696461D4
:1056E0007465642C20747279206E6578742E0A0DAE
:1056F000007075626C69635F6B65795F646174618A
:105700005F72656164206661696C65643A20256436
:105710002E0A0D00566572696679696E6720736995
:10572000676E617475726520616761696E7374205C
:105730006B65792025642E0A0D00486173683A2054
:105740003078253032782E2E2E253032780D0A0012
:10575000496E76616C69646174696E67206B657906
:105760002025642E0A0D004669726D7761726520EE
:105770007369676E617475726520766572696669B2
:1057800065642E0A0D005075626C6963206B657943
:10579000206469646E2774206D617463682C2074C2
:1057A0007279206E6578742E0A0D004669726D77E5
:1057B0006172652076616C69646174696F6E2066E0
:1057C00061696C65642077697468206572726F72B4
:1057D0002025642E0A0D004661696C656420746F93
:1057E0002076616C6964617465207369676E6174A9
:1057F0007572652E0A0D0053657474696E67206DAD
:105800006F6E6F746F6E696320636F756E7465720F
:10581000202876657273696F6E3A2025642C207398
:105820006C6F743A202564290D0A004D6F6E6F74F9
:105830006F6E69632076657273696F6E20636F7532
:105840006E7465722069732064697361626C65644B
:105850002E0D0A007365745F6D6F6E6F746F6E69E5
:10586000635F636F756E7465722829206572726F4D
:10587000723A2025640A0D004552524F523A204395
:10588000616E6E6F742066756C66696C6C2045582D
:10589000545F41504920726571756573742E0D0A0D
:1058A000005741524E494E473A204F7074696F6E0F
:1058B000616C204558545F4150492072657175658F
:1058C0007374206E6F742066756C66696C6C6564A9
:1058D0002E0D0A0076332E312E39392D6E63733139
:1058E000002A2A2A20426F6F74696E67205A6570F9
:1058F000687972204F53206275696C64202573208B
:105900002573202A2A2A0A0000000000FFFFFFFF5B
:10591000FF0000008F4300008745000000000000EA
:1059200000C2010000010300000000008406012005
:1059300085060120000000000000000000C20100F8
:1059400000010300000000008606012087060120F8
:10595000000000000090D003FFFF000000000000E6
:105960007940000068050120740501206C050120C4
:10597000640501204005012074060120110000008B
:1059800071430000D9420000014300004143000080
:10599000880501204C050120800501200000000041
:1059A0007805012078060120110000007C06012006
:1059B000110000008006012011000000000000001E
:0859C0000000000000000000DF
:108000003DB8F39600000000000200006885000003
:108010000000000000000000000000000000000060
:10802000FFFFFFFFFFFFFFFFFFFFFFFFFFFFFFFF60
:10803000FFFFFFFFFFFFFFFFFFFFFFFFFFFFFFFF50
:10804000FFFFFFFFFFFFFFFFFFFFFFFFFFFFFFFF40
:10805000FFFFFFFFFFFFFFFFFFFFFFFFFFFFFFFF30
:10806000FFFFFFFFFFFFFFFFFFFFFFFFFFFFFFFF20
:10807000FFFFFFFFFFFFFFFFFFFFFFFFFFFFFFFF10
:10808000FFFFFFFFFFFFFFFFFFFFFFFFFFFFFFFF00
:10809000FFFFFFFFFFFFFFFFFFFFFFFFFFFFFFFFF0
:1080A000FFFFFFFFFFFFFFFFFFFFFFFFFFFFFFFFE0
:1080B000FFFFFFFFFFFFFFFFFFFFFFFFFFFFFFFFD0
:1080C000FFFFFFFFFFFFFFFFFFFFFFFFFFFFFFFFC0
:1080D000FFFFFFFFFFFFFFFFFFFFFFFFFFFFFFFFB0
:1080E000FFFFFFFFFFFFFFFFFFFFFFFFFFFFFFFFA0
:1080F000FFFFFFFFFFFFFFFFFFFFFFFFFFFFFFFF90
:10810000FFFFFFFFFFFFFFFFFFFFFFFFFFFFFFFF7F
