:020000040000FA
:10C000003DB8F396000000000002000090D7050044
:10C010000000000000000000000000000000000020
:10C02000FFFFFFFFFFFFFFFFFFFFFFFFFFFFFFFF20
:10C03000FFFFFFFFFFFFFFFFFFFFFFFFFFFFFFFF10
:10C04000FFFFFFFFFFFFFFFFFFFFFFFFFFFFFFFF00
:10C05000FFFFFFFFFFFFFFFFFFFFFFFFFFFFFFFFF0
:10C06000FFFFFFFFFFFFFFFFFFFFFFFFFFFFFFFFE0
:10C07000FFFFFFFFFFFFFFFFFFFFFFFFFFFFFFFFD0
:10C08000FFFFFFFFFFFFFFFFFFFFFFFFFFFFFFFFC0
:10C09000FFFFFFFFFFFFFFFFFFFFFFFFFFFFFFFFB0
:10C0A000FFFFFFFFFFFFFFFFFFFFFFFFFFFFFFFFA0
:10C0B000FFFFFFFFFFFFFFFFFFFFFFFFFFFFFFFF90
:10C0C000FFFFFFFFFFFFFFFFFFFFFFFFFFFFFFFF80
:10C0D000FFFFFFFFFFFFFFFFFFFFFFFFFFFFFFFF70
:10C0E000FFFFFFFFFFFFFFFFFFFFFFFFFFFFFFFF60
:10C0F000FFFFFFFFFFFFFFFFFFFFFFFFFFFFFFFF50
:10C10000FFFFFFFFFFFFFFFFFFFFFFFFFFFFFFFF3F
:10C11000FFFFFFFFFFFFFFFFFFFFFFFFFFFFFFFF2F
:10C12000FFFFFFFFFFFFFFFFFFFFFFFFFFFFFFFF1F
:10C13000FFFFFFFFFFFFFFFFFFFFFFFFFFFFFFFF0F
:10C14000FFFFFFFFFFFFFFFFFFFFFFFFFFFFFFFFFF
:10C15000FFFFFFFFFFFFFFFFFFFFFFFFFFFFFFFFEF
:10C16000FFFFFFFFFFFFFFFFFFFFFFFFFFFFFFFFDF
:10C17000FFFFFFFFFFFFFFFFFFFFFFFFFFFFFFFFCF
:10C18000FFFFFFFFFFFFFFFFFFFFFFFFFFFFFFFFBF
:10C19000FFFFFFFFFFFFFFFFFFFFFFFFFFFFFFFFAF
:10C1A000FFFFFFFFFFFFFFFFFFFFFFFFFFFFFFFF9F
:10C1B000FFFFFFFFFFFFFFFFFFFFFFFFFFFFFFFF8F
:10C1C000FFFFFFFFFFFFFFFFFFFFFFFFFFFFFFFF7F
:10C1D000FFFFFFFFFFFFFFFFFFFFFFFFFFFFFFFF6F
:10C1E000FFFFFFFFFFFFFFFFFFFFFFFFFFFFFFFF5F
:10C1F000FFFFFFFFFFFFFFFFFFFFFFFFFFFFFFFF4F
:10C20000000C002045C30000C7C30000A9D20000F5
:10C21000B3D20000BDD20000D1D20000C7D20000CE
:10C2200000000000000000000000000035E10000F8
:10C23000E3C3000000000000F9E00000EBC30000D1
:10C24000000000000000000000000000EFC300003C
:10C2500000000000F3C30000000000000000000028
:10C26000F7C30000FBC30000FFC3000003C40000CD
:10C270000000000007C400000BC400000FC4000051
:10C2800013C4000017C400000000000000000000FC
:10C290001BC400001FC400000000000000000000DC
:10C2A00023C40000000000000000000027C40000BC
:10C2B0002BC400002FC4000033C4000037C40000AA
:10C2C0003BC400003FC4000043C4000047C400005A
:10C2D0004BC40000000000004FC40000000000003C
:10C2E00053C400000000000057C40000000000001C
:10C2F0005BC400000000000000000000000000001F
:10C30000000000005FC4000000000000000000000A
:10C31000000000000000000000000000000000001D
:10C320000000000063C400000000000000000000E6
:10C3300000000000000000000000000000000000FD
:10C3400067C40000002080F31488BFF36F8F80F370
:10C350000A8880F30B8814490860BFF34F8F00F000
:10C36000BBFF124C124DAC4209DA21686268A36827
:10C37000043BA2BFC858D050FAE70C34F3E70D4B8A
:10C380000D4CA34208DA19685A680020043AA4BF89
:10C390008850FBE70833F4E772B60848084908609C
:10C3A00001F022F800F044FF94ED00E06CC40000BE
:10C3B00090C4000090C40000B0C4000000C200009F
:10C3C00008ED00E0FEE7FFF7FEBF00F06DBF00F0F4
:10C3D00070BF00F073BF00F07BBF00F074BF01F0CE
:10C3E000A9BEFFF7FEBF01F087BEFFF7FEBFFFF754
:10C3F000FEBFFFF7FEBFFFF7FEBFFFF7FEBFFFF771
:10C40000FEBFFFF7FEBFFFF7FEBFFFF7FEBFFFF760
:10C41000FEBFFFF7FEBFFFF7FEBFFFF7FEBFFFF750
:10C42000FEBFFFF7FEBFFFF7FEBFFFF7FEBFFFF740
:10C43000FEBFFFF7FEBFFFF7FEBFFFF7FEBFFFF730
:10C44000FEBFFFF7FEBFFFF7FEBFFFF7FEBFFFF720
:10C45000FEBFFFF7FEBFFFF7FEBFFFF7FEBFFFF710
:10C46000FEBFFFF7FEBFFFF7FEBF00BF7C19010054
:10C47000202F0020F800000080190100401C00203F
:10C480000000000080190100201C002000000000B6
:10C4900020300020301A0000401C0020E012000074
:10C4A000201C002020000000001C002004000000D0
:10C4B000FFFFFFFFFFFFFFFFFFFFFFFFFFFFFFFF8C
:10C4C000024B0A460146186800F05CB8AC2F002009
:10C4D00008B5074B044613B10021AFF30080054BAC
:10C4E0001868836A03B19847204605F0A3F800BF97
:10C4F0000000000024C7000070B50D4D00260D4C53
:10C50000641BA410A64209D10B4D00260B4C05F06C
:10C5100093F8641BA410A64205D170BD55F8043BE6
:10C5200001369847EEE755F8043B01369847F2E7A5
:10C530001030002010300020103000201430002077
:10C54000024B0146186800F02BB800BFAC2F00204A
:10C55000884210B501EB020402D98442234607D871
:10C56000431EA14208D011F8012B03F8012FF8E770
:10C57000024401468A4200D110BD13F8014D02F871
:10C58000014DF7E738B502FB01F5294600F052F8F6
:10C59000044618B12A46002100F0AAF9204638BD09
:10C5A00038B50546002941D051F8043C0C1F002B3A
:10C5B000B8BFE41800F0A8F81D4A136833B96360E7
:10C5C00014602846BDE8384000F0A4B8A34208D95A
:10C5D000206821188B4201BF19685B680918216027
:10C5E000EDE71A465B680BB1A342FAD911685018FF
:10C5F000A0420BD120680144501811608342E0D161
:10C6000018685B68084453601060DAE702D90C23AD
:10C610002B60D6E7206821188B4202BF19685B683F
:10C620000918636008BF21605460CAE738BD00BFC5
:10C63000404A0020F8B5CD1C064625F00305083514
:10C640000C2D38BF0C25002D01DBA94203D90C238A
:10C6500033600020F8BD00F057F821490A681446FD
:10C660009CB9204F3B6823B92146304600F03CF886
:10C6700038602946304600F037F8431C23D10C239C
:10C680003046336000F046F8E3E723685B1B17D4BD
:10C690000B2B03D923601C44256004E06368A2428D
:10C6A0000CBF0B605360304600F034F804F10B000F
:10C6B000231D20F00700C21A1CBF1B1AA350C9E794
:10C6C00022466468CCE7C41C24F00304A042E3D0F3
:10C6D000211A304600F008F80130DDD1CFE700BF65
:10C6E000404A00203C4A002038B50023054D04464E
:10C6F00008462B6004F08EFF431C02D12B6803B167
:10C70000236038BD444A0020014800F009B800BF4A
:10C71000484A0020014800F004B800BF484A002001
:10C7200070477047B02F0020009A394B9A420FD1C2
:10C73000EFF314830CB41FB536486946002200F0AD
:10C740007DFF0FBC0CBC9E460CBC83F31488744761
:10C750000FDFFEE7009A2E4B9A420FD1EFF31483BE
:10C760000CB41FB52C486946002200F067FF0FBCCF
:10C770000CBC9E460CBC83F3148874470FDFFEE7A5
:10C780000CB4029A224B9A4212D10CBC9C46EFF395
:10C7900014830CB463461FB520486946002200F09C
:10C7A0004DFF0FBC0CBC9E460CBC83F31488744731
:10C7B0000FDFFEE7009A164B9A4210D1EFF3148375
:10C7C0000CB463461FB516486946002200F036FFD8
:10C7D0000FBC0CBC9E460CBC83F3148874470FDF5F
:10C7E000FEE7009A0A4B9A420FD1EFF314830CB480
:10C7F0001FB50C486946002200F020FF0FBC0CBC9E
:10C800009E460CBC83F3148874470FDFFEE70000DC
:10C81000A5EDF5FE91D6000097D60000C5D6000024
:10C82000ADD8000051D90000431810B501D21F2A1D
:10C8300001D9002010BD013902F014030144102B6E
:10C8400080EA01043CD009DC8BB1042BF1D11F2C10
:10C8500040E840F315D941E840F10EE0142BE8D14F
:10C860001F2C40E8C0F30CD941E8C0F105E01F2CB3
:10C8700040E800F305D941E800F11C460B468C4224
:10C88000D7D122F01402013A0A2AD2D801A151F8D4
:10C8900022F000BFE3C80000DDC80000CFC80000E0
:10C8A00033C8000033C8000033C8000033C800009C
:10C8B000E9C80000E3C80000D7C80000CFC80000E6
:10C8C0001F2C40E880F3DCD941E880F1D5E713F470
:10C8D000001FAFD1ADE713F4801FFAE75B02A9D5C3
:10C8E000A7E713F4002FF4E713F4802FF1E700BF5C
:10C8F0000346F0B5C9B252B9940803EB840413445B
:10C90000A34211D1F0BD03F8011B013AF3E79C07E4
:10C91000F9D14FF0013514464D43D618032CEBD90D
:10C92000371B3D60043CF9E704F8011BE8E70346C8
:10C93000002030B5013A00D230BD1D780C78A542F8
:10C9400002D008B9281BF5E701330131F2E70346AD
:10C9500070B54AB141EA0304E50713D4012A03D9AB
:10C9600041EA0304A40713D40024A518032D15D805
:10C9700022F0030423440C44002102F003029142FC
:10C9800012D170BD11F8014B013A03F8014BE0E7F9
:10C9900031F8024B023A23F8024BDFE70D1B2E68F9
:10C9A0001D1B2E60043CE0E70D5DCD540131E6E730
:10C9B000034B1B685A680AB91868704701487047EA
:10C9C000001C0020D1C90000FFF7F2FF0047000063
:10C9D0002DE9F04F01251E4B8DB0D3F80090D9E919
:10C9E00000329540013D1BB1984708B104F060FE4C
:10C9F0004FF0010A4FF00041284604F039FE0026AE
:10CA0000044609F10807002CF4D0D9F80430B342E9
:10CA100002D804F04DFEEDE70AFA06F814EA080F12
:10CA200012D03B680BB904F043FE6946404604F05F
:10CA300023FE3B686846DDF804B098470146584637
:10CA400004F02AFE24EA080401360437DBE700BFBD
:10CA5000001C00200000000000000000000000009A
:10CA600001015F5F030100001F010000C1CB000056
:10CA700000080000000000000100000001000000AC
:10CA80000000000000000000102200200000000054
:10CA9000700000001817010080000000000700006F
:10CAA00001000000E1CB00000100000000015F5F19
:10CAB000040100001F03000051D000000005000029
:10CAC0000000000000000000030000000000000063
:10CAD00000000000102A00200000000023170100C1
:10CAE0004000000000050000010000000000000000
:10CAF0001000000040170100410000000005000088
:10CB00000100000000000000200000005617010096
:10CB100042000000000400000100000000000000CE
:10CB20004000000000015F5F00000000FE03000005
:10CB3000B1E200000004000000000000000000005E
:10CB4000000000000000000000000000A0310020F4
:10CB50000000000001015F5F01000000FF03000012
:10CB6000E5E20000000100000000000000000000FD
:10CB7000000000000000000000000000A0350020C0
:10CB800000000000FFFFFFFFFFFFFFFFFFFFFFFFB1
:10CB9000FFFFFFFFFFFFFFFFFFFFFFFFFFFFFFFFA5
:10CBA00038B50025054C29462046D4F80024C4F8A1
:10CBB0000454FFF79DFEC4F8005438BD441C002007
:10CBC00008B500F0C9F838B90121044802F01CF991
:10CBD000BDE8084002F09EB908BD00BF401C00201F
:10CBE0002DE9F04F056804469FB0002D40F0AC8061
:10CBF0002022294601A8FFF77BFE11AE20222946FC
:10CC000009A8FFF775FE342229463046FFF770FE6B
:10CC1000E36904F11C0217462BB34FF004093423D7
:10CC200032460021606804F02BFD342824D1119B8A
:10CC3000402B21D80125CDE90160454E0DF10408B6
:10CC400004F1100A4D45D6F800041BD1E26A04F144
:10CC50002C03002A3ED004250DF124084346002170
:10CC600007EB850E49E0032352F8041D9946013B6A
:10CC70000029D4D1002BF7D16FF0830630461FB0C6
:10CC8000BDE8F08F5AF8043FC0F58061DA1C22F04D
:10CC900003028A4204D9FFF783FF6FF08C06EDE7A9
:10CCA00000EB060B02442946C6F8002460685A4689
:10CCB00004F0E6FC0135C8F80C0048F808BFC1E7ED
:10CCC000002DC9D053F8041D2A46013D0029F7D094
:10CCD0001546C1E70325F5E757F804CFC0F5806A8C
:10CCE0000CF1030222F00302524503F108031ED89F
:10CCF000311843E9021C012110447745ECD109B1F8
:10CD0000C6F80004A368119AC6F80434114B4946CA
:10CD100053F8226001A82B4609AAB047002706460F
:10CD2000BD4208F1080807D1FFF73AFFA6E700293E
:10CD3000B1D0C6F80004AEE7394658E9022360686E
:10CD400004F0A6FC0137EBE76FF0850696E700BF1D
:10CD5000441C002098D0000008B54FF4E072002178
:10CD60000248FFF7C5FD002008BD00BF502000208D
:10CD70006FF0850070476FF0850070476FF0850099
:10CD800070476FF0850070476FF0850070476FF057
:10CD9000850070476FF0850070476FF08500704721
:10CDA0006FF0850070476FF0850070476FF0850069
:10CDB00070476FF0850070476FF0850070476FF027
:10CDC000850070476FF0850070476FF085007047F1
:10CDD0006FF0850070476FF0850070476FF0850039
:10CDE00070476FF0850070476FF0850070476FF0F7
:10CDF000850070476FF0850070476FF085007047C1
:10CE00006FF0850070476FF0850070476FF0850008
:10CE100070476FF0850070476FF0850070476FF0C6
:10CE2000850070476FF0850070476FF08500704790
:10CE30006FF0850070476FF0850070476FF08500D8
:10CE400070476FF0850070476FF0850070476FF096
:10CE5000850070476FF0850070476FF08500704760
:10CE60006FF0850070476FF0850070476FF08500A8
:10CE700070476FF0850070476FF0850070476FF066
:10CE8000850070476FF0850070476FF08500704730
:10CE90006FF0850070476FF0850070476FF0850078
:10CEA00070476FF0850070476FF0850070476FF036
:10CEB000850070476FF0850070476FF08500704700
:10CEC0006FF0850070476FF0850070476FF0850048
:10CED00070476FF0850070476FF0850070476FF006
:10CEE000850070476FF0850070476FF085007047D0
:10CEF000012908D1012B06D84368342B03D1D2E98C
:10CF0000000101F0D3BF6FF0800070476FF0850023
:10CF1000704708B502F05AFB002008BD70B5002527
:10CF20000446A6B03C22294607A8CDE90255CDE922
:10CF300004550695FFF7DCFC3C22294617A81695F8
:10CF4000FFF7D6FCE269019504F11C0312B3042635
:10CF5000E26A04F12C034AB30425731E012B53D853
:10CF6000012D51D80423002160680DEB030204F069
:10CF700087FB04281CD06FF08005284626B070BDC2
:10CF8000002EE5D053F8041D3246013E0029F7D0AB
:10CF90001646DDE70326F5E7002DDED053F8041D25
:10CFA0002A46013D0029F7D01546D6E70325F5E7C7
:10CFB000022E15D16369402BDDD806AE3246012121
:10CFC000606804F05DFB63699842D4D1CDE90260EA
:10CFD00002A93DB92A46019802F054FB0546CCE768
:10CFE0000021F6E7236A402BC5D816AACDE9042311
:10CFF000019804AA02F046FBDDE90423054600215E
:10D00000606804F045FBB8E70125B6E710B58CB0C1
:10D010000C46694604F030FB009B002B04DA023317
:10D020000BDA04F045FB0CE003D0A3F2F233012B42
:10D03000F7D86846A047014600E00021019804F0B7
:10D040002BFB0CB010BD08B502F0C0FA002008BDE3
:10D0500070B50E4C0E4D0F4E4FF000414FF0FF30AB
:10D0600004F006FBC10604D531461020FFF7CEFFC1
:10D07000F2E7820602D529462020F7E7430602D5CB
:10D0800021464020F2E704F013FBE5E70DCF000056
:10D090001DCF000013CF0000C7CE0000CDCE000092
:10D0A000B5CE0000BBCE0000AFCE0000C1CE000068
:10D0B000D3CE0000D9CE0000DFCE0000E5CE0000C8
:10D0C000CBCD0000D1CD0000A7CD0000ADCD00003C
:10D0D000B3CD0000B9CD0000BFCD0000C5CD00002C
:10D0E000FBCD000001CE0000D7CD0000DDCD00005B
:10D0F000E3CD0000E9CD0000EFCD0000F5CD00004C
:10D100009BCD0000A1CD00007DCD000083CD0000AF
:10D1100071CD000077CD000089CD00008FCD0000DB
:10D1200095CD000007CE00000DCE000013CE00000C
:10D1300019CE00002BCE000031CE000037CE00000B
:10D1400043CE00003DCE000025CE000049CE0000B9
:10D150001FCE00004FCE000055CE00005BCE000079
:10D1600061CE000067CE00006DCE000073CE0000DF
:10D1700079CE00007FCE000085CE000091CE000069
:10D18000A3CE00008BCE000097CE00009DCE000005
:10D19000A9CE0000F1CE0000EBCE000000000000A0
:10D1A0000348044B834202D0034B03B11847704736
:10D1B0001830002018300020000000000548064B01
:10D1C0001B1AD90F01EBA301491002D0034B03B185
:10D1D0001847704718300020183000200000000069
:10D1E00010B5064C237843B9FFF7DAFF044B13B1AF
:10D1F0000448AFF300800123237010BD803100206C
:10D20000000000007019010008B5044B1BB104496F
:10D210000448AFF30080BDE80840CFE700000000FD
:10D220008431002070190100A3F5803A704700BFD7
:10D23000174B002B08BF134B9D46FFF7F5FF00214E
:10D240008B460F461348144A121AFFF751FB0E4B38
:10D25000002B00D098470D4B002B00D098470020A2
:10D26000002104000D000D48002802D00C48AFF347
:10D270000080FFF741F92000290000F089F9FFF74D
:10D2800027F900BF000008000000000000000000B7
:10D29000000C002020300020504A00200000000038
:10D2A0000000000000F08CBEFFF7FCFFFEE700F07E
:10D2B00087BEFFF7FCFFFEE700F082BEFFF7FCFF32
:10D2C000FEE700F07DBEFFF7FCFFFEE700F078BE52
:10D2D000FFF7FCFFFEE7000038B572B6002383F3CA
:10D2E000138883F3118818462E49D1F89020C2F391
:10D2F00007229A4250DC00234FF0FF302A4A03F104
:10D3000020010133102B42F82100F8D100234FF007
:10D31000FF34254A03F160010133102B42F821400C
:10D32000F8D101220025214B29465A60C3F8484311
:10D33000C3F8084303F580535A60C3F84843C3F861
:10D340000843A3F55043C3F800558022C3F80843AF
:10D350001748FFF7CDFA294680221648FFF7C8FA8A
:10D36000154B2946C3F800558022C3F808431348DB
:10D37000FFF7BEFA802229461148FFF7B9FA114B90
:10D38000C3F808454FF05023C3F8084362B6BFF313
:10D390004F8FBFF36F8F38BDC1F89830C1F8A00030
:10D3A0000133A6E700ED00E000E100E0004001509D
:10D3B000808000508081005000900050809000508C
:10D3C00080910050007001504FF47F03D3F830215A
:10D3D000D3F83401BFF34F8F092A03D1431E5842BB
:10D3E0005841704700207047614A08B5D2F8D030E4
:10D3F00043F00203C2F8D0304FF47F03D3F830215A
:10D40000D3F83431BFF34F8F092A01BF4FF05023B7
:10D410000022C3F81421C3F81821FFF7D5FF28B163
:10D420000122544BC3F8382AC3F878254FF47F0300
:10D43000D3F83021D3F83431BFF34F8F092A05D107
:10D44000012B1EBF01224B4BC3F87825FFF7BCFF11
:10D4500018B10E22484BC3F8E42E4FF47F03D3F8E3
:10D460003021D3F83431BFF34F8F092A06D100227F
:10D47000404BC3F80C270122C3F810270022D30029
:10D4800003F57F03D3F80013BFF34F8F013108D0AA
:10D49000D3F800130132D3F80433B2F5807F0B6068
:10D4A000EDD1364BDA69BFF34F8FD10745D5BFF3C6
:10D4B0004F8F334BD3F80024012AFBD1C3F8042546
:10D4C000D3F80024012AFBD12C4BDA69BFF34F8F2C
:10D4D000D2070AD5DA6922F00102DA61BFF34F8F71
:10D4E000274AD2F80034012BFBD1244A136ABFF338
:10D4F0004F8F01330CD1136A23F0FF0343F0200355
:10D500001362BFF34F8F1E4AD2F80034012BFBD1B8
:10D5100000221B4BC3F80425D3F80024012AFBD1B9
:10D52000BFF34F8F1249174BCA6802F4E0621343EE
:10D53000CB60BFF34F8F00BFFDE71B6ABFF34F8F78
:10D540000133B4D00A4BD3F88C2042F44062C3F8C4
:10D550008C20D3F8882042F47002C3F88820BFF3EF
:10D560004F8FBFF36F8F084B084A1A6008BD00BF8A
:10D5700000ED00E00040005000A003500080FF00DC
:10D58000009003500400FA05202F00200090D003E3
:10D5900008B5124B83F30A8801F064FE58B901F014
:10D5A000F5FF40B902F00AF828B902F009F828B1ED
:10D5B00002F008F820B100F00DFF05E002F004F8D9
:10D5C00000F0F6FD00F098FE00F0DEFD00F01BFE1E
:10D5D00000F010FE00F0F2FC002008BD0004002066
:10D5E000084B094A1B6810B55B68044619615A610B
:10D5F000D1E90223D1E90001A047044600F03AF83E
:10D60000204610BDB4360020EDEEEEEE10B5094C0C
:10D6100023685B685A69084B9A4208BF086000F0AB
:10D62000D1FC2368834203D0BDE8104000F0E6BE81
:10D6300010BD00BFB4360020EDEEEEEE70B505462D
:10D640000E461446EFF30583C3F308030BB100F055
:10D65000C1FE54B1064B1B68D3E900242346314672
:10D660002846BDE8704000F01DBD2246F6E700BF29
:10D67000A03600208230012808B506D801F05AF8FB
:10D6800018B9BDE8084000F0A5BE08BD00207047ED
:10D6900040F20110704770B5054601F04BF80646A0
:10D6A000284600F04DFF044608B9002070BD014631
:10D6B0003246284600F07AFF0028F6D12368D86861
:10D6C000F4E700002DE9F04F0C469DB009930546A4
:10D6D000914601F02FF8E3B2089323140790C4F3A6
:10D6E00007280B9304D56FF080001DB0BDE8F08FC4
:10D6F000B8F1040FF7D8089B042BF4D84344042B4B
:10D70000F1D8002DEFD001F027F86B000A907CD5FE
:10D7100015F0E00FEAB2E6D1624B53F82270002F09
:10D72000E1D03B683946079A586800F03FFF00286F
:10D7300040F0B2803846C5F3072100F025FF0028ED
:10D74000D1D1EFF3108572B600F0A8FE044685F340
:10D750001088002800F0A3800023036000F086FEFC
:10D76000054601234FEAC80B59464846079A0093DD
:10D7700000F0C0FF0028B6D1089B079A4FEAC30A01
:10D780000123514600930998022300F0B3FF064697
:10D790000028A8D1014620220CA800F0FCFD202280
:10D7A000314614A800F0F7FD5A4649460CA800F08F
:10D7B000C1FD0DF130095246099914A800F0BAFDD7
:10D7C000CB46B246C24530D100230133984551D8EB
:10D7D0004FF0010A0DF15009089B9E424DD1099B63
:10D7E0003946CDE9046314ABCDE902830CAB019358
:10D7F0000A9B204600932A460B9B00F00DFF2A4B04
:10D80000214638469B6898476FE728460A9900F0FA
:10D81000F3FE044600283FF466AF4368002B7FF414
:10D8200062AFC768002F9CD15DE701230093DBF84E
:10D830000410079A5BF8080B00F05CFF00287FF4E7
:10D8400052AF0AF1010ABDE7D2F808E0D068D9F872
:10D8500000107044814205D2D9F8040001448E457D
:10D86000FFF441AF0CF1010C0832C445ECD109F1D1
:10D870000809AAE74A469C46F7E7CDF800A0D9F880
:10D8800004100223079A59F8080B00F033FF002810
:10D890007FF429AF01369FE76FF0810025E76FF035
:10D8A000820022E7543B0020741701002DE9F0416B
:10D8B00088B005460F4600F03DFF0646284600F0BA
:10D8C0003FFE044620B96FF0810008B0BDE8F0814A
:10D8D00003689B689B0532D401463246284600F017
:10D8E00065FE0028EFD13946204600F04DFE054682
:10D8F0000028E8D1304600F02FFF0746EFF31088EC
:10D9000072B600F0CBFD064688F31088D0B100F067
:10D91000ADFD214602464FF0FF333046CDE90455B8
:10D92000CDE90255CDE9007500F076FE314620467E
:10D93000064B9B68079308B0BDE8F04118476FF0AD
:10D940008000C2E76FF08200BFE700BF74170100DC
:10D950002DE9F041044688B000F0ECFE24B114F04B
:10D96000804605D06FF08004204608B0BDE8F08105
:10D9700000F0F2FE01460746204600F03DFE054657
:10D980000028EFD0D0F80C80B8F1000FEAD043683F
:10D99000012BE7D041466FF001032246CDE9046632
:10D9A000CDE90266CDE9007600F036FE2946404614
:10D9B000034B9B68079308B0BDE8F041184700BFD0
:10D9C000741701000D4B73B51B6804465D680E4665
:10D9D000AB69103D184201D100F0FCFC002E08DAC2
:10D9E00021462846064B1B69019302B0BDE87040F2
:10D9F0001847286B204002B070BD00BFB43600202D
:10DA00007417010073B50E46044610B1431E03425D
:10DA100001D000F0DFFC144B00221B6830215D6850
:10DA20000123304600930223103D00F063FE08B14D
:10DA300000F0D0FC2B6B0BB900F0CCFC2B6B23421D
:10DA400001D100F0C7FC2146284600F053FD40B14B
:10DA500000F114013022304600F06CFC002002B0CE
:10DA600070BD6FF08B00FAE7B43600202DE9F74364
:10DA70000E469046994600F029FE044608B900F08B
:10DA8000A9FC6369002B01DA00F0A4FC032E01D984
:10DA900000F0A0FC04EB86077D6AE5B101230022BB
:10DAA000009349460223404600F024FE08B100F0EE
:10DAB00091FC7B6A4D46994528BF1D4604EBC60480
:10DAC0002A464046616C00F035FC636C2B4463646D
:10DAD0007B6A5B1B7B62284603B0BDE8F08370B5B0
:10DAE0000E46154600F0F2FD044608B900F072FC3F
:10DAF0006369002B01DA00F06DFC032E01D900F000
:10DB000069FC04EB8601486A58B185422A4628BF61
:10DB1000024604EBC604636C801A134463644862D3
:10DB2000104670BD2DE9F3410F4690461D4600F0AA
:10DB3000CDFD044608B900F04DFC6369002B01DA05
:10DB400000F048FC032F01D900F044FC04EBC706A9
:10DB500004EB8704636BB26E9B1AAB4201D200F0F8
:10DB600039FC0123002229464046009300F0C2FD03
:10DB700008B100F02FFCD6E919032A4641461844A3
:10DB800000F0D8FBB36E2B44B36602B0BDE8F08161
:10DB9000F8B506460D4600F099FD044608B900F0B8
:10DBA00019FCE7680FB900F015FC6369991C22D0D5
:10DBB0005A1C23D1002D35D015F1820F14D1022328
:10DBC0006360EFF3108672B6194B29462046DB6876
:10DBD0009847054686F310886368022B24D12046B7
:10DBE00000F07AFC2846F8BD15F1830FE9D000F06B
:10DBF000F1FB0025E5E702236360FAE7002BF6DB83
:10DC0000204600F047FE3B689B689B0501D5022338
:10DC1000636015F1810FD4D1E369002BD1DB00F0F3
:10DC2000D9FBCEE73546F4E700236360DAE700BFAF
:10DC30007417010008B500F099FCBDE80840082100
:10DC400000F03ABE094B10B51B685C68236A103CB3
:10DC50001B0701D400F0BEFBEFF3108272B6236BFA
:10DC600023F00803236382F3108810BDB43600202C
:10DC700001F014BD38B50D4600F028FD044608B982
:10DC800000F0A8FBE3681B689B689B0501D500F0CA
:10DC9000A1FB2562256038BDC36A016B10B5194030
:10DCA0000446343000F0EAF90023E36210BD08B501
:10DCB000103000F0E3F9002008BD000038B5EFF3A4
:10DCC000108572B6046B0C4005D1054BC162196812
:10DCD000343000F0C7F985F31088204638BD00BF06
:10DCE000B4360020F8B50D4641B338B303682BB302
:10DCF00044681CB35E69EFF3108772B6636CC1F8B9
:10DD00008830236B616433432363E36A334209D071
:10DD1000216B04F13400194000F0B0F9E36A23EA02
:10DD20000603E36287F31088064B05F110001968BB
:10DD300000F098F9012300206B60F8BD6FF08000BF
:10DD4000FBE700BFB436002038B5084D284600F088
:10DD50007BF92B6804465B6853E9040101F052F932
:10DD600008B100F037FB204638BD00BFB4360020B4
:10DD7000836AF0B5194341F008018162002102680D
:10DD80004163936A146995681C44073323F00703C1
:10DD90004361224BC0E90711416415F400714362ED
:10DDA00014BF0823D36924F0070404BF9B00083381
:10DDB000073323F0070396698361E31AD46803618C
:10DDC0001C6000245C6059B94FF0180C02F130045B
:10DDD00004EB8604D66903F108078E4216D15E6013
:10DDE000C3600023526880F83930438700F1100384
:10DDF00080F83850C3630AB9094A13606FF0010212
:10DE0000BDE8F0400749383000F0FCB80CFB014E8B
:10DE1000DEF810E0013147F804EBDEE7EDEEEEEE60
:10DE2000A0360020C9C9000001F00C032DE9F34120
:10DE30000C2B14BF054615464B0607460E4601F04F
:10DE400008041BD5AB6913F8028CB4FA84F35B09A0
:10DE5000B3EBD81F01D000F0BDFAB8F1400F24D0C9
:10DE6000B8F1410F25D100F087FC06460146514824
:10DE700000F0B2FA304602B0BDE8F08100F0AAFA34
:10DE80004C4BDF1B0CB900F0A5FA082F01D900F0AC
:10DE9000A1FAFFF7FDFB286000F094F8464B1B68E1
:10DEA0008342E7D000F0AAFAE4E7284600F02AFA15
:10DEB000E0E7404BDB1B082B01D900F08BFAB8F1EF
:10DEC000100F73D801A353F828F000BF93DE0000B1
:10DED00011DF000073DF000019DF00007DDF0000AC
:10DEE000A3DF00008FDF000085DF00002FDF0000D0
:10DEF0003DDF000049DF000099DF000059DF00002E
:10DF000061DF0000ADDF000067DF00006DDF0000B3
:10DF10002868FFF7C0FBBEE7D5E90223D5E9000179
:10DF2000FFF7D0FB0190FFF7A5FB0198B3E7D5E918
:10DF30000223D5E90001FFF799FDACE72868D5E990
:10DF40000112FFF7CCFDA6E7D5E90223D5E90001D0
:10DF5000FFF7E8FD0020E5E72868FFF76BFEF9E72B
:10DF6000FFF770FEF6E7FFF783FEF3E7FFF78EFBA0
:10DF700091E7D5E90001FFF799FCD3E72868FFF79F
:10DF8000E7FCCFE7D5E90001FFF774FEE2E7D5E94A
:10DF90000001FFF737FD7EE7D5E90001FFF7F8FD47
:10DFA000D8E7D5E90001FFF70DFD74E76FF08300B6
:10DFB00071E700BF000C0020B436002041DF70473D
:10DFC00000F008BA044B186810B14378012B00D157
:10DFD00070478068F8E700BFAC360020C9B201295D
:10DFE000064B417005D11A682AB101781278914226
:10DFF00001D3034A10681860704700BFAC36002098
:10E00000B036002070B50F4D04462868134618B18D
:10E010002278067896420BD3A0602C6060680022BC
:10E0200000F0F8F92046BDE870400121FFF7D6BFA7
:10E030000546806810B106789642F9D3A060AC60BE
:10E04000ECE700BFB036002038B50546FFF7BAFF51
:10E05000044600F0D3F905B12C606068BDE8384093
:10E0600000F0FAB9022301604B70024B1A68024BB0
:10E070001A607047B0360020AC36002038B5044630
:10E0800000680D4660B14378022B09D10121FFF7EA
:10E09000A5FF23682946586800F0A6F900232360ED
:10E0A00038BD000070B572B61446EFF30B855FF013
:10E0B000000C002A1FBF8CF30B886C46954683F337
:10E0C0000B880C4A0123136062B60E46FFF788FAEC
:10E0D00072B63146FFF79AFA5FF0000C002C1EBFB3
:10E0E0008CF30B88A54685F30B88024C0025256030
:10E0F00062B670BDB8360020402010EA0E0018D07D
:10E1000001B500F087FBBDE80440884211D072B62B
:10E11000EFF30982EFF30B8322E9F00F80E81C4054
:10E1200091E81C40B2E8F00F82F3098883F30B8872
:10E1300062B67047EFF308807146EFF30982EFF3A0
:10E140000B830CB406B4FFF76FFE864606BC0CBC0E
:10E1500000F0080001F00801401A01DC0DDB7047F7
:10E160000CB42DE9F00F074C254626462746A0465D
:10E17000A146A246A34630B4704730BCBDE8F00FBC
:10E1800006BC7047A5EDF5FE084BDA6882F07F42C9
:10E1900082F47F0242F48042DA6000221A765A76D4
:10E1A000DA76DA77602283F82220704700ED00E00B
:10E1B0000E4BD3F8882042F47002C3F888200C4A32
:10E1C000516B41F080415163516B41F03C415163CF
:10E1D000D3F88C2042F44062C3F88C204FF0E02248
:10E1E000D36843F42003D360704700BF00ED00E024
:10E1F00000EF00E0EFF3148030F0040080F31488A7
:10E20000BFF36F8F704780EA000000EE100A00EE47
:10E21000900A01EE100A01EE900A02EE100A02EED8
:10E22000900A03EE100A03EE900A04EE100A04EEC0
:10E23000900A05EE100A05EE900A06EE100A06EEA8
:10E24000900A07EE100A07EE900A08EE100A08EE90
:10E25000900A09EE100A09EE900A0AEE100A0AEE78
:10E26000900A0BEE100A0BEE900A0CEE100A0CEE60
:10E27000900A0DEE100A0DEE900A0EEE100A0EEE48
:10E28000900A0FEE100A0FEE900AE1EE100A7047A6
:10E2900008B501F013F8054B986001F015F880F30C
:10E2A0008888BDE8084001F015B800BF00ED02E025
:10E2B000FFF7EEFF009A0A4B9A4210D10446012262
:10E2C0009443204621462246234625462646274695
:10E2D000A046A146A246A346A446A6460447FEE79A
:10E2E000A5EDF5FE08B500214FF0FF3003F0C0F9B1
:10E2F0000028F8D130BFF6E70122014B1A607047C1
:10E30000BC360020012313B5009304460189022383
:10E310000022406800F0EEF928B9054B1B68012B7C
:10E3200001D100F0C3F90323236002B010BD00BF88
:10E33000BC360020034670B54AB141EA0304E50744
:10E3400013D4012A03D941EA0304A40713D40024F7
:10E35000A518032D15D822F0030423440C440021F2
:10E3600002F00302914212D170BD11F8014B013A43
:10E3700003F8014BE0E731F8024B023A23F8024B75
:10E38000DFE70D1B2E681D1B2E60043CE0E70D5DD2
:10E39000CD540131E6E70346F0B5C9B252B994084D
:10E3A00003EB84041344A34211D1F0BD03F8011B15
:10E3B000013AF3E79C07F9D14FF0013514464D437C
:10E3C000D618032CEBD9371B3D60043CF9E704F861
:10E3D000011BE8E701F062B98546024A014B0CB423
:10E3E00008470000A5EDF5FE036923B119604FF061
:10E3F000EE334361704703681962704704484FF079
:10E4000080510160BFF34F8FBFF36F8F70470000E3
:10E4100004ED00E02DE9F84304681F460D4BA4F11C
:10E42000080644E90233483C0546884691460021E7
:10E4300040222046FFF7AFFF4FF0807346F8043CC0
:10E440006FF0020346E9037846F8209CEB602C60ED
:10E45000BDE8F883A5EDF5FE436883F30B880368F8
:10E46000203383F30988C06870470000054A1368A9
:10E47000013303F007031360034A0133801A03EBEF
:10E48000C0007047C0360020C436002018B1024BCF
:10E49000013803EBD0007047C436002010B50648A1
:10E4A00000F05AFB044628B18C220021FFF773FFCD
:10E4B00000236360204610BDC4360020014608B525
:10E4C000034800F05AFB0028024818BF002008BD8E
:10E4D000C43600200500008010B50146EFF310841B
:10E4E00072B6034800F043FB84F31088002010BD8F
:10E4F000C4360020F0B50346EFF3108672B6002450
:10E50000426C00F1440520466AB948B10568012C07
:10E51000D5F888200260284602BF1A6B8A431A6326
:10E5200086F31088F0BDD7683F687F698F4204BFCB
:10E530002846013402F18805D2F88820E4E700007B
:10E5400030B5094C024661680023084640B10568B1
:10E550006D68954205D11BB1826860609A608160E8
:10E5600030BD03468068F1E7D43B0020054A0346EE
:10E57000506800B97047026852689A42FAD0806CBD
:10E58000F7E700BFA4360020036807489A68DB68F5
:10E5900012F4806F03D18B4228BF002070478B425A
:10E5A00008BF0020704700BF0300008038B5044654
:10E5B0002AB10B689B68DB0515D5002038BD0C4BD4
:10E5C0001B685D68102D01D1FFF704FF002255F88C
:10E5D000103C99692C338A4203D053F8040FA042AF
:10E5E00003D19142E9D10348E8E70132F3E700BFE4
:10E5F000B43600200500008038B5FFF747FF0D4610
:10E600000446FFF75BFF28B9E369AB4218BF00245B
:10E61000204638BD0024FBE72DE9F84A0446894628
:10E6200017460021302214309B46099E0B9DFFF7B0
:10E63000B2FE00231C4AC4E903931268301D5268DD
:10E6400004F1440C103AA2600D9AC4F814B0C4F856
:10E650008420089AE26104F120020A998B420FD1CA
:10E6600000239C4604F1300204F164012E1D0C9835
:10E67000083183420ED12368A7612362BDE8F88A7E
:10E6800050F8331042F8041F56F833104CF833108A
:10E690000133E2E756F8330042F8040F55F833002F
:10E6A000013341E9020CE2E7B4360020064B1B6857
:10E6B0005B68102B04D053F8103C0BB158687047BE
:10E6C0004FF0FF30704700BFB436002010B5FFF7A1
:10E6D000DDFE0446FFF7F2FE50B9FFF7E7FFE368FF
:10E6E0005B681B685B68834218BF0024204610BD2E
:10E6F0000024FBE738B5049D144609B9002038BD55
:10E7000088B142180DD2022B14BF022206220DB985
:10E7100042F008020CB142F0200200F082FC002816
:10E72000ECD00248EBE70248E9E700BF04000080B4
:10E7300001000080074B10B51B685C68102C01D1EC
:10E74000FFF748FE54F8103C5868B0FA80F04009D2
:10E7500010BD00BFB436002038B5054648B100F002
:10E7600023FAB5EBD07F044601D0FFF733FE2046F5
:10E7700038BDFFF79BFFF4E72DE9F7430025082399
:10E780008C2240F28C411C4800F0B8F91B4F1C4B06
:10E790007D605D6000F00BFA1A4EDFF87490384629
:10E7A00000F0A2F80446E0B1D0F80080D8F81C30A0
:10E7B0002BB180234A46124900F0FEF80546D8F8EE
:10E7C000243013B1204600F059F92068211D00F0D3
:10E7D000FAFB08B1FFF7FEFD29462046336898474B
:10E7E000DDE7094B1A68094B1A607368019303B09F
:10E7F000BDE8F043184700BFC4360020A43600200F
:10E80000D43B002074170100342F0020503B00201F
:10E81000543B00202DE9F843FFF7D4FB1A4F044680
:10E820003B68A0F138065D68184B29461B68012B30
:10E8300021D000B3A5F11008B0451CD0EFF3098238
:10E840006B682033934201D9FFF7C4FDEFF31089C1
:10E8500072B67168D8F804308B4206D054F8380C80
:10E8600000F0D0FB08B1FFF7B5FDB0EE400A6168DB
:10E870003C6089F31088064B1B6813B1F26802B143
:10E880001A602846BDE8F883B4360020B836002068
:10E89000503B0020002330B500F13002444252F8D2
:10E8A000041F29B1D0F8841054F8125019444D6057
:10E8B0000833202BF3D130BD70B50D46044608B99E
:10E8C000FFF788FDEFF3108672B6236B2B432363AB
:10E8D000E36A1D4203D0034B20465B69984786F3E9
:10E8E000108870BD74170100F8B5054608B9FFF728
:10E8F00071FD2C4E346814F1290F50D82A4B196839
:10E9000004F128038B424AD2D4E9063206200C33A4
:10E9100000FB0233226A02EB42021344626A02EBFA
:10E92000820213449B00E31801D2994201D2FFF7FF
:10E9300051FD23681D4A1B0C1B04934201D0FFF7B5
:10E9400049FD2388B3F5817F01D3FFF743FD636859
:10E95000002B01DAFFF73EFD154A176807F14C035B
:10E960001360144A1268934201D9FFF733FDD4E9CA
:10E97000063206210C3301FB0233226A3C6002EBB3
:10E9800042021344626A02EB82021344326802EBD1
:10E9900083026B683260BB646F603846F8BD002745
:10E9A000FBE700BF2C2F00209417010000005F5FE1
:10E9B000282F0020901701002DE9F04F85B08846E0
:10E9C00091460746029300B109B9FFF703FDD7F856
:10E9D00000A0DAF818100AF1300303EB8103019369
:10E9E000DAF81C40234B1D6854B10C2101FB045480
:10E9F0001C60214B1B689C4201D9FFF7EBFC2C46A5
:10EA000000262546B346DAF81C305B4500D91CB910
:10EA1000304605B0BDE8F08F1822019B02FB0B3198
:10EA20000023AB604B69C5E900171E438B689A054C
:10EA300016D5B9F1000F02D0029A802A03D00393B1
:10EA4000FFF7C8FC039B13F0E00FD9B202D159F8CD
:10EA500021301BB10391FFF7BDFC039949F8215008
:10EA6000D8F804300BF1010BAB60C8F804500C353A
:10EA7000C9E700BF242F00208C1701002DE9F047C3
:10EA8000054608B9FFF7A6FC18222E680027B369CF
:10EA900006F1300404EB8304F3694FF0140902FB20
:10EAA00003440C2240F2011A336A02FB034409FBBF
:10EAB00007F1736A01EB0408BB4201D8BDE8F08797
:10EAC000AB6AD8F8102028461343AB620B59414675
:10EAD000984708B1FFF77EFC3388B3F5807F05D1F6
:10EAE000D8F80C0000F0FCFB0137E0E75345FBD100
:10EAF000D8F80C0000F004FCF6E700002DE9F04126
:10EB000016461D46044610B30BB302F1040803FB7E
:10EB100008F707F10C028A4219D10021FFF73BFCEC
:10EB2000002004F10C031A46014601318D421060A9
:10EB300002EB080C104608D10020A7EB08073B4465
:10EB4000C4E90036A560BDE8F0816246EDE7014802
:10EB5000F9E700BF01000080034638B1006828B122
:10EB600002681A60002340F8043B7047704702684F
:10EB70000B1F41F8042C0360704700F10C02914216
:10EB800010D343688068043300FB0320814209D21C
:10EB90000439881AB0FBF3F203FB1200B0FA80F0DC
:10EBA00040097047002070474FF0FF3070477047B2
:10EBB00001680E4A0346914215D1C169A2F11022A3
:10EBC000A2F1EF1291420ED18268012A0BD8C268DD
:10EBD00012B101698A4206D0586928B19B691B1A93
:10EBE0005842584170470120704700BF55AA00FFA6
:10EBF0000D4B70B59E68A6B13046FFF7D9FF0446AD
:10EC000078B9F3686BB935690DB9204670BD2846EF
:10EC1000FFF7CEFF28B9EB68B34202D12E462D692B
:10EC2000F2E70124F1E700BFDC3B00202DE9F041D1
:10EC3000394E3468F368D4B1B468C4B1002861D0E7
:10EC400000295FD001FB00F5B5FBF0F0884259D1F7
:10EC5000291D57D8AA070DD025F0030204321C46FF
:10EC600003E0616891424FD2A469002CF9D120469B
:10EC7000BDE8F0812A46F2E7891A232904F120072A
:10EC8000D4E9050C1AD80123A360A0B1C0F818C0BC
:10EC9000A36903B158610023C4E905333369DB0775
:10ECA00002D5FFF7A5FFA0BB2A46002138463C4607
:10ECB000FDF71EFEDBE7C6F80CC0E9E702F120080D
:10ECC00004EB08032039C3E9011E2169DFF84CE099
:10ECD000DC60196144F808E0AEF1102EAEF1EF1ED1
:10ECE000C3F81CE001B1CB60C3E9050C40B18361FE
:10ECF000996901B14B6101212361C4E90121CAE78E
:10ED0000F360F5E70024B2E7D4F808E0BEF1000FA5
:10ED1000B2D00120FDF7DCFBDC3B002055AA00FF50
:10ED2000F8B5054600283AD0364E3368002B36D069
:10ED3000B268002A33D0834203D8726813449842E1
:10ED400002D30120FDF7C4FBA0F120042046FFF709
:10ED50002FFF0028F5D155F8183C012BF1D145F8CB
:10ED6000180C55E90570DFB1BB68CBB955F81C2C00
:10ED70007B68203213447B60386100B1C760202279
:10ED800000212046FDF7B4FD386908B183682BB334
:10ED900033699B0703D5FFF72BFF0028D1D1F8BDBE
:10EDA00040B3836833BB42686368134420336360B5
:10EDB0000369D4E90521236192B9B9B9426981692E
:10EDC0006261A161A2B19461A26902B1546103B10F
:10EDD000DC6020220021FDF78BFDD9E73C46E2E70D
:10EDE0009161A1690029E9D04A61E7E7F160F8E79C
:10EDF000F460E9E7F36845F8083C03B15C61F4604E
:10EE0000C6E700BFDC3B002038B50D4614220021C8
:10EE100004461248FDF76CFD1149124802F0F0FB60
:10EE2000232D1AD914F003031FBF043DED18C3F1BD
:10EE30000403E4182A4600212046FDF759FD074B3C
:10EE4000094AC3E900459C602260A2F11022203DDE
:10EE5000A2F1EF126560E261DC6038BDDC3B0020AE
:10EE600021ED00002DEC000055AA00FF10B504466E
:10EE7000406A10B1A16A00F0CFFD606A02F0BAFBEF
:10EE80000020C4E9090010BD38B50446FFF7EEFFC5
:10EE9000236A2C22012B0CBF05466FF0960500213A
:10EEA0002046FDF725FD284638BD000037B50C4D3E
:10EEB0000C462B78DB070FD500230A460193014649
:10EEC00001AB281D00F06FF820B9019BA34218BFC9
:10EED0006FF0930003B030BD6FF08800FAE700BF19
:10EEE000F03B002008B500F045F80948037813F01E
:10EEF000060F04D0082200210430FDF7F9FC0C2194
:10EF0000034800F089FDBDE8084000F04BB800BFA1
:10EF1000F03B002038B5104D297811F0010114D1D3
:10EF20000822281DFDF7E4FC02222B7862F342033D
:10EF30002B7000F013F8044650B900F031F8044685
:10EF400030B92B7843F001032B700024204638BDE4
:10EF5000FFF7C8FFFAE700BFF03B0020044A00209B
:10EF600092F8803543F0010382F88035704700BF86
:10EF7000FC3B0020F8B5094C2025264601272046F9
:10EF80002762FFF781FF013D04F12C04F7D196F8C9
:10EF9000803565F3000386F88035F8BDFC3B002022
:10EFA00000207047704738B5002014461D4600F019
:10EFB00005FD28B92B68A34218BF6FF0930038BD38
:10EFC0006FF09200FBE7F0B510B943F6DA30F0BD10
:10EFD0000029FAD0012300220C2418250B60016AB5
:10EFE0008A4201D10020F2E704FB02F3D0E9067661
:10EFF00003EB870305FB063303449B6B1B07E4D439
:10F000000132EDE7EFF3148311F00F0F0CBF012273
:10F01000002262F3000383F31488BFF36F8F002094
:10F02000704712F020032DE9F0410746884609D0C9
:10F03000EFF39483DC074FF012034CBF42F0080259
:10F0400022F00802100702F0060148BF43F0040353
:10F05000062942D143F001052A4641463846FDF7CC
:10F06000E3FB00286BD147E800F2B844100E12020F
:10F0700008F1FF3646E800F34FEA136129D51B0279
:10F0800027D5884225D047E800F446E800F600F08E
:10F09000EAFB240E84424FEA16662CD300F0E5FB0F
:10F0A000864228D8204600F0D9FB2A46C7F1010144
:10F0B00001443846FDF7B8FB58B10134A64211D8D7
:10F0C000304600F0C9FB2A46A8EB0001FDF7ACFB77
:10F0D000A8BB6FF07F00BDE8F081910731D543F008
:10F0E0000805B9E7204600F0B7FB074600F0BFFB74
:10F0F0002A460146DDE700F0C9FB8442E9D300F06F
:10F10000C7FB8642E5D8204600F0BAFB2A46C7F185
:10F11000010101443846FDF787FB0028D9D00134AE
:10F12000A64203D8304600F0A5FBCCE7204600F00D
:10F13000A1FB074600F0AEFB2A460146EAE70020A5
:10F14000C9E74CF2DA20C6E7F0B53B4C87B03B4844
:10F1500000F00CFB236801255A1C0193384B2260F8
:10F16000DA681B694FF4407603930023334801A902
:10F1700002920495ADF814608DF8163000F0BAFADA
:10F1800018B143F6DA3007B0F0BD23688DF81600E9
:10F190005A1C01932B4B294802932B4B01A9CDE913
:10F1A00003352260ADF8146000F0A4FA0028E8D11D
:10F1B00023688DF816005A1C0193244B1F480293B4
:10F1C000234B01A9CDE903352260ADF8146000F0AE
:10F1D00091FA0028D5D1022740F2011623688DF854
:10F1E00016005A1C01931B4B144802931A4B01A999
:10F1F000226003930497ADF8146000F07BFA0028B6
:10F20000BFD123688DF816005A1C0193134B0B488D
:10F210000293134B01A92260CDE90337ADF81460C6
:10F2200000F068FA04460028ABD12A462946034874
:10F2300000F046FA2046A6E780410020302F00204B
:10F2400098170100C0C4000060CA0000A0D10000EF
:10F25000A0D10000201C0020401C0020001C002029
:10F26000041C002008B500F09BF800F0A9F810B1CC
:10F2700043F6DA3008BD00F0C5F80028F8D1FFF7F2
:10F2800063FF0028F6D0F3E708B500F04DF810B1A1
:10F2900043F6DA3008BD00F051F80028F8D100F04C
:10F2A00059F80028F4D162B600F056F80028EFD1E2
:10F2B00000F06AF80028EDD0EAE70000014B18687A
:10F2C000704700BF98170100014B1B681868704712
:10F2D00098170100014B1B68586870479817010088
:10F2E00040B2002807DB01234109044A00F01F0057
:10F2F000834042F821300020704700BF00E100E069
:10F3000040B200280CDB01220649430900F01F002F
:10F310008240203341F82320BFF34F8FBFF36F8F1C
:10F320000020704700E100E00020034BD8765A6AC5
:10F3300042F470225A62704700ED00E00349044B2A
:10F34000CA68002092B21343CB60704700ED00E022
:10F350000800FA050020704700224FF0FF30094BEB
:10F3600002F1A0010132102A43F82100F8D1D3F8AC
:10F370008022002022F00802C3F88022D3F88032D5
:10F38000704700BF00E100E008B500F0FFF9082277
:10F39000024BC3F880211A60002008BD00E100E0A4
:10F3A000064BD3F8D02022F00102C3F8D020D3F8C6
:10F3B000D02042F00202C3F8D020704700ED00E0F8
:10F3C00010B50D4C00F0EAF9D4E9010100F004FA9F
:10F3D0000A490B4800F012FA2169E068013900F08F
:10F3E00023FAD4E9050100F0F7F9D4E9070100F0A8
:10F3F000F3F9002010BD00BF98170100FFFF0320A4
:10F400000080002010B50021444800F047FA002198
:10F410004FF0502000F042FA0021414800F03EFA3F
:10F420000021404800F03AFA00213F4800F036FA47
:10F4300000213E4800F032FA00213D4800F02EFA4B
:10F4400000213C4800F02AFA00213B4800F026FA4F
:10F4500000213A4800F022FA0021394800F01EFA53
:10F460000021384800F01AFA0021374800F016FA57
:10F470000021364800F012FA0021354800F00EFA5B
:10F480000021344800F00AFA0021334800F006FA5F
:10F490000021324800F002FA0021314800F0FEF964
:10F4A0000021304800F0FAF92F4C00212F4800F0DD
:10F4B000F5F900212E4800F0F1F92046002100F076
:10F4C000EDF92046002100F0E9F90021294800F07B
:10F4D000E5F90021284800F0E1F904F5B0340021F5
:10F4E000264800F0DBF92046002100F0D7F9002182
:10F4F000234800F0D3F90021224800F0CFF901227F
:10F500000020214BC3F88004C3F88424C3F8C0044E
:10F51000C3F8C424C4F8402510BD00BF004000500B
:10F52000008000500090005000A0005000B000503B
:10F5300000E0005000F000500000015000100150A9
:10F5400000400150005001500070015000800150F7
:10F5500000B0015000C0015000D0015000E0015047
:10F5600000F0015000000250003002500010025024
:10F5700000200250006002500080025000A00250A3
:10F5800000A00350002584500030005008B5FFF75C
:10F590007BFE68B900F0BCF958B9074AD36823F07C
:10F5A00008031B041B0C43F0BF6343F40033D36018
:10F5B00008BD45F22350FBE700ED00E00020704756
:10F5C000002070470020704770470000BFF34F8F46
:10F5D0000549064BCA6802F4E0621343CB60BFF3EF
:10F5E0004F8F00BFFDE700BF00ED00E00400FA050B
:10F5F0002DE9F04F436887B0082B03D0022007B0F5
:10F60000BDE8F08F4B68042BF8D14FF0FF33D0F8F2
:10F610000080D1F800A0D8F80400CAF80030002813
:10F62000ECD026223C21FFF7FCFC05460028E5D162
:10F63000D8F80030DFF844B0DFF8449003AF5BF84F
:10F64000046B99E807001E4487E807000C2239463E
:10F6500030460193FDF76BF9019B044600B91EB9D2
:10F660000135052DEBD1C9E73C223146D8F804001D
:10F67000FDF76DF92046CAF80040C0E7BC1701004D
:10F68000D01701000346084611461BB1022B03D0D8
:10F690000320704700F00EB9FFF7AABFBFF34F8FEA
:10F6A0000549064BCA6802F4E0621343CB60BFF31E
:10F6B0004F8F00BFFDE700BF00ED00E00400FA053A
:10F6C000003A18BF0122003918BF012103688900E0
:10F6D000074841EA4201186359605A6842F0010242
:10F6E0005A60BFF34F8FBFF36F8F0020704700BF8A
:10F6F00004AAFF004B6830B513F01F042AD10A6832
:10F700000F2A27D8006823F01F03456844608260F1
:10F710000A7C02F001021A438B7CDB0003F0180321
:10F720001A434B7C5B0003F006031343C3608B68F2
:10F73000013B23F01F02CB685B0003F00E03134371
:10F7400043F0010303614560BFF34F8FBFF36F8F39
:10F75000204630BD0120FCE7036800205A68C9B28A
:10F7600058609960D86018615A60704738B505468E
:10F7700003681C68C4F307240CB9204638BD013C5B
:10F7800021462846FFF7E8FFF6E700000722024B74
:10F79000C3F80423704700BF003000500023172037
:10F7A0000C49012B03F1010201D81346F9E703F5D7
:10F7B000C073202A41F823001346F2D100231720FA
:10F7C000044A03F5E0710133202B42F82100F8D1FF
:10F7D000704700BF0030005010B540F20714064AD1
:10F7E000C00BC90B884200D910BDC3B203F5C0736A
:10F7F00042F823400130F5E70030005010B540F2E8
:10F80000071400F1604001F16041064A400B490BCA
:10F81000884200D910BDC3B203F5E07342F823401B
:10F820000130F5E700300050C0F30E03C3F500438C
:10F83000B3FA83F3C3F11B03064AC0F3C730DBB24C
:10F8400040F4807043F48073C2F80005C2F80435B8
:10F85000704700BF00300050C0037047C00300F580
:10F86000FF407F307047002070471F2070474FF4E3
:10F870000040704700F57F40C030400370470000F3
:10F880004303014818447047FF1FF81F402070478A
:10F890005F2070474FF4005070470000044BC0F3E6
:10F8A0000730090200F5007043F82010704700BFD0
:10F8B00000300050F8B543680C2B25D14B68042B61
:10F8C00022D14FF0FF3304680E6820683360D8B14E
:10F8D000A168C9B12622FFF7A4FBA8B961680B4B48
:10F8E000D3E9005CA9420AD3A26865448F18AF42ED
:10F8F00005D82068FDF72BF800203060F8BD0130F6
:10F90000042803F10803EBD10220F7E7DC1701001C
:10F9100010B50C4C236813B10B4B1B682BB900F0CE
:10F920008FFC30B90122084B1A60012300202360AC
:10F9300010BD0138062801D9044810BD044B53F806
:10F94000200010BD8441002088410020FE8FFFFF71
:10F95000FC1701002DE9F041154C164F002818BF87
:10F960000446236884B0BB421ED016460D4620468E
:10F970004FF4147100F050F8221D104604F58E78F3
:10F98000039200F047FB4046CDF8088000F0D2F823
:10F99000DDE902022B460849009600F0EDF900B9B6
:10F9A000276004B0BDE8F081002004B0BDE8F0811C
:10F9B0008C410020A5BCC95A9900010070B50E4DBC
:10F9C00082B0002814BF8446AC461D46DCF8000017
:10F9D0000A4B98420DD100260CF58E7033460096E6
:10F9E000144600F0F3F9002818BF34462C6002B02A
:10F9F00070BD0348FBE700BF8C410020A5BCC95A7D
:10FA0000E88FFFFF38B131B10022014403460130D5
:10FA100081421A70FAD1704738B131B100220144E5
:10FA20000346013088421A70FAD1704770B590B021
:10FA300000287AD03E4C0D4640223621064620460C
:10FA4000FCF756FF40225C21A018FCF751FF2B1D4C
:10FA50009C4203D204F144039D4252D32B68226896
:10FA6000534023602B68226C534023646B686268A8
:10FA7000534063606B68626C53406364AB68A26818
:10FA80005340A360AB68A26C5340A364EB68E26888
:10FA90005340E360EB68E26C5340E3642B692269F6
:10FAA00053402361226D2B695340236562696B6962
:10FAB000534063616B69626D53406365AB69A269D2
:10FAC0005340A361AB69A26D5340A365EB69E26942
:10FAD0005340E361EB69E26D5340E365002130463A
:10FAE00001F000F9044628B940223046104901F0DF
:10FAF0000DF9044640216846FFF78EFF204610B0FE
:10FB000070BD631E04F13F01013D1F3415F8010F64
:10FB100013F8012F42401A7011F8012F2878A342E0
:10FB200082EA00020A70F1D1D8E76FF07304E5E7CA
:10FB3000DC43002010B54FF49A7200210446FCF714
:10FB4000D7FE42F21072044BC4F8202104F59670DF
:10FB50001B68BDE8104018474C2F00202DE9F04FDE
:10FB600004468946924695B0002900F0A780002AF5
:10FB700014BF0227012700238DF80C30002C00F061
:10FB80009F80DFF8448104AE08F1400B002120463D
:10FB900001F0A8F8034648B1304620210193FFF751
:10FBA0003BFF019B184615B0BDE8F08F402241464F
:10FBB000204601F0ABF803460028EDD104F1F4052E
:10FBC00020222946204601F0A1F803460028E3D16F
:10FBD0000122204603A901F099F803460028DBD151
:10FBE000022F62D020460CA901F0BAF80346002883
:10FBF000D2D11946204601F075F803460028CBD132
:10FC000040225946204601F081F803460028C3D11E
:10FC1000202220460CA901F079F803460028BBD128
:10FC20003146204601F09CF803460028B4D1314605
:10FC30002046FFF7FBFE03460028ADD120222946CF
:10FC4000204601F063F803460028A5D120460CA900
:10FC500001F086F8034600289ED10146204601F0B7
:10FC600041F80346002897D140225946204601F02A
:10FC70004DF8034600288FD1202220460CA901F020
:10FC800045F80346002887D12946204601F068F848
:10FC90000346002880D19DF80C200132D2B2BA422E
:10FCA0008DF80C20FFF472AF76E7524649462046A5
:10FCB00001F02CF80346002894D06DE701275AE79D
:10FCC0006FF0730304AE67E7DC4300202DE9F041D9
:10FCD0000446884615461F46D0F81801E0B013B117
:10FCE00000EB40004008B5F5807F3ED82844B0F5D1
:10FCF000C07F3AD84FF4C07200216846FCF7F8FD87
:10FD00006946D4F82431D4F81821D4F8280198474A
:10FD100070BBD4F8186157B1D4E9493072080DEBC3
:10FD20000601984720BBD4F8183106EB5306B8F10A
:10FD3000000F00D08DB9324669462046FFF70EFF0E
:10FD4000054610B90123C4F8143131466846FFF75F
:10FD500063FE284660B0BDE8F0810DEB0600414629
:10FD60002A462E44FCF7F3FDE5E76FF00405F0E7C3
:10FD70006FF00805EDE700BF2DE9F047044604F1F8
:10FD8000F4050F4691461E46DDF8208000F090FFF6
:10FD900029462046FFF74AFE08B1BDE8F08728460D
:10FDA00020220121FCF7A4FDD4F81831C4F82471F5
:10FDB000C4F8289113B92023C4F8183142463146BB
:10FDC0002046BDE8F0470123FFF780BFB2F5806F02
:10FDD00000F295802DE9F04F89B09A46129BB3F559
:10FDE000807F00F29080D0F8243116460446884681
:10FDF0004BB3D0F81C31012B05D0D0F81421D0F82A
:10FE000020319A421FDD514600232046129AFFF707
:10FE10005DFF014698B900231293002E5ED0DFF8F3
:10FE2000EC9009F1400B0021204600F05BFF202EF2
:10FE30003546014628BF202504F1F40790B1084655
:10FE400009B0BDE8F08FBAF1000FE6D0129B002B8D
:10FE5000E1D051461A462046FFF780FE01460028B1
:10FE6000DBD0ECE749464022204600F04FFF014638
:10FE70000028E4D139462022204600F047FF014601
:10FE80000028DCD16946204600F06AFF01460028C0
:10FE9000D5D1204600F026FF01460028CFD1594693
:10FEA0004022204600F032FF01460028C7D16946B3
:10FEB0002022204600F02AFF01460028BFD1394603
:10FEC000204600F04DFF01460028B8D140462A46A2
:10FED0003946FCF73CFD761BA844A4D15146204688
:10FEE000129AFFF73BFE01460028A8D10846D4F835
:10FEF00014310133C4F8143109B0BDE8F08F6FF04C
:10FF00000201084670476FF0040198E7DC430020C7
:10FF10002DE9F043202B1D460646884691468BB0BE
:10FF200026D8DBB202AF8DF80480B04658F8041B27
:10FF30008DF8053021B9404600F0D4FE044640B9A2
:10FF4000012302224046336001A900F0DFFE04468F
:10FF500038B138462021FFF75FFD20460BB0BDE8E1
:10FF6000F0832A464946404600F0D0FE0446F0E7BA
:10FF700002AF1946104600233A4601F04FF80446F6
:10FF80000028E6D12023B9461D46CCE72DE9F041F3
:10FF9000D0F8F830A6B0002BD8BF02AE31DD054650
:10FFA0000027D0F80C4102AEA4F101089022D5F848
:10FFB000FC403146D0F8000101AB0197B8FA88F84F
:10FFC000A0474FEA5818044620B9019B53B9B8F12D
:10FFD000000F16D030469021FFF71EFD204626B0B8
:10FFE000BDE8F081014632462846FFF791FF58B937
:10FFF000D5F80431019A1344C5F80431B8F1000F63
:020000040001F9
:10000000E8D16FF03C04E5E70446204626B0BDE8A1
:10001000F08100BF70B500250446142204F58876EF
:100020002946C0F8F850FC30FCF762FC082229464B
:100030003046FCF75DFC144B30461B689847204661
:1000400040F8045B00F034FE104B30461B689847C4
:10005000C8B9D4F8F830AB420FDC03EB830204EBF1
:1000600082022021C2F800010120C2E942100849A1
:100070000133C2F8FC10C4F8F830064B3046BDE836
:1000800070401B68184770BD4C2F0020502F002077
:10009000AD0B0100542F00202DE9F047202A88B035
:1000A00078D83E4B00F5887904461B6848461746C9
:1000B00088469847054640BB40F20116D4F8F83010
:1000C000002B63D02046FFF761FF054600285FD173
:1000D000D4F8F830002B07DDD4E94102904203D375
:1000E000D4F80C21012A14D0013EE9D16FF03B0570
:1000F0006E4620213046FFF78FFC294B48461B688F
:100100009847002818BF6FF01D05284608B0BDE8C5
:10011000F0871F28E8D96E4629462022304604F190
:10012000040AFCF7E5FB3146504600F019FE05468F
:100130000028DED1504600F0CFFD504600F0B8FD5B
:100140002946504600F0CEFD05460028D1D1504644
:100150002022314600F0DAFD05460028C9D10346C9
:1001600032462021304600F059FF05460028C0D114
:10017000D4F8F8303A46002BC8BF00234046314639
:10018000C8BFC4F80431FCF7E2FBB2E76FF03F05EB
:100190006E46AEE76FF03B05B7E700BF502F00207B
:1001A000542F0020002130B58DB0282202A80191E3
:1001B000FCF79EFB02A800F059FF044610B1204650
:1001C0000DB030BD184D4FF0FF31286800F044F9F4
:1001D0000446C0B9002000F06FF900BB134A02A921
:1001E00001A800F0D5FC0446012000F065F990B9A3
:1001F000286800F039F90028E1D00D4800F0C2F974
:1002000020460DB030BD0B4800F0BCF9012C08BFF2
:100210000524EDD0DEE7084800F0B4F9E8E7074828
:1002200000F0B0F9DAE700BF482F0020C8440020F2
:100230007018010018180100501801003018010052
:1002400030B583B000F05CF828B100F0ABF80324BF
:10025000204603B030BD00F077F8D8B900F02CF993
:10026000E0B9224CD4F828391B0EF02B0AD1D4F86F
:10027000242A1F4B9A4231D000F044F8072400F0A2
:1002800091F8E5E7062400F03DF800F08BF82046F1
:1002900003B030BD0424204603B030BD00F032F876
:1002A00000F080F8FFF77EFF044698B9114D2B68E7
:1002B000002BCDD102460146FFF74CFB50B9682216
:1002C0000D4901ABFFF77AFB20B920460B4B2B60A1
:1002D00003B030BD0524204603B030BD012000F03E
:1002E000EBF80028DAD1C4F80C0ADBE700108450E0
:1002F0000000E020C44400205C4400205AEA5A5A1E
:100300000020704700207047430504D54FF0FF32AE
:10031000034BC3F80821024BC3F8080A704700BF1B
:1003200000108450014BC3F8040A70470010845039
:1003300008B100F06BB84FF47500704708B100F0D9
:100340004FB84FF47500704710B5114800F070F8C1
:1003500000B110BD0F4800F06BF80028F9D10E4C29
:10036000204600F065F80028F3D10C4B0C481C60C7
:1003700000F05EF801460028EBD100F02DF80446AD
:1003800008B1204610BD00F079F82046FAE700BF1A
:10039000442F0020382F0020402F0020482F00201D
:1003A0003C2F002008B5084800F04CF8074800F042
:1003B00049F8074800F046F8064800F043F8BDE861
:1003C000084000F00BB800BF442F0020382F002059
:1003D000402F00203C2F002000207047704700BFB6
:1003E000024610B4084CD4F8003A1342FBD021B1B5
:1003F000D4F804310B60C4F80831034B0020C3F873
:10040000082A5DF8044B704700108450044AD2F863
:10041000003A1842FBD0C2F8080A0020704700BF1B
:1004200000108450FCF794B80A460021FCF760BA2B
:1004300008B5034B02681B6810689847002008BD88
:10044000682F002008B5034B02685B681068984766
:10045000002008BD682F0020024B02689B681068CE
:10046000184700BF682F002008B5034B0268DB68FF
:1004700010689847002008BD682F002070B5094C0F
:10048000094D2069AB68984718B1084B08485B686C
:1004900098470021074AEB6811602069BDE8704069
:1004A000184700BF782F0020682F0020582F002009
:1004B00088180100E8460020F8B51A4D1A4E044687
:1004C000B26828699047E8B9184F3B684CB1A3B1AE
:1004D000012B19D0013B3B602869F3689847002045
:1004E000F8BD43B90121124AC2F800151149D1F8EB
:1004F0001029002AFBD101333B60F3682869984733
:100500000020F8BD0C48F8BD0A4AD2F81039002B7B
:10051000FBD1074A6FF07E40C2F80035FFF702FFBB
:100520003B68D7E7782F0020682F0020E84600209E
:100530000000845000108450E98FFFFF014B1B68BE
:10054000184700BF682F0020014B9B68184700BF69
:10055000682F0020014BDB68184700BF682F002080
:10056000BFF34F8F0549064BCA6802F4E06213439C
:10057000CB60BFF34F8F00BFFDE700BF00ED00E091
:100580000400FA0530B44FF0FE320025074B084C4A
:1005900008494968C3F80024C3F80424C3F80824B0
:1005A000C3F80C24C4F8005530BC08470010845030
:1005B00000008450582F002010B5044650B16368E5
:1005C00013F0685F05D0064A934202D000236260B0
:1005D000236010BD034B04485B689847EFE700BFFA
:1005E0002C5F5CA9582F0020A8180100C8B14368EF
:1005F0000D4A934213D013F0685F0ED0012350E8E8
:10060000002F194640E8001C9CF0000FF7D1012A8A
:10061000F5D0BFF35F8F002070470448704704484F
:1006200070476FF4E04070472C5F5CA9E98FFFFFD3
:10063000EA8FFFFF034680B1426809498A420AD027
:1006400012F0685F05D0BFF35F8F002210461A607A
:10065000704704487047044870476FF4E0407047A3
:100660002C5F5CA9E98FFFFFEA8FFFFF10B50446FE
:1006700020B10023034A2360626010BD0248FFF7E7
:1006800081FFF6E73A00003AD0180100002800F098
:1006900084802DE9F0430C4683B0002978D01D46B4
:1006A000002B75D007461AB1012200232A6003608F
:1006B0002B68002B67D02946204600F0CDFD03466D
:1006C000002861D12146286800F0A8FD03460028D3
:1006D0005AD12A68082A72D0042A73D0A2F10208DB
:1006E000B8FA88F84FEA58180120384EC6F8C40105
:1006F000C6F84001C6F8C401626AC6F83021D6F8CF
:1007000030118A42F6D14FF0000901934FF0FF30CB
:10071000C6F82C91FFF7F8FD6FF01B024846C6F8AB
:100720000021FFF7FFFDC6F80C81D6F8040A40F45B
:100730008060FFF7F7FD0A22C6F838210A9B012BDB
:10074000019B2DD022692249A1FB02121209616A84
:10075000184601FB02F202EB42021C49D203920945
:10076000C1F8D8210122C1F82C213A68296822F069
:100770007F4242EA01623A60296842EA01223A6015
:1007800003B0BDE8F083134B184603B0BDE8F08317
:10079000114B184603B0BDE8F0830F4B1846704765
:1007A0004FF47F02D2F80C1C013106D0D2F80C2C89
:1007B0000749A1FB02121209C9E71622C7E74FF049
:1007C000030891E74FF002088EE700BF0010845045
:1007D000ABAAAAAA310CF100350CF10070B50024C7
:1007E000C9004FF0010C2546A6464E1E08E09E4566
:1007F00014D00125B44516D89E4601340CF1010CE5
:10080000630950F8233004F01F01CB401F2918BFA3
:1008100003F00103002CEAD10125EDE701359542F3
:10082000E8D1024870BD002070BD00BF360CF10059
:1008300000283FD02DE9F0414C1EB4F5047F28D2AA
:100840003BB332B34FF0000E764675467446CF0088
:1008500003F1FF38610950F8211004F01F0C21FA50
:100860000CF1BCF11F0F18BF01F00101A4B1AB42A4
:1008700018D08E4208BF0EF1010EA84515D03146A2
:1008800001350134BC4201D00E46E3E70020BDE84B
:10089000F0810948BDE8F0814FF0010E0E46744624
:1008A0007546D7E70125AE46EBE77245F1D33146F1
:1008B0001D46E6E700487047370CF1002DE9F04F80
:1008C00091B08346DDE91B460D46002E4ED10969E5
:1008D00006911C6000231A990B60002A00F0268103
:1008E0009E4B6A6AD3F83811D3F830319A4249D115
:1008F0000A2947D19BF80330089304F10803069AAC
:100900000793042311460593954B944CA3FB0113C5
:100910009B0803EB4303A2EB430303931A9B069E3E
:100920001E60002E34D04FF000084FF0010ADDF8B1
:100930001C9000F0A1FC00230993BBF1000F00F014
:10094000DF80002D00F0DC80089BEBB1284608A971
:1009500000F082FC00283ED0824B984218D10390D0
:1009600000F08AFC039811B0BDE8F08F4FF47F01CE
:10097000D1F80C0C01300CBF4FF40471D1F80C1CF1
:100980000691A6E77848EAE77848764B9842E6D0A1
:10099000089B082B00F0C88000225B0008932946C2
:1009A00008AB58460092FFF771FE704B984200F07A
:1009B000B7800028D3D1DBF80020130A03F47F03AB
:1009C000134323F07F43CBF80030059B013B059395
:1009D000A4D10020C3E72946089800F01FFC002896
:1009E000BAD1089B082B00F09580042B00F095806D
:1009F000A3F10203B3FA83F35B090493C4F8C4A11F
:100A0000C4F840A1C4F8C4A16B6AC4F83031D4F86A
:100A100030219342F6D100234FF0FF30C4F82C313F
:100A2000FFF772FC002318466FF01B03C4F8003177
:100A3000FFF778FC049B4A4FC4F80C31D4F8040A41
:100A400040F48060FFF76EFC0A23C4F838312B694C
:100A500009A8A7FB03236A6A1B0902FB03F303EB44
:100A60004303DB039B09C4F8D831C4F82CA10899CF
:100A7000DBF800200B0222F07F4243EA01631343BC
:100A8000CBF8003000F0BAFB099B03F01A030343D4
:100A90007FF47EAFA7FB0637D4F81431B8EB970F7D
:100AA0000A93D4F818310B93D4F81C310C93D4F872
:100AB00020310D93D4F824310E93D4F828310F93BC
:100AC00001D1039BF3B9484618220AA9183E09F13F
:100AD0001809FFF7A7FC08F10108002E7FF429AFE1
:100AE000069BB3F5047F36D8079E194630466A69DF
:100AF0001F46FFF773FE20B300231A9A13602BE7FB
:100B00001B4829E71A4648460AA9F61A9944FFF7EE
:100B100089FCE0E70323049370E7022304936DE765
:100B20002B6A002B3FF41BAF124818E7012229461D
:100B30005846009608ABFFF7A9FD00283FF4DDAE4C
:100B40000DE74FF4806339463046AA69FFF770FE1F
:100B50000028D1D13DE71A9B1E6019E70010845090
:100B6000ABAAAAAA020CF100300CF100310CF10082
:100B7000350CF100320CF10030B4DDE9023402949E
:100B80000024049DCDE9035430BCFFF797BE00BF9D
:100B900030B51546012487B005AB00930022CDE99E
:100BA000015404ABFFF78AFE07B030BD2DE9F041D8
:100BB00088B00592002968D01C46002B65D01546E8
:100BC000002A62D0DFF8E4800E46D8F800004FF02B
:100BD000FF31FFF741FC00284CD10020FFF76CFCEF
:100BE000002843D12A4800F041FAE8B101204FF033
:100BF000FF37FFF761FC002834D14FF40871254816
:100C0000FEF700FF04212448FEF7FCFE20482821BF
:100C1000FEF7F8FED8F80000FFF726FC00282DD1DB
:100C2000384608B0BDE8F0811A4B0246029307AB84
:100C30000390009316491848019405ABFFF79CFFF9
:100C40000028D3D12368AB42D0D3079907462A4660
:100C500030460831FFF7E6FB01202560FFF72CFC4A
:100C60000028CAD00D48FFF78DFCC6E70C48FFF7F7
:100C700089FCB7E70B48FFF785FCAEE70A48FFF7AA
:100C800081FC384608B0BDE8F0814FF0FF37C7E778
:100C90002049002000470020FC4600205018010099
:100CA0003018010018180100F4180100482F002026
:100CB00010B5044628B12046BDE81040F421FFF7E6
:100CC000B3BB0448FFF75EFC2046BDE81040F421AA
:100CD000FFF7AABB0C19010010B1F421FEF792BE78
:100CE000704700BF08B561B1012907D1022100F0AA
:100CF0005BF8002818BF6FF0360008BD6FF03600B3
:100D000008BD012100F050F8F3E700BF30B50546FB
:100D10008818B0F5801F0B461446A1B001D8802A70
:100D20000CD9B3F5801F17D922461946284600F082
:100D30007DF8044684B9204621B030BD6846FFF7EF
:100D400071FB22466946284600F070F8802104466F
:100D50006846FFF769FBEDE76FF03604EBE700BF8D
:100D600070B5E8B10E46D9B1044600F031F8054639
:100D7000B0B92368012B0BD0022B01D0284670BDDF
:100D80001C22304604F10801FFF74CFB284670BDD9
:100D90002022304604F10801FFF744FB284670BDCD
:100DA0006FF03605EAE700BF78B138B50D46F0219F
:100DB0000446FFF739FB402320462560E36500F039
:100DC0009BFA003818BF012038BD0120704700BFD2
:100DD000F0B5056EA5B0044604AEE5B900230127C1
:100DE000019330466760294602AA009300F050FA4A
:100DF00010B1012025B0F0BD2A46204602A900F01E
:100E0000A5FA0028F5D1204600F0B6FB0028F0D165
:100E1000206625B0F0BD802D2A46304628BF8022AE
:100E200004F16401FFF7FEFA256ED7E7002800F011
:100E3000CD802DE9F04F1546A5B0002A00F0B48012
:100E40000F46002900F0AC80B2F5803F0646006EE8
:100E50007DD34FF6FF7806F1640914E08342BA4669
:100E60004FF6FF7429D0B4FBF3FB03FB0BFBBBF184
:100E7000000F44D1A5F57F454744FF3D002C59D1D3
:100E8000B5F5803F63D3F36D1C1AB4FBF3F203FB9B
:100E90001244002CE2D0444528BF4446394622463D
:100EA0004844FFF7BFFA306EF36D2044834207EBEE
:100EB000040A3066A8EB0404D5D1802B28BF802318
:100EC00049461A4604A8FFF7ADFA0023F16D02AABD
:100ED000CDE9003304A800F0DBF9002860D13046EA
:100EE000F26D02A900F032FA002859D1F36D306694
:100EF000B4FBF3FB03FB0BFBBBF1000FBAD00023E9
:100F000059465046CDE9003302AA00F0C1F9002845
:100F100046D15A46304602A900F018FA00283FD1BF
:100F2000A5F57F45A4EB0B04306EDA444744FF3D42
:100F3000002CA5D019305146224606EB8000FFF761
:100F400071FA306EB5F5803F204430669BD2F26D69
:100F5000141AB4FBF2F302FB1344AC4228BF2C4634
:100F600034BB904234D0B5FBF2F402FB04F46CB90C
:100F7000D5B1336E2A46193306EB83003946FFF7A5
:100F800051FA336E00202B4433660AE000232146D9
:100F90003846CDE9003302AA00F07AF9002833D0B0
:100FA000012025B0BDE8F08F284625B0BDE8F08FC0
:100FB00006F16403394622461844FFF733FA306ECF
:100FC000F26D20442D1B27443066CAE7012070478C
:100FD000802A28BF802206F1640104A8FFF722FAC4
:100FE0000023F16D04A8CDE9003302AA00F050F906
:100FF0000028D5D13046F26D02A900F0A7F90028EB
:10100000CED1F26D3066AEE72246304602A900F03E
:101010009DF90028C4D127442D1BA9E7F8B51C462B
:101020000546114816460F46FFF742FE21460E4878
:10103000FFF758FE044620B10B48FFF74DFE20464F
:10104000F8BD3A4629460848FFF760FE04460028E6
:10105000F2D131460448FFF783FE04460248FFF709
:101060003BFE2046F8BD00BF484900201C2330B598
:1010700083B001A90446019300F036F8054638B95B
:10108000019B1C2B07D0164D1C212046FFF7CCF9E5
:10109000284603B030BD0121D4E90032003B18BF1F
:1010A0000123E1610AB143F00203A26832B9E268A8
:1010B00042B9C4E908328BB90A4DE5E7E26843F06A
:1010C00004033AB10022284643F00803C4E9083279
:1010D00003B030BD1546C4E90832D9E71546D7E755
:1010E000370CF0000E0CF0000346002866D00029F3
:1010F00064D00A681C2A61D14FF47F023B49D2F8C0
:10110000100C88425CD0D2F8101C013158D0D2F8B3
:10111000101C4FF47F021960D2F8140C3449884235
:1011200060D0D2F8141C01315CD0D2F8141C4FF4FA
:101130007F025960D2F8181C11F5947F4FD0D2F875
:10114000181C01314BD0D2F8181C4FF47F02996063
:10115000D2F81C0C274988423ED0D2F81C1C013121
:101160003AD0D2F81C1C4FF47F02D960D2F8001C90
:1011700070312FD0D2F8001C01312BD0D2F8001CD6
:101180004FF47F021961D2F8041CAF3120D0D2F89D
:10119000041C01311CD0D2F8041C4FF47F025961A9
:1011A000D2F8080C144988420DD0D2F8081C01313D
:1011B00009D0D2F8082C00209A61704701207047AE
:1011C00040F6FC01A5E740F2373200209A617047F3
:1011D0005121E2E79021D3E742F60411C3E740F63C
:1011E000D861B2E742F2D001A1E700BFFCF8FFFFEF
:1011F000D020FFFF0429FFFF37F3FFFF014608B5AA
:101200004FF48060FFF79AF80022034BC3F8C8211F
:10121000C3F82C2108BD00BF0010845001380728F6
:1012200005D8DFE800F0120E040A04040406094899
:101230007047CB6800204B6270478B6800204B6280
:1012400070474B6800204B6270470B6800204B6270
:10125000704700BF310CF1000B6802E0082B0B60F7
:1012600006D8026A13424FEA4303F7D000207047C2
:1012700000487047310CF1000022044B4FF48060AD
:10128000C3F82C21C3F8C421FFF73EB800108450E6
:10129000F0B5002483B0B0F1005F8DF8074025D38E
:1012A0008C468444BCF1804F04461FD817461D4627
:1012B00001220DF1070300F099F90646B0B99DF837
:1012C0000730099A3C603B7192B14DB102460899D2
:1012D00028460DF1070300F089F938B99DF8073069
:1012E0003046099A1560137103B0F0BD4FF47506CE
:1012F000304603B0F0BD00BFE8B110B50468012C62
:1013000004D0022C10D044B10C4810BD20220C494E
:101310000830FFF787F8002010BD14220949083073
:10132000FFF780F8204610BD202207490830FFF75C
:1013300079F8002010BD4FF4730070470100F300EE
:10134000501901001C190100301901002DE9F84362
:10135000002900F0F9800446002800F0F9800368B5
:101360000F469046002B00F0C380013B012B00F29A
:10137000D7804FF0FF3178484FF00209FFF76CF843
:10138000002840F0BF800020FFF796F806460028AE
:1013900040F0C280714AD2F81C39002BFBD16F4D4E
:1013A000D5F8203C002BFBD14FF0FF30FEF7ACFF0F
:1013B000D5F8040A20F04000FEF7B4FF012307220D
:1013C000C5F81838C5F80029C5F8C437A36CC5F8A6
:1013D000CC37E36CC5F8D037C5F8C09723685BB14C
:1013E000013B012B18D8636AC5F85C36236AC5F83F
:1013F0005836E369C5F85436A269584BC3F85026ED
:101400006269C3F84C262269C3F84826E268C3F82B
:101410004426A268C3F84026504AD2F81039002B5F
:10142000FBD1B8F1000F5FD063684020012B08BFEB
:10143000C2F884363A68494BC3F8282CC3F82C8C80
:10144000FEF776FF0646454AD2F81039002BFBD14D
:10145000424AD2F8203C002BFBD123685BB1013B10
:10146000012B18D8D2F85C366362D2F85836236262
:10147000D2F85436E361394BD3F85026A261D3F841
:101480004C266261D3F848262261D3F84426E260F4
:10149000D3F84036A36000230121304AD2F8CC07AC
:1014A000A064D2F8D007E064C2F8C417C2F884364A
:1014B000C2F8C837D2F81039002BFBD1C2F818385F
:1014C000002E3BD1254BD3F8040A40F04000FEF734
:1014D00029FF0120FEF7F0FF60BB1F48FEF7C4FFA5
:1014E00010BB3046BDE8F8830423C2F8C837AAE72A
:1014F0004FF0FF3118484FF00109FEF7ADFF00280B
:101500003FF441AF1648FFF73DF80020FEF7D4FF47
:10151000064600283FF43EAF1248FFF733F839E79C
:10152000114E3046BDE8F8831048FFF72BF83046DF
:10153000BDE8F8830E48FFF725F8CEE7102104F147
:101540000800FEF771FFBDE70A4E3046BDE8F8839C
:101550004FF47306C5E700BF442F002000108450ED
:1015600018180100301801000100F3007018010084
:10157000501801000300F300A0B3034670B4D0E993
:101580000240D3E9041226BA05BA0CBA10BAC3E96C
:101590000440D3E90612986A09BAC3E9026512BA8F
:1015A000996100BAD3E9084125BA0CBAC3E9072505
:1015B000D3E90B12C3E9094009BAD86B12BAD96250
:1015C000D3E90D4125BAC3E90C250CBA00BAD3E919
:1015D000101209BA12BAC3E90E40196400205A6405
:1015E00070BC70474FF47300704700BF0020187044
:1015F000704700BF014B1B68184700BFA42F002095
:10160000024B1860024B002019607047A82F002081
:10161000A42F0020054A0346106810B1034413604C
:101620007047034803441360704700BF4C4A0020D2
:10163000000C0020FEE700BFF8B500BFF8BC08BCF6
:101640009E467047F8B500BFF8BC08BC9E46704780
:101650000122FBF7F3FF1FBD1FB51F486946F7E7DF
:101660001FB51E486946F3E71FB51D486946EFE7F9
:101670001FB51C486946EBE71FB51B486946E7E7FD
:101680001FB51A486946E3E71FB519486946DFE701
:101690001FB518486946DBE71FB517486946D7E705
:1016A0001FB516486946D3E71FB515486946CFE709
:1016B0001FB514486946CBE71FB513486946C7E70D
:1016C0001FB512486946C3E71FB511486946BFE711
:1016D0001FB510486946BBE791D6000097D60000B9
:1016E000C5D60000C5D9000005DA00006DDA00009B
:1016F000DFDA000025DB000091DB000035DC0000B4
:1017000045DC000071DC00008DD60000ADD8000083
:1017100051D9000075DC000054464D5F43525950CA
:10172000544F0054464D5F53505F504C4154464F08
:10173000524D5F53595354454D5F524553455400E4
:1017400054464D5F53505F504C4154464F524D5F8D
:10175000494F43544C0054464D5F53505F504C41E9
:1017600054464F524D5F4E565F434F554E5445526F
:101770000000000071DD000049DD0000E5DC000034
:10178000AFDC0000BDDC000099DC000080310020EF
:101790005031002084CB0000008001000080010057
:1017A000FF2F0700007C01000080010000500700AF
:1017B000FFBF0D0000E00F00FFFF0F000000000062
:1017C00000020000000400000008000000100000FB
:1017D000DEE61E284CBBCE8F025B000000C000007E
:1017E000000200000002FF002C0000003001FF009A
:1017F000080000004001FF000C000000FF8FFFFF09
:10180000FF8FFFFFFE8FFFFFFE8FFFFFFD8FFFFFAC
:10181000FC8FFFFFFC8FFFFF4661696C20746F2017
:1018200061637175697265206D757465780A000071
:101830004661696C20746F20696E637265617365BF
:1018400020504D20636F756E7465720A00000000B1
:101850004661696C20746F206465637265617365AD
:1018600020504D20636F756E7465720A0000000091
:101870004661696C20746F2072656C6561736520C8
:101880006D757465780A0000436F756C64206E6F27
:1018900074206C6F636B20706F7765722073617654
:1018A00065206D75746578006D757465785F667216
:1018B00065652063616C6C65642077697468204E8F
:1018C000554C4C20706172616D657465720000004A
:1018D00043616E277420696E697469616C697A6509
:1018E000206D757465782C20776173204E554C4CB3
:1018F0000D0A00004661696C20746F20756E6C6F74
:10190000636B206D757465780A0000000A63747853
:10191000206973204E554C4C0A0000000123456796
:1019200089ABCDEFFEDCBA9876543210F0E1D2C329
:10193000D89E05C107D57C3617DD703039590EF7B2
:10194000310BC0FF11155868A78FF964A44FFABE78
:1019500067E6096A85AE67BB72F36E3C3AF54FA540
:101960007F520E518C68059BABD9831F19CDE05B6C
:1019700000000000B4B8FF7F010000000090D00319
:10198000503100202030002060CA000090ED00E0BF
:10199000001C00207C2F0020882F0020802F00209A
:1019A000782F0020402F00203D050100490501004F
:1019B000550501000000000061050100EC46002013
:1019C0003A00003A6D060100B9050100ED0501007D
:1019D000350601009C2F0020602F0020942F00204E
:1019E000000000008C2F0020F04600203A00003A52
:1019F000F44600203A00003AF84600203A00003A47
:101A000041C50000C1C40000B02F0020000000004C
:101A100000000000000000000000000000000000C6
:101A200000000000000000000000000000000000B6
:101A300000000000000000000000000000000000A6
:101A40000000000000000000000000000000000096
:101A50000000000000000000000000000000000086
:101A600000000000000000000000000009D200009B
:101A7000E1D10000FFFFFFFFFFFFFFFFFFFFFFFFC0
:101A8000FFFFFFFFFFFFFFFFFFFFFFFFFFFFFFFF66
:101A9000FFFFFFFFFFFFFFFFFFFFFFFFFFFFFFFF56
:101AA000FFFFFFFFFFFFFFFFFFFFFFFFFFFFFFFF46
:101AB000FFFFFFFFFFFFFFFFFFFFFFFFFFFFFFFF36
:107C00007FE97FE9F4F790BD7FE97FE9F4F7A2BD52
